:020000040800F2
:100000007023002049010008D9060008D506000821
:10001000D7060008D10600086107000800000000AC
:10002000000000000000000000000000FD060008C5
:10003000D306000800000000FB060008FF060008C9
:100040006301000863010008630100086301000800
:1000500063010008630100086301000863010008F0
:1000600063010008630100086301000863010008E0
:1000700063010008630100086301000863010008D0
:1000800063010008630100086301000863010008C0
:1000900063010008630100086301000863010008B0
:1000A00063010008630100086301000863010008A0
:1000B0006301000863010008630100086301000890
:1000C0006301000863010008630100086301000880
:1000D0006301000863010008630100086301000870
:1000E0006301000863010008630100086301000860
:1000F0006301000863010008630100086301000850
:10010000630100086301000863010008630100083F
:10011000630100086301000863010008630100082F
:10012000630100086301000863010008630100081F
:10013000DFF810D000F02CFA00480047951C0008AA
:10014000AFF3008070230020064880470648004730
:10015000FEE7FEE7FEE7FEE7FEE7FEE7FEE7FEE777
:10016000FEE7FEE7050700083101000800F0004245
:1001700030F000400AD0C10D01F56071C0F31600E7
:1001800042EA0151C208400711437047002001466E
:10019000704730B50B46014600202022012409E0BB
:1001A00021FA02F59D4205D303FA02F5491B04FA30
:1001B00002F52844151EA2F10102F1DC30BD2DE943
:1001C000F05F0546002092469B46884606468146DB
:1001D00040241BE0284641464746224600F0F9F9F4
:1001E00053465A46C01A914110D31146184622462A
:1001F00000F0E0F92D1A67EB01084F462246012076
:10020000002100F0D7F917EB00094E41201EA4F1A0
:100210000104DFDC484631462A464346BDE8F09FEC
:100220002DE9FE4F804681EA0300C00F0C46009086
:1002300021F0004123F00045B8EB0200A94105D2AE
:100240004046214690461C460B46024623F000409D
:10025000104347D0270DC7F30A00C3F30A51029099
:10026000401A019040286BDAC3F3130040F4801B5E
:100270000098924620B10023D2EB030A63EB0B0BEC
:1002800001985946C0F14002504600F093F90646E5
:100290000D4650465946019A00F0ABF910EB0800A4
:1002A0006141002487EA115284EAE7731A4340D07F
:1002B000009A62B3019A012A4FEA075215DC001B2B
:1002C00061EB02014FF0004202EA0752CDE9004221
:1002D000001C41F5801132462B4600F0ABF903B00B
:1002E000BDE8F08F40462146F9E7001B61EB0201B3
:1002F000001C41F5801300185B412018A2F500177F
:1003000047EB030140EAD570B6196D4111E06D0865
:100310004FEA360645EAC0754FEA0752001B61EB0B
:100320000201001C41F5801149084FEA3000001914
:10033000514132462B4603B0BDE8F04F00F06BB997
:100340000098012240000023D0EB020263EBE0732F
:10035000009821464FEAE074B8EB000061EB04011D
:10036000E9E783F000435BE781F0004158E72DE9BE
:10037000FE4F81EA030404F0004421F000410094A0
:100380004FF0000B23F0004350EA01045ED052EA24
:1003900003045BD0C3F30A54C1F30A552C44A4F2FE
:1003A000F3340194A0FB0254C1F3130141F4801112
:1003B000C3F3130343F4801301FB024400FB034E19
:1003C000840A970A44EA815447EA8357A4FB0768E2
:1003D00002958D0A05FB07854FEA932C04FB0C540C
:1003E0002705029D4FEA065847EA1637B5EB080580
:1003F0006EEB070C870E920E47EA811742EA8312D2
:10040000A7FB0201B6EB0B0164EB00042B0D43EAE2
:100410000C335E1844EB1C50DA465146E7FB0201F0
:10042000C5F313044FEA0B3343EA14534FEA043283
:10043000019C43EA0603A4F10C040294009CCDE95C
:1004400000B400F0F7F803B0BDE8F08F00200146DB
:10045000F9E72DE9F04D81EA030404F0004B21F0A7
:10046000004514464FF0000A23F0004150EA05020F
:1004700020D054EA01021DD0C5F30A570246C5F345
:100480001303C1F31300C1F30A5640F4801543F47B
:100490008013A7EB0608101BD64608F2FD3873EB55
:1004A000050002D308F1010801E092185B41B8F1A0
:1004B000000F03DA00200146BDE8F08D00204FF464
:1004C0008011064684460EE0171B73EB050705D323
:1004D000121B63EB050306434CEA010C49084FEA83
:1004E000300092185B4150EA0107EDD152EA030057
:1004F00012D082EA040083EA0501084305D0101BEC
:10050000AB4106D20122002306E000224FF0004357
:1005100002E06FF0010253101AEB06004CEB085199
:1005200010EB0A0041EB0B01BDE8F04D00F073B891
:10053000C1F30A52C1F3130140F2FF3341F48011B9
:100540009A4202DA00200146704740F233439A4251
:10055000A2F2334202DC524200F03BB800F02AB86B
:1005600030B5041E71F1000404DB4FF0004440423A
:1005700064EB0101141E73F1000405DB1C464FF00F
:100580000043524263EB0403994208BF904230BDDE
:10059000064C074D06E0E06840F0010394E80700D0
:1005A00098471034AC42F6D3FFF7C6FDB06300089D
:1005B000D0630008202A04DB203A00FA02F1002070
:1005C00070479140C2F1200320FA03F31943904091
:1005D0007047202A04DB203A21FA02F000217047FC
:1005E00021FA02F3D040C2F120029140084319469B
:1005F0007047202A06DBCB17203A41FA02F043EA83
:10060000E07306E041FA02F3D040C2F120029140CB
:1006100008431946704710B5141E73F1000408DA38
:10062000401C41F1000192185B411A4301D120F0B6
:10063000010010BD2DE9F04D92469B4611B1B1FA73
:1006400081F202E0B0FA80F220329046FFF7B2FF6A
:1006500004460F4640EA0A0041EA0B0153465A4657
:10066000084313D0114653EA010019D0C8F14002E3
:100670005046FFF7AEFF05460E46504659464246E5
:10068000FFF798FF084305D0012004E020463946D3
:10069000BDE8F08D0020054346EAE0762C43374361
:1006A0000A986305E40AA0EB08000022FD0A44EA68
:1006B00047540A3002D500200146E9E70105101928
:1006C0006941DDE9084500196941BDE8F04DA2E73F
:1006D000FEE77047FEE7FEE770470907090E0028AE
:1006E00006DA00F00F0000F1E02080F8141D7047DA
:1006F00000F1E02080F8001470477047704700F068
:1007000009BE0000134882B0016841F47001016025
:100710001148016841F001010160416841F0800128
:100720004160002144F620620091009B5B1C009315
:100730009342FAD34160C1620168084A11400160E6
:100740004FF41F018160016821F48021016002B033
:1007500001F056BE88ED00E000100240FFFFF6FEFB
:10076000FEE700000FB4054B10B503A9044A029838
:1007700000F00CF910BC5DF814FB0000611A0008D1
:10078000180000200FB4084B10B504A902AA039862
:1007900000F0FCF8044602A9002000F07AFC204694
:1007A00010BC5DF814FB00009310000802E008C8BC
:1007B000121F08C1002AFAD170477047002001E0DB
:1007C00001C1121F002AFBD17047000070B5074C11
:1007D00005460221204601F0EDFD0028F9D029460A
:1007E0002046BDE8704001F0C4BD00000038004064
:1007F00010B5044C8021204601F0DCFD0028F9D121
:1008000010BD0000003800402DE9FF5F82B00021DC
:10081000DDE90430020DDDF840B0034318D044F6A2
:100820001050A2F2FF3242431514119801281FD034
:10083000A5EB0B00401C5FEA000A4FF000064E4F8C
:10084000DFF83891B046504615D5CAF1000413E0E0
:10085000119801244AA3012801D16FEA0B010298E3
:10086000119AC0E90031C0E9024206B0BDE8F09F2C
:10087000CBF10000DFE704460021404A491842EB73
:100880000450CDE9001012E0E00707D032463B46A5
:1008900040464946FFF76BFD8046894632463B4657
:1008A00010461946FFF763FD06460F466410002CFC
:1008B000EAD1DDE90401DDE90023BAF1000F06DA2F
:1008C000FFF755FD42464B46FFF751FD05E0FFF7A8
:1008D000C0FD42464B46FFF7BCFD04460E460022D3
:1008E000284BFFF73DFE03D84FF0FF30014607E0ED
:1008F0000022254B20463146FFF792FCFFF718FEF9
:10090000102409E0002C0ADB0A220023FFF757FC21
:10091000039B30321A55641E50EA0102F2D1641C66
:10092000039AC4F111031444119A012A03D001223D
:1009300008430DD10AE0084304D000204FF0110B0A
:10094000119072E7A3EB0B056D1E0DE05B4504DD16
:100950004FF0000205F1010504E003DA4FF0000258
:10096000A5F10105002AECD002981199C0E90231E5
:10097000C0E9004579E70000000014400000F03FA6
:10098000300000000000F0430000E03F2DE9FF4F81
:1009900095B09A46884606460025EEE1252877D18F
:1009A00000242746F94A0121039400E0044316F885
:1009B000013F203B01FA03F01042F7D130782A289A
:1009C00011D06FF02F033078A0F13002092A16D829
:1009D000039A44F0020402EB820203EB4202104449
:1009E000761C0390EFE758F8042B0392002A03DAF1
:1009F000504244F40054039044F00204761C3078D2
:100A00002E2816D116F8010F44F004042A280DD020
:100A10006FF02F023078A0F13003092B09D807EBD3
:100A2000870302EB4303C718761CF3E758F8047BEF
:100A3000761C30786C280FD006DC4C2817D068283C
:100A40000DD06A2814D104E0742810D07A280FD170
:100A50000DE044F400140AE044F4801401E044F48E
:100A600040147278824202D104F58014761C761C00
:100A7000307866280BD013DC582877D009DC0028A2
:100A800075D04528F6D04628F4D047281AD193E1EE
:100A900018E0632835D0642879D0652812D18BE11D
:100AA000702873D008DC6728F1D069286FD06E28D1
:100AB0000DD06F2806D1ACE073282CD0752874D0E7
:100AC000782853D05246179990476D1C54E1C4F3CF
:100AD0000250022809D003280DD0D8F800100428AD
:100AE0000DD00D6008F1040846E1D8F80010EA17AF
:100AF000C1E90052F6E7D8F800100D80F2E70D705A
:100B0000F0E718F8041B8DF8001000208DF80100A4
:100B1000EB46012003E058F804BB4FF0FF306107BB
:100B20004FF0000102D40DE009F101018946B942FC
:100B30000FDA8145F8DB1BF809100029F4D108E031
:100B400009F1010189468142FADB1BF809100029ED
:100B5000F6D103985346A0EB090721463846179A69
:100B600000F080FA284400EB090507E044E008E1C2
:100B70000DE01BF8010B524617999047B9F1010996
:100B8000F7D2534621463846179AF2E039E00A2157
:100B9000C4F302524FF0000B0091022A06D058F81D
:100BA000040BC117032A09D00AE023E008F107006B
:100BB00020F00702F2E80201904605E000B2C117FA
:100BC000042A01D140B2C117002906DA0A460021E1
:100BD000404261EB02012D2202E0220504D52B22C6
:100BE0008DF80420012203E0E20701D02022F7E77C
:100BF000914657E00A2100E010214FF0000B0091D0
:100C00000BE010214FF0000B44F004040827009182
:100C100003E008204FF0000B0090C4F30252022AB8
:100C200005D058F8040B0021032A08D008E008F189
:100C3000070020F00702F2E80201904603E080B2CC
:100C4000042A00D1C0B24FF0000922072AD5327819
:100C5000702A07D0DDF800C08CF0100C5CEA0B0C99
:100C600005D00EE040228DF80420012208E050EA71
:100C7000010306D030238DF804308DF805200222C0
:100C80009146009B83F0080353EA0B030AD150EA14
:100C9000010201D1620705D530228DF804204FF002
:100CA00001097F1E3278582A04D039A20C920CAA6E
:100CB00002920BE03BA2F9E75B46009AFFF77FFA4E
:100CC0000C9B9B5C029A521E0292137050EA010226
:100CD000F2D1029804A9081A00F1200B600702D58E
:100CE00024F4803400E001275F4502DDA7EB0B0010
:100CF00000E0002000EB0B01009003984944401AEB
:100D00000390E00306D453462146179A039800F057
:100D1000A9F90544002706E001A85246C05D1799CD
:100D200090476D1C7F1C4F45F6DBE0030CD5534606
:100D30002146179A039800F095F9054404E0302005
:100D40005246179990476D1C0099481E0090002943
:100D5000F5DC08E00298029952460078491C02919D
:100D6000179990476D1CBBF10001ABF1010BF1DC51
:100D70005BE100F065F90544761C307800287FF4CB
:100D80000DAE19B02846BDE8F08F0000092801001B
:100D900030313233343536373839616263646566F1
:100DA00000000000303132333435363738394142B3
:100DB0004344454600000000600700D4062708F1C0
:100DC000070020F00700F0E80223804603F0004C03
:100DD0005FEA0C0001D097A009E0200501D596A09C
:100DE00005E0E00701D095A001E0AFF24C001390C0
:100DF000307823F0004365280CD006DC452809D064
:100E000046281DD047287FD13BE0662818D06728A8
:100E10007AD136E00021112F01DB112000E0781C8F
:100E2000CDE9000104A90CA8FFF7EEFCDDE90D01F6
:100E30000C9A4FF0000B07F10109109200914EE05F
:100E40004FF000400097CDE9011004A90CA8FFF76E
:100E5000DBFCDDE90D020C9B0F994FF0000B914676
:100E60001093009211B9791C00EB0109B7EB09004E
:100E700003D4C0F1FF3B07F10109A9EB0700019082
:100E800042E0012F00DA01270021112F01DD11209E
:100E900000E03846CDE9000104A90CA8FFF7B4FC36
:100EA000DDE90D010C9A00914FF0000BB94610924C
:100EB00021070FD4009A4A4503DA914601E0A9F1CF
:100EC0000109B9F1010F05DD109AA9F10101515C89
:100ED0003029F4D0B84202DA10F1040F03DA01210C
:100EE000CDE9011010E0002803DC8344A9EB0001E8
:100EF00002E0411C494500DD8946A0EB0B00401C87
:100F000001904FF000400290200705D40198484519
:100F100002DB4FF0FF30019000208DF84B0002986B
:100F20000DF14B07B0F1004F25D002200C902B2083
:100F30000D90029800280CDA404202902D200D906E
:100F400007E00A210298FFF724F93031029007F8F0
:100F5000011D0C99481E0C900029F2DC0298002813
:100F6000EFD1791E0D980870307800F0200040F025
:100F7000450007F8020D11A8C01BC01D0290139870
:100F8000007800B1012000EB0901019801EBE0714C
:100F9000029801440398401A401E0390E00306D4CF
:100FA00053462146179A039800F05CF805441398BD
:100FB000007818B15246179990476D1CE00323D56D
:100FC00053462146179A039800F04CF805441BE05D
:100FD000BBF1000F07DB0098584504DD1098179906
:100FE00010F80B0001E01799302052469047019805
:100FF0000BF1010B401E05F10105019004D12E20DB
:101000005246179990476D1CB9F10001A9F10109E9
:10101000DEDC05E017F8010B5246179990476D1C6E
:101020000299481E02900029F4DC53462146179A83
:1010300003989EE62D0000002B0000002000000019
:101040002DE9F041044600251E461746880404D4C5
:1010500005E039462020B0476D1C641EF9D52846AE
:10106000BDE8F0812DE9F041044600251E4690467A
:10107000C80301D5302700E02027880404D505E007
:1010800041463846B0476D1C641EF9D52846BDE878
:10109000F0810A68531C0B6010707047816841F042
:1010A0000801816081680907FCD4816841F004016E
:1010B000816081684907FCD470471205A2F580124F
:1010C00001290BD0022908D1816B21F440118163E1
:1010D00002F44011826B114381637047C16A21F4AD
:1010E0007001C16202F47001C26A1143C1627047AB
:1010F00010B540F2096001F00DF9012001F058F837
:101100001D4C01221102204600F0C1F800220221EC
:10111000204600F0BCF84FF4E0420221204600F0E7
:101120005AF8002000F09AF80021204600F026F836
:10113000022211462046FFF7C0FF0723102200219C
:10114000204600F063F8072311220121204600F019
:101150005DF801220221204600F022F800F0C0F8DC
:10116000204600F015F8012000F0CAF82046BDE83E
:101170001040FFF793BF0000002401400029816860
:1011800002D041F4006101E021F400618160704708
:101190008168C90703D1816841F00101816070470E
:1011A000002A4FEAC1720AD01AB1826842F4801252
:1011B000826089070ED5816841F4004109E01AB1C7
:1011C000826822F480128260890703D5816821F445
:1011D000004181607047012909D0022906D1816848
:1011E00021F4E0418160816811438160704781682A
:1011F00021F46021F6E702688A43026070470246E4
:10120000002012680A4200D00120704730B5846B7C
:10121000C4F30155846B491BC91C01EB81011F25D7
:101220008D40AC4302FA01F12143816307240A2A6D
:1012300008D2016902EB42029440A14393400B4360
:10124000036130BD122AFCD2C1680A3A02EB4202A5
:101250009440A14393400B43C36030BD04490A68E6
:1012600022F470220A600A6802430A607047000094
:1012700004240140CA0703D0826842F480028260DD
:10128000890703D5816841F4001181607047002A05
:101290004FEAC15211D0002A03DA426842F4807248
:1012A00042604A0503D5426842F480624260890781
:1012B00015D5816841F0020110E0002A03DA426886
:1012C00022F4807242604A0503D5426822F48062AB
:1012D0004260890703D5816821F00201816070476F
:1012E0000248016841F40001016070470824014090
:1012F00002494A6802434A6070470000002004E047
:1013000003490A6810440A688242FCD3704700000F
:101310001000002002480168491C0160704700006D
:101320001000002070B5054D29680C1802E000205F
:1013300000F032FF2868A042F9D370BD10000020F1
:1013400000224FF48051014800F0A4BB000C014082
:1013500001221103014800F09DBB0000000C014078
:1013600000224FF48041014800F094BB000C014082
:1013700001229103014800F08DBB0000000C0140E8
:101380002DE9F04700258A468146FA264FF01008DD
:101390002946284600F0ECFA242000F041FBFFF734
:1013A000CFFF00275FF0000419F80500FFF70EFAE1
:1013B000641C6D1CB442F7D37F1C4745F2D3FFF782
:1013C00017FAFFF7C5FF0021084600F0D1FA2620E2
:1013D00000F026FB0025FFF7B3FF00275FF00004B5
:1013E0001AF80500C043C0B2FFF7F0F9641C6D1C89
:1013F000B442F5D37F1C4745F0D3FFF7F9F9FFF767
:10140000A7FFBDE8F04700F0D0BA10B504461020A1
:1014100000F006FB2046BDE8104000F0E5BA10B52C
:1014200000F096FA3220FFF76BFF00F099FA3220B5
:10143000FFF766FF00F0C7FA002858D1122000F02D
:10144000EFFA00F0C0FA002851D1012000F0E8FACC
:10145000272000F0C9FA012000F0C6FA012000F0B0
:10146000C3FA112000F0DCFA012000F0BDFA44209C
:1014700000F0D6FA002000F0B7FA0F2000F0B4FA1E
:10148000452000F0CDFA272000F0AEFA012000F050
:10149000ABFA002000F0A8FA002000F0A5FA3C20EA
:1014A00000F0BEFA052000F09FFA212000F0B8FA03
:1014B000002000F099FA802000F096FA182000F041
:1014C000AFFA802000F090FA4E2000F0A9FA002038
:1014D00000F08AFA4F2000F0A3FA272000F084FAE7
:1014E000012000F081FA00F06EFA002800D00120FF
:1014F00010BD000010B588B040F2026000F00AFF95
:1015000040F2036000F006FF4FF4C06000F002FFFD
:10151000234C4FF4807303221021204600F022FB5D
:101520004FF4004303224821204600F01BFB1D4CD2
:101530004FF4804303221021204600F013FB4FF4A8
:10154000204303221821204600F00CFBA3140322A1
:101550001021204600F006FB40F20E7000F0DAFE8B
:10156000114C204600F008FF684600F03FFF4FF4A2
:10157000404001904FF482700090032000210590BC
:101580006015CDE9021018200491069069462046A6
:1015900000F015FF204600F0E7FE08B010BD000087
:1015A00000080140000C01400038004010B54FF425
:1015B0000041034800F029FB002800D0012010BDA5
:1015C0000008014030B500210A4AC3B20DE00020F6
:1015D00006E000BF01FB04041568401C80B22B55D7
:1015E000148A8442F6D8491C89B2508A8842EED8BF
:1015F00030BD00005C1F00202DE9F84F1F469146CA
:1016000082468846151A01D5A0EB09057C1A002CE4
:1016100000DDCC1B4FF0FF32CA4501D2012000E0B3
:1016200010460090B84500D2012293462E1941463B
:1016300050460A9A00F018F8B4EB460F07DCCA458A
:1016400010D0009926440AEB01001FFA80FAB5EB8E
:10165000460FECDBB84505D008EB0B002E441FFA13
:1016600080F8E4E7BDE8F88F491E401E89B280B2D9
:1016700000F052B82DE9F8418046DDE907501E46DA
:1016800017460C4648B90CE023463A4619464046F0
:101690000095FFF7B1FF641CA4B2B442F4D3BDE8D7
:1016A000F8810B4640460095FFF7A6FF42463346B9
:1016B000214610460095FFF79FFF3A4623463146E4
:1016C00010460095FFF798FF3346424619463846C4
:1016D0000095FFF791FFE2E730B50B4C039D2060CA
:1016E00021816281A5814D074FEAD10000D0401CC5
:1016F00020826282E38123B1B42B02D0A180E280F8
:1017000030BDA280E18030BD5C1F0020014908602F
:10171000704700005C1F002070B5184C2346E68916
:101720001B89D6B125465A2E6D891AD0B42E1DD0EC
:10173000B6F5877F10D103460846218A25684143C4
:1017400001EBD3018020002A6C5C03F0070220FA31
:1017500002F010D02043685470BD591A491E8BB254
:10176000EBE7181A401E83B2681A01E00B46281AEC
:10177000401E80B2E1E784436C5470BD5C1F0020C2
:101780002DE9FC4F401C1FFA80F9491C1C468DB204
:10179000A9EB0400AB46CDF80490FA285FDC082CD6
:1017A0000ED0600700D0012000EBD400610810FBD0
:1017B00001F080B28246203A90B2009000204BE0C7
:1017C0000620F7E7082C12D00C2C17D0102C1AD0BA
:1017D000182C44D10098244900EBC00001EB800193
:1017E000002711F80860F00712D00B9A13E0009858
:1017F0001E4900EB400001EB4001F1E700981C4955
:1018000000EB4000EAE71B49009801EB0011E7E715
:101810000B9830B3002229464846FFF725FF6D1C80
:101820007F1C7608BFB2ADB2082FDCD309F10100EE
:101830001FFA80F9082C0BD00198A9EB0000B0EB3F
:10184000540F05D10BF10800DDF804901FFA80FB5E
:1018500008F101005D4680B280465045B2D3BDE834
:10186000FC8F0122D7E700002C520008A045000899
:10187000C84700083C4C00082DE9FF4F401C82B0CF
:101880004FF0000984B2491CCDE9009492468DB214
:101890004A46AB46580700D0012000EBD300059024
:1018A00010462FE0002026E00F98002610F809705F
:1018B00009F101001FFA80F9F8072BD0109838B30E
:1018C000002229462046FFF7CFFE6D1C761C7F08BC
:1018D000B6B2ADB2082EEFD3641C0198A4B2211A9F
:1018E000514504D10BF10800019C1FFA80FB08F15F
:1018F00001005D4680B280465045D5D30098401C1B
:1019000080B2009005998842CCD306B0BDE8F08F34
:101910000122D6E7109AD4E72DE9F8411E46154674
:1019200088460446079F0BE0334641462046009711
:10193000FFF726FF6D1C082E07D004EB560084B27B
:101940002A78002AF0D1BDE8F881A41DA4B2F7E7F7
:1019500000224FF48071014800F09CB8000801405B
:1019600001221102014800F095B800000008014072
:1019700070B5C0F3C705F92901D92E2403E0A1F2FF
:101980002711484284B24E2000F04AF8284600F061
:101990002BF84F2000F044F8E0B200F025F8C4F333
:1019A0000020BDE8704000F01FB810B5222000F004
:1019B00037F8F72000F018F8202000F031F8BDE8E3
:1019C0001040AFF3008070B5002444F6206506E0B7
:1019D000641CAC424FF0010005D8FFF791FCFFF703
:1019E000E5FD0028F4D170BD10B50446FFF7A8FC52
:1019F00021460A4C204600F0BCFC0221204600F0A3
:101A0000D9FC0028F9D08021204600F0D3FC002822
:101A1000F9D1BDE81040FFF79BBC00000038004042
:101A200010B50446FFF79CFCFFF78AFC21460B4CDF
:101A3000204600F09EFC0221204600F0BBFC00285E
:101A4000F9D08021204600F0B5FC0028F9D1FFF73D
:101A50007FFCBDE81040FFF78BBC00000038004061
:101A600070B5074D0446C1B2284600F0ADFD072110
:101A7000284600F0DEFD0028F9D0204670BD0000A9
:101A80000038014001480068704700001000002045
:101A9000416170470AB101617047416170470000C0
:101AA00010B54FF4C06000F035FC40F2026000F069
:101AB00031FC40F2036000F02DFC01210A4800F0E7
:101AC000AFF8012303222821084800F04BF8084C06
:101AD000042303221021204600F044F82046BDE8EC
:101AE00010400421FFF7D4BF00023000000801407D
:101AF000000C014010B5194C2115031B4A00A042EF
:101B000021D009DC164BC01817D0884218D090425B
:101B100022D14FF4417408E08B4217D0934218D081
:101B2000B3F5406F18D14FF44274204600F00EFC1C
:101B30002046BDE8104000F0FBBB40F20234F4E761
:101B400040F20334F1E740F20534EEE740F20634A8
:101B5000EBE740F20734E8E710BD00000014014055
:101B600000F8FEBF2DE9F04301F00F04CD0602D5C9
:101B7000042A19D0144300254FF00F095FF0010229
:101B800002FA05F61E401AD007684FEA850C09FADA
:101B90000CF827EA080704FA0CF848EA070828298D
:101BA00008D0482908D008E0C26B44F003041A4367
:101BB000C263E0E7466100E00661C0F800806D1C8A
:101BC000ADB2082DDCD3082502FA05F61E4016D06A
:101BD00047684FEA8508A8F1200809FA08FC27EAB7
:101BE0000C0704FA08FC4CEA070C282902D0482903
:101BF00002D002E0466100E00661C0F804C06D1C3E
:101C0000ADB2102DE0D3BDE8F0838068084000D06D
:101C100001207047C068084000D0012070470000D4
:101C2000F0B5144C002801DAE36900E06368420D66
:101C3000120185B2C0F301579540C0F30346032F4C
:101C400005D0C2020AD50322B240934307E023F035
:101C5000E062636823F0E063636002E0AB4343F05B
:101C6000E06201B12A43002801DAE261F0BD62605E
:101C7000F0BD0000000001400168054A1140B1F1CB
:101C8000005F04D14168006880F308880847704706
:101C90000000FE2F88B000F0B5FA0720FFF728FB00
:101CA00000F00CFCFFF7FCFEFFF722FA00F02EFC20
:101CB0000127FFF7E7FE06463546B2A0FEF752FDC4
:101CC000B7A0FEF74FFDBDA0FEF74CFDC3A0FEF789
:101CD00049FDC8480168C8A0FEF744FD012000F096
:101CE00099FA0146C8A0FEF73DFD022000F092FAE5
:101CF0000146C9A0FEF736FD032000F08BFA01462D
:101D0000C9A0FEF72FFDCCA0FEF72CFDFFF7F2FBDC
:101D1000FFF785FB4FF0FF08B423FA227A21CC4865
:101D2000CDF80080FFF7D8FCB423FA227A21C94805
:101D3000CDF80080FFF7D0FCC548FFF7E7FCFF2097
:101D4000FFF740FC0024C448CDE900047A23FA22BE
:101D500021462046FFF790FDBE48FFF7D7FCFF2045
:101D6000FFF730FCBD49CDE9001800217A23FA22A3
:101D70000846FFF781FDB749B548FFF701FB4FF46F
:101D8000FA50FFF7BDFAB248FFF7C0FCFF20FFF79B
:101D900019FC1823B2A200210A200094FFF7BCFD11
:101DA0001023B4A21D210A200094FFF7B5FD1023D3
:101DB000B7A232210A200094FFF7AEFDA548FFF735
:101DC000A5FCFF20FFF7FEFBB8A102A8FEF7DAFC96
:101DD000182302AA47210A200094FFF79DFD4FF027
:101DE0000108CDE900487423F02267210A20FFF79B
:101DF00041FC98499648FFF7C3FA0120FFF705FB1D
:101E0000DFF8B8A2DFF8B8B2DFF8B892FFF73AFE11
:101E1000A8420AD9FFF736FE00F5FA75012F4FF0F8
:101E20000401584615D0FFF733FEFFF72BFEB042F2
:101E30000ED9FFF727FE00F10A0601214846FFF7F9
:101E4000E4FE01289AF8001050466DD001290CD00C
:101E500094E0FFF7DFFE012801D0012200E000221C
:101E600004215846FFF716FEDFE78AF80040012FED
:101E700001D0012700E0002793A0FEF773FC0221A8
:101E80009748FFF7F7F902E00120FFF74BFA02212C
:101E90009348FFF7B4F90028F6D002219048FFF7E5
:101EA000AAF98F483C30006840F6E4414843000BF3
:101EB00000EE100AB8EE400ADFED8A0A30EEC00AE2
:101EC000DFED890A864880EE201AB3EE090A403019
:101ED00031EE000A8AED020A0068484300EE900ADB
:101EE000F8EE600A9FED811A10EE100A60EE810A8A
:101EF000CAED030AFEF73AF941EC100B7CA053EC53
:101F0000102BFEF72FFCDAF80C00FEF72FF941EC4E
:101F1000100B83A053EC102BFEF724FC39A0FEF726
:101F200021FCCAF8044029E009B980F80080416822
:101F3000491CCAF80410322920D38448006878B1BB
:101F400083A0FEF70FFCBFF34F8F8048001D016890
:101F5000864A01F4E06111430160BFF34F8FFEE751
:101F600083A0FEF7FFFB00F0C9FA5846FFF7C2FD59
:101F70004846FFF7BFFD8748FFF77EFE002000F0D0
:101F80000BF943E70D0A5765416374205374756478
:101F9000696F20436F726520426F6172640D0A00A1
:101FA000776561637473747564696F2E74616F62B1
:101FB000616F2E636F6D0D0A00000000776561632D
:101FC0007473747564696F2E616C6965787072657D
:101FD00073732E636F6D0D0A0000000077777777BB
:101FE0002E77656163742D74632E636E0D0A0D0A7E
:101FF000000000001400002053797374656D436C79
:102000006B3A25640D0A0000434B5F41484220694A
:10201000732025640D0A0000434B5F41504231207C
:1020200069732025640D0A00434B5F415042322002
:1020300069732025640D0A00457061706572204D3A
:102040006F64756C6520546573740D0A00000000A0
:102050001C000020BC0F002060260008003600088D
:10206000322E313320457061706572204D6F64757A
:102070006C65000044657369676E65642042792071
:1020800057654163742053747564696F00000000E4
:1020900077697468203235302078203132322072EE
:1020A00065736F6C7574696F6E0000003E3E20486A
:1020B000656C6C6F20576F726C642E0000000020FE
:1020C000000C01400008014048656C6C6F2C57659E
:1020D0004163742053747564696F0D0A0000000039
:1020E0000024014000C0B2449A9989400000803920
:1020F0005468652074656D706572617475726520D1
:10210000646174612069732025322E316620646514
:1021100067726565732043656C736975730D0A009A
:10212000546865207265666572656E636520766FBA
:102130006C74616765206461746120697320253562
:102140002E33666D56200D0A0000000008ED00E0F9
:10215000456E7465722049415020426F6F746C6FF8
:1021600061646572202E2E2E0D0A00000400FA050F
:10217000456E7465722073797374656D2049535090
:1021800020426F6F746C6F61646572202E2E2E0D6D
:102190000A00000000F0FF1F04490A6822F0040250
:1021A0000A6008B120BF704730BF704710ED00E0F3
:1021B000124A10B55168124B1940D36A0C2823F00B
:1021C000005317D2DFE800F00606060616091609C6
:1021D0001010101041EA80310CE020F0040041EAB8
:1021E000803040F0805105E020F00C0041EA803161
:1021F00043F000535160D36210BD00000010024054
:10220000FF3FFFEF0248416A41F080714162704731
:102210000010024070B537A588B02ECD8DE82E0095
:1022200035A20446D2E90012CDE9041232A2002000
:10223000D2E90012CDE90612324A5168324BC1F39D
:10224000810119B1012901D0022901D019462BE0E1
:10225000516801F480352D49B5F5803F0AD1D56A22
:1022600015F0804F00D02A4B556805F40035B5F5C0
:10227000003F00D10B4651685568C1F383412D01E1
:1022800001D541F0100155686D0001D541F02001E4
:102290000F2901D2891C06E0A1F10F052F2D01D8CD
:1022A000491C00E03F2159435368C3F303131DF851
:1022B000035021FA05F3556804AEC5F302255268B0
:1022C000755D23FA05F5C2F3C22206AEB25C23FAAD
:1022D00002F244B1012C08D0022C08D0032C00D10A
:1022E000104608B070BD0846FBE71846F9E72846D7
:1022F000F7E70000000000000000000001020304F6
:10230000060708090010024000127A0000093D008B
:10231000006CDC02054901EB90110A6800F01F0314
:102320000120984002430A607047000000100240FC
:10233000054901EB90110A6800F01F030120984045
:1023400082430A607047000000100240054901EB1B
:1023500090110A6800F01F030120984002430A60B0
:102360007047000000100240016841F04001016028
:102370007047C160704700000D4910B5401808D083
:10238000B0F5806F08D0B0F5784F0FD14FF443749B
:1023900004E040F20E4401E040F20F442046FFF713
:1023A000D5FF2046BDE81040FFF7C2BF10BD0000BA
:1023B00000C8FFBF8068084000D001207047026855
:1023C00002F441530A681A434B6813438A681A435C
:1023D000CB6813430A691A434B698969134319434C
:1023E0000160C16921F40061C16170470021016091
:1023F00041608160C160416181610161704700009D
:102400002A480021026842F4803202604FF6FF73CE
:102410000268491C12F4003F01D19942F8D10168C9
:10242000890300D4FEE7C16941F08051C1612049B0
:102430000A6842F440420A60426842604268426070
:10244000426842F480624260426822F44032426054
:10245000426842F4403242604268164B1A40426081
:102460004268154B1A434260026842F08072026073
:1024700002689201FCD50A6842F480320A604A6818
:10248000D203FCD50A6842F400320A604A6892031B
:10249000FCD5416821F003014160416841F002012F
:1024A000416041680907FCD57047000000100240F8
:1024B00000700040FFFFC3B70000340870B50E483D
:1024C0004FF47A710068B0FBF1F0401EB0F1807FEC
:1024D00011D24FF0E024606165170F212846FEF706
:1024E000FCF80020A061072020612846BDE870406C
:1024F0000521FEF7F2B8FEE7140000204FF0E020BF
:1025000000210161416181617047000010B540F216
:102510000260FFF7FFFE40F20E60FFF7FBFE124C79
:102520004FF40073032218212046FFF71BFB2315ED
:10253000032204212046FFF715FB0C4C204600F037
:1025400047F84FF4E131204600F012F8042120460C
:1025500000F07AF80821204600F07CF82046BDE81B
:10256000104000F061B80000000801400038014050
:1025700070B5134B04460D460020E11A1A159C4213
:102580001BD005DC0F49611817D0914208D114E027
:10259000914212D0B1F56C4F02D10320FFF73AFE01
:1025A00000EB5500B0FBF5F14FF6F07201EA0200C6
:1025B00001F00F010843A06070BD0220EEE70000AB
:1025C000004C004000BCFFBFC1F3080141607047F0
:1025D000134B10B5C21A1915984213D007DC114AD3
:1025E00080180CD088421AD140F212440FE08A427F
:1025F0000BD0B2F56C4F12D140F20E3407E040F22E
:10260000114404E040F2134401E040F21444204637
:10261000FFF79CFE2046BDE81040FFF789BE10BDC5
:10262000004C004000BCFFBFC16841F40051C160D4
:10263000704700EB9110006801F01F0201219140EA
:10264000084000D001207047C26822F004020A430B
:10265000C2607047C26822F008020A43C260704735
:10266000000000000000000000000000000000006A
:10267000000000000000000000000000000000005A
:10268000000000000000000000000000000000004A
:10269000000000000000000000000000000000003A
:102C000000000000000000008080808080800000C4
:102C1000000000C0E0E0E0E0C0C0000000000000F4
:102C200000000000000000000000000000000000A4
:102C30000000000000000000000000000000000094
:102C4000000000000000000000007EFEFEFEFEFE10
:102C5000FE00000080FEFEFEFEFEFEFEFC00000008
:102C600000FCFEFEFEFEFE3E000000000000000034
:102C70008080808080800000000000000000000054
:102C8000000080F8FEFEFEFEFEFEFEFEF08000006C
:102C900000000000000000000000008080808080B4
:102CA00080000000000000F8F8F8F8F8F8F80000DC
:102CB0000000000000000000000000000000E0F044
:102CC000F8FCFCFEFE7E7E3E3E7E7EFEFCFC783006
:102CD00000000000F8F8F8F8F8F8F800000000002C
:102CE00000000000000000000000000000000000E4
:102CF00000000000000000000000000080808080D4
:102D00008000FFFFFFFFFFFFFF000000030F1F1FFA
:102D10001F1F0F0F000000000000000000808080D7
:102D200080808080000000000000000000000000A3
:102D30000000000000000000000000000000000093
:102D400000000000003FFFFFFFFFFFFC00C0FFFF8F
:102D5000FFFF7FFFFFFFFFFF8000FEFFFFFFFFFF82
:102D60000F000000F0F8FEFEFFFF7F1F0F0F1FFF98
:102D7000FFFFFEFCF8C000000000C0FCFFFFFFFFEB
:102D80007F071FFFFFFFFFFFF88000000000C0F07B
:102D9000FCFEFFFFFF7F1F1F1F1F3F3F3F0E041F53
:102DA0001FFFFFFFFFFFFFFF1F1F1F1F000000008F
:102DB00000000000000000001F7FFFFFFFFFFFFC7E
:102DC000F8F8F0F0E0E0C1C08000001F1F1FFFFF17
:102DD000FFFFFFFFFF1F1F1F0F000000FFFFFFFF90
:102DE000FFFF00000000FFFFFFFFFFFFFF000000EC
:102DF000C0F8FCFEFFFFFF7F1F1F1F3FFFFFFFFF0D
:102E0000FFFFFF00000000FFFFFFFFFFFFFF0000CC
:102E100000C0F8FCFEFFFFFF3F1F1F1F3FFFFFFF2B
:102E2000FEFCF8E0000000000000000000000000D0
:102E30000000000000000000000000000000000092
:102E40000FFFFFFFFFFFFCFFFFFFFF1F0001FFFF62
:102E5000FFFFFFFEFFFFFFFFFF070000001EFFFF59
:102E6000FFFFFFFFDF1F1F1F1F1F1F9F9F1F1F1F32
:102E70000000E0FEFFFFFFFFFFFFFCFCFCFDFFFF8B
:102E8000FFFFFFFFFCC00000FFFFFFFFFFFFFF8011
:102E90000000000000800000000000FFFFFFFFFFB7
:102EA000FFFF000000000000000000000000000024
:102EB000000080C0C0800101030303070FFFFFFF74
:102EC000FFFFFFFF70000000FFFFFFFFFFFFFF009D
:102ED000000000000000FFFFFFFFFFFF0000008078
:102EE000FFFFFFFFFFFFFF000000FFFFFFFFFFFFEF
:102EF000FF8000000000FFFFFFFFFFFFFF0000005A
:102F000000FFFFFFFFFFFFFF000000FFFFFFFFFFCD
:102F1000FFFF8000000000FFFFFFFFFFFFFF00003A
:102F200000000000000000000000000000000000A1
:102F30000000000000000000000000073F3F3F3F8E
:102F40003F3F3F3F0F000000003F3F3F3F3F3F3FBD
:102F50003F3F01000000000001070F1F1F3F3F3FE0
:102F60003E3E3E3E3F3F1F1F0E00303E3F3F3F3F35
:102F70003F1F01000000000000033F3F3F3F3F3F75
:102F80003C000003070F1F3F3F3F3F3E3E3F3F3F98
:102F90001F1E080000030F1F3F3F3F3F3F3E3F3FC4
:102FA0001C18000000000000000000070F1F1F3F5A
:102FB0003F3F3F3E3E3F3F3F3F1F1F0F0703000085
:102FC0000000070F1F3F3F3F3F3E3F3F3F1C0000B9
:102FD0000F1F3F3F3F3F3F3E3F1F1F3F3F3F3F3F92
:102FE0003F00000000070F1F3F3F3F3F3F3E3F1F96
:102FF0001F3F3F3F3F3F3F000000003F3F3F3F3FFD
:103000003F3F0000000003070F1F3F3F3F3F3E3E92
:103010003F3F3F1F1F0F03000000000000000000A3
:1030200000000000000000000000000000000000A0
:103030000000000000000000000000000000000090
:103040000000000000000000000000000000000080
:103050000000000000000000000000000000000070
:10373000C0C0C0C0C0000080C0C0C0C080000000C9
:103740000000000000000000000000000000000079
:103750000000000000000000000000000000000069
:103760000000000000000000000000000000000059
:103770000000000000000000000000000000000049
:103780000000000000000000000000000000000039
:103790000000000000000000000000000000000029
:1037A0000000000000000000000000000000000019
:1037B0000000000000000000000000000000000009
:1037C000000000C0C0C0C0C0C00000000000000079
:1037D000000000000000000000C0C0C0C0C0000029
:1037E00000000000000000000000000000000000D9
:1037F000000000000000000000000000000C1E1F80
:103800001F0F0F9FFFFFFEFEF800000000000000EA
:1038100038787C7E3EFFFFFFFFFF00040E1E1F8FE7
:103820008F8FFFFFFFFEFC000000737F3F1F0F0024
:1038300000317B7F3F1F070000000000000000FFF9
:10384000FFFFFFFF8787878787070000F0F0F0F012
:10385000F0F070F8F8F0F0E0800030F0F0F07878F8
:10386000F8F0F0F0E0800000F0F0F0F0F0F070F828
:10387000F8F0F0E0800080E0F0F0F0F878F0F0F0A0
:10388000E0C00000F0F0F0F0F0F0F0F0F010000018
:103890000000000000FFFFFFFFFFFFFEC0E0FFFF92
:1038A000FFFFFFFFFF000080C0E0F0F0F078F8F0CD
:1038B000F0F0E0C00000C0E0F0F0F8F870FFFFFFAB
:1038C000FFFFFF0000F0F0F0F0F000F0F0F0F0F09B
:1038D000F00000FFFFFFFFFF000080C0E0F0F0F805
:1038E00078F8F0F0F0E08000000000000000000038
:1038F0000000000000000080C0F0F8FCFEFFBF9F49
:1039000087838000C0C0C0C0C0800000000000FFEE
:10391000FFFFFFFF0080C0C0C0C78787CFFFFFFF4A
:10392000FEF80000000000000000000000000000A1
:10393000000000000000000000FFFFFFFFFF87877E
:10394000878787800000FFFFFFFFFF8080E1FFFF88
:10395000FFFF7F40F8FCFCFEFE9ECFFFFFFFFFFF56
:103960000000FFFFFFFFFF8080E1FFFFFFFF7F0000
:10397000FFFFFFFFFFDC9C9D9FDFDF9F1F00FFFF1E
:10398000FFFFFF0301000000000000000000FFFF38
:10399000FFFFFF0FFFFFFFFFFFFF0FFFFFFFFFFC1A
:1039A000007FFFFFFFFFE18080FFFFFFFFFF1C089C
:1039B000FFFFFFFFFF8080FFFFFFFFFFFF0000FF13
:1039C000FFFFFFFF80FFFFFFFFFFFF0000FFFFFF84
:1039D000FFFF80007FFFFFFFFFDC9C9C9FDFDF9FDE
:1039E0001F000000000000000000000000000000B8
:1039F0000007070707070707070707070700030769
:103A0000070707030000000000070707070700017A
:103A1000030307070707070707030100000000006B
:103A20000000000000000000000000000000000096
:103A30000000000707070707070707070707000039
:103A4000FFFFFFFFFF07070707070301000003074A
:103A5000070707070703070707070000FFFFFFFF28
:103A6000FF07070707070301000000010307070717
:103A70000707070703030000070707070700000001
:103A80000000000000000000070707070700010111
:103A900001010100000707070707000001030707EE
:103AA00007070707070303000000010307070707CD
:103AB00007070707070707000003070707070707A8
:103AC00007070707070000030707070707070001A5
:103AD00003070707070707070303000000000000AC
:103AE00000000000000000000000000000000000D6
:103AF00000000000000000000000000000000000C6
:103B000000000000000000000000000000000000B5
:103B100000000000000000000000000000000000A5
:1040F0000000000070F0F8FC7CFEFEFEFEFE0018E2
:104100003C3C3E3E1E1EFEFEFEFCF800183C3E3EC1
:104110001E1E3EFEFEFCFCF000000000000000E061
:10412000E0E0E0E0C080E0E0E0E0E000000000006F
:1041300000183C3C3E3E1E1EFEFEFEFCF80000FE4B
:10414000FEFEFEFE9E9E9E9E1E1E0000E0F8FCFEF1
:10415000FE7E1E3EFEFEFCF8E000000000000000B7
:1041600000FEFEFEFEFEFE0E0E0E0E0E0E00000007
:10417000000000000000000000FEFEFEFEFE000049
:104180000000000000FEFEFEFEFE000000FEFEFE3F
:10419000FEFEFEFCE000FEFEFEFEFE0000FEFEFE59
:1041A000FEFEC0E0F8FCFEFE3E1E06000000000021
:1041B00000000000000000000000000000000000FF
:1041C00000000000000000000000000000000000EF
:1041D00000000000000000000000000000000000DF
:1041E00000000000000000000000000000000000CF
:1041F000000000FFFFFFFFFF000080C0E0F0FCFEBA
:104200007F3F1F0F03000080E0F0F8FCFF7F3F0FAF
:1042100007010000000000000000C1E7FFFFFFFFF2
:10422000FFFFF7C1000000000000000080C0E0F0C8
:10423000FCFE7F3F1F0F0300008787878707078FDC
:10424000FFFFFFFFFC007FFFFFFFFFC00080FFFFBD
:10425000FFFFFF0000000000000000FFFFFFFFFF66
:10426000FF0F0F0F0F0F00001E1E1E1E1E1E1E1E14
:104270001E0000FFFFFFFFFF00000000000000FF26
:10428000FFFFFFFF000000FFFFFFFFFF3FFFFFFFFB
:10429000FFFFFFFFFF0000FFFFFFFFFF1F7FFFFF8C
:1042A000FFF8E0C000000000000000000000000077
:1042B00000000000000000000000000000000000FE
:1042C00000000000000000000000000000000000EE
:1042D00000000000000000000000000000000000DE
:1042E000000000000000000000000000000F0F0FA1
:1042F0000F0F00000F0F0F0F0F0F0F0F0F0F0F07F4
:104300000F0F0F0F0F0F0F0F0F0F0F0F00000000F9
:1043100000000C0F0F0F0F0F0101070F0F0F0F0CF5
:104320000000000000000F0F0F0F0F0F0F0F0F0FF7
:104330000F070307070F0F0F0F0F0F0F07030100E2
:104340000003070F0F0F0F0F0F0F070300000000F0
:1043500000000000000F0F0F0F0F0F0F0F0F0F0FB8
:104360000F0000000000000000000000000F0F0F11
:104370000F0F0F0F0F0F0F0F000F0F0F0F0F00007A
:10438000000F0F0F0F0F00010F0F0F0F0F0F0F0078
:10439000000F0F0F0F0F000001030F0F0F0F0F0C77
:1043A000000000000000000000000000000000000D
:1043B00000000000000000000000000000000000FD
:1043C00000000000000000000000000000000000ED
:1043D00000000000000000000000000000000000DD
:1043E00000000000000000000000000000000000CD
:1043F00000000000000000000000000000000000BD
:1044000000000000000000000000000000000000AC
:10441000000000000000000000000000000000009C
:10442000000000000000000000000000000000008C
:10443000000000000000000000000000000000007C
:10444000000000000000000000000000000000006C
:10445000000000000000000000000000000000005C
:10446000000000000000000000000000000000004C
:10447000000000000000000000000000000000003C
:10448000000000000000000000000000000000002C
:10449000000000000000000000000000000000001C
:1044A000000000000000000000000000000000000C
:1044B00000000000000000000000000000000000FC
:1044C00000000000000000000000000000000000EC
:1044D00000000000000000000000000000000000DC
:1044E00000000000000000000000000000000000CC
:1044F00000000000000000000000000000000000BC
:1045000000000000000000000000000000000000AB
:10451000000000000000000000000000000000009B
:10452000000000000000000000000000000000008B
:10453000000000000000000000000000000000007B
:10454000000000000000000000000000000000006B
:10455000000000000000000000000000000000005B
:10456000000000000000000000000000000000004B
:10457000000000000000000000000000000000003B
:10458000000000000000000000000000000000002B
:10459000000000000000000000000000000000001B
:1045A0000000000000000000002F000000000700D5
:1045B000070000147F147F1400242A7F2A1200624F
:1045C00064081323003649552250000005030000FB
:1045D00000001C224100000041221C000014083E83
:1045E00008140008083E0808000000A06000000849
:1045F000080808080000606000000020100804029D
:10460000003E5149453E0000427F4000004261515A
:104610004946002141454B31001814127F100027F4
:1046200045454539003C4A494930000171090503B7
:1046300000364949493600064949291E00003636E8
:10464000000000005636000000081422410000144B
:104650001414141400004122140800020151090628
:1046600000324959513E007C1211127C007F4949A9
:104670004936003E41414122007F4141221C007FDA
:1046800049494941007F09090901003E4149497AE8
:10469000007F0808087F0000417F41000020404162
:1046A0003F01007F08142241007F40404040007FCE
:1046B000020C027F007F0408107F003E4141413E12
:1046C000007F09090906003E4151215E007F09195A
:1046D00029460046494949310001017F0101003F57
:1046E0004040403F001F2040201F003F4038403FD7
:1046F000006314081463000708700807006151493B
:10470000454300007F41410000552A552A550000CD
:1047100041417F000004020102040040404040404B
:10472000000001020400002054545478007F4844E3
:10473000443800384444442000384444487F00381A
:104740005454541800087E0901020018A4A4A47C43
:10475000007F080404780000447D4000004080840D
:104760007D00007F102844000000417F4000007C55
:1047700004180478007C0804047800384444443861
:1047800000FC242424180018242418FC007C0804AD
:10479000040800485454542000043F444020003C86
:1047A0004040207C001C2040201C003C4030403C0D
:1047B000004428102844001CA0A0A07C004464549D
:1047C0004C441414141414140000000000000000E1
:1047D000000000000000FC000000000002000000DB
:1047E000000C020C020000000000000090D0BCD0C1
:1047F000BC900003000300001824FE448C00030258
:10480000070201001824D8B04C8000030001020107
:10481000C038E438E000010202010202080600008C
:104820000000000000000000000000F8040200008A
:1048300000010204000204F800000004020100006C
:104840009060F86090000000010000002020FC2033
:104850002000000001000000000000000000080629
:1048600000000000202020202000000000000000A8
:104870000000000000000002000000000080601C3A
:104880000200040300000000F8040404F800010220
:10489000020201000008FC00000000020302000008
:1048A000188444241800030202020200080424248D
:1048B000D80001020202010040B088FC8000000024
:1048C000000302003C242424C4000102020201006F
:1048D000F824242CC0000102020201000C04E41C94
:1048E0000400000003000000D8242424D8000102A2
:1048F0000202010038444444F800000302020100AF
:104900000000100000000000020000000000200075
:104910000000000006000000002050880402000093
:1049200000000102909090909000000000000000B4
:104930000002048850200002010000001804C42472
:104940001800000002000000F804E494F8000102DE
:104950000202020000E09CF080000203000003025B
:1049600004FC2424D800020302020100F804040419
:104970000C0001020202010004FC0404F80002031E
:104980000202010004FC24740C0002030202030072
:1049900004FC24740C00020302000000F00804442C
:1049A000CC4000010202010004FC2020FC040203B0
:1049B000000003020404FC040400020203020200DB
:1049C000000404FC040406040403000004FC24D0D6
:1049D0000C0402030200030204FC040000000203B2
:1049E00002020203FC3CC03CFC0003000300030085
:1049F00004FC30C4FC04020302000300F8040404B5
:104A0000F80001020202010004FC24241800020341
:104A100002000000F8848404F80001020207050087
:104A200004FC2464980002030200030218242444B6
:104A30008C000302020201000C04FC040C000002C2
:104A40000302000004FC0000FC040001020201005B
:104A5000047C80E01C040000030000001CE03CE03B
:104A60001C00000300030000049C609C040002037F
:104A700000030200041CE01C04000002030200000A
:104A80000C84641C04000203020203000000FE0206
:104A90000200000007040400000E30C00000000007
:104AA00000010200000202FE0000000404070000F2
:104AB00000040204000000000000000000000000EC
:104AC00000000808080808080000020000000000B4
:104AD000000000000040A0A0C0000001020203028C
:104AE00004FC2020C00000030202010000C02020BE
:104AF000600000010202020000C02024FC0000014E
:104B00000202030200C0A0A0C000000102020200D5
:104B10000020F82424040002030202000040A0A0A8
:104B2000602000070A0A0A0404FC2020C0000203D7
:104B3000020003020020E400000000020302000063
:104B4000000020E4000008080807000004FC80E0E2
:104B500020200203020003020404FC000000020201
:104B600003020200E020E020C00003000300030075
:104B700020E02020C00002030200030200C0202029
:104B8000C00000010202010020E02020C000080F48
:104B90000A02010000C02020E0000001020A0F0804
:104BA00020E0402020000203020000000060A0A0DE
:104BB00020000002020203000020F8200000000094
:104BC0000102020020E00020E000000102020302D6
:104BD00020E0208060200000030100006080E08071
:104BE00060000003000300002060806020000203DA
:104BF0000003020020E02080602008080701000078
:104C00000020A0602000000203020200000020DE5D
:104C10000200000000070400000000FF0000000088
:104C2000000F00000002DE2000000004070000006A
:104C30000201020404020000000000000000000065
:104C4000000000000000000000000000000000F86C
:104C500000000000000000333000000000100C06CF
:104C6000100C0600000000000000000040C078406A
:104C7000C0784000043F04043F040400007088FC36
:104C800008300000001820FF211E0000F008F0008E
:104C9000E018000000211C031E211E0000F00888FF
:104CA000700000001E2123241927211010160E0069
:104CB000000000000000000000000000000000E014
:104CC0001804020000000007182040000002041829
:104CD000E00000000040201807000000404080F085
:104CE000804040000202010F01020200000000F0BB
:104CF000000000000101011F01010100000000008F
:104D00000000000080B07000000000000000000003
:104D1000000000000001010101010101000000008C
:104D20000000000000303000000000000000000023
:104D300080601804006018060100000000E0100800
:104D40000810E000000F102020100F00001010F8D5
:104D5000000000000020203F202000000070080814
:104D60000888700000302824222130000030088894
:104D7000884830000018202020110E000000C020BC
:104D800010F8000000070424243F240000F80888DD
:104D9000880808000019212020110E0000E010886A
:104DA00088180000000F112020110E00003808089C
:104DB000C83808000000003F0000000000708808AC
:104DC00008887000001C222121221C0000E010082D
:104DD0000810E0000000312222110F00000000C086
:104DE000C000000000000030300000000000008023
:104DF0000000000000008060000000000000804013
:104E0000201008000001020408102000404040402B
:104E1000404040000404040404040400000810207E
:104E200040800000002010080402010000704808C3
:104E30000808F0000000003036010000C030C8282B
:104E4000E810E0000718272423140B000000C038E6
:104E5000E0000000203C23020227382008F8888860
:104E600088700000203F202020110E00C03008086C
:104E700008083800071820202010080008F8080843
:104E80000810E000203F202020100F0008F888883C
:104E9000E8081000203F20202320180008F8888808
:104EA000E8081000203F200003000000C030080880
:104EB0000838000007182020221E020008F8080009
:104EC0000008F808203F210101213F20000808F8D0
:104ED000080800000020203F2020000000000808F3
:104EE000F8080800C08080807F00000008F888C0B3
:104EF00028180800203F20012638200008F8080064
:104F000000000000203F20202020300008F8F8009A
:104F1000F8F80800203F003F003F200008F830C0AC
:104F20000008F808203F200007183F00E01008089C
:104F30000810E0000F10202020100F0008F80808CB
:104F40000808F000203F210101010000E0100808DE
:104F50000810E0000F18242438504F0008F8888803
:104F600088887000203F2000030C302000708808E3
:104F7000080838000038202121221C00180808F8F1
:104F8000080818000000203F2000000008F8080072
:104F90000008F808001F202020201F000878880043
:104FA00000C83808000007380E010000F80800F8B3
:104FB0000008F800033C0700073C0300081868805D
:104FC0008068180820302C03032C30200838C800D3
:104FD000C83808000000203F200000001008080822
:104FE000C83808002038262120201800000000FEC4
:104FF000020202000000007F40404000000C30C070
:1050000000000000000000010638C000000202029B
:10501000FE000000004040407F000000000004024D
:105020000202040000000000000000000000000078
:105030000000000080808080808080800002020468
:105040000000000000000000000000000000808060
:10505000808000000019242222223F2008F80080CE
:1050600080000000003F112020110E000000008091
:1050700080800000000E1120202011000000008020
:105080008088F800000E112020103F200000808052
:1050900080800000001F222222221300008080F066
:1050A000888888180020203F202000000000808091
:1050B00080808000006B94949493600008F80080D6
:1050C00080800000203F210000203F200080989831
:1050D000000000000020203F202000000000008091
:1050E0009898000000C08080807F000008F80000D1
:1050F00080808000203F24022D302000000808F826
:10510000000000000020203F2020000080808080E0
:1051100080808000203F20003F20003F8080008072
:1051200080800000203F210000203F200000808080
:1051300080800000001F202020201F008080008031
:105140008000000080FFA12020110E0000000080E0
:1051500080808000000E112020A0FF8080808000D1
:105160008080800020203F212000010000008080FE
:10517000808080000033242424241900008080E0F3
:10518000808000000000001F2020000080800000C0
:1051900000808000001F202020103F2080808000A1
:1051A0000080808000010E300806010080800080B1
:1051B000008080800F300C030C300F0000808000D6
:1051C000808080000020312E0E3120008080800001
:1051D0000080808080818E701806010000808080B1
:1051E000808080000021302C22213000000000004F
:1051F000807C020200000000003F404000000000F0
:10520000FF00000000000000FF0000000002027C20
:10521000800000000040403F000000000006010147
:105220000202040400000000000000000000000072
:10523000000000000000000000000000000000006E
:10524000000000000000000000000000000000005E
:105250000000000000F0F0F000000000000000007E
:1052600000017F010000000000000000001C1C1C69
:105270000000000000008060301C8C60301C0C00BE
:10528000000000000000000000000000000000001E
:105290000000000000000000000000E0000000002E
:1052A00000E000000086E69F86868686E69F8600F0
:1052B00000011F01010101011F010100000080C068
:1052C0006020F820E0C00000000003070C18FF7009
:1052D000E18100000000070F10107F100F07000091
:1052E0008060206080000000E02000000F3020304F
:1052F0009F70DC371030C0000000100E030007184C
:10530000101807000000C02020E0C00000000000CE
:1053100080E01F38E88703C43C040000070F181022
:10532000100B070D1010080000808C4C3800000096
:10533000000000000000000000000000000000006D
:10534000000000000000000000000000000000005D
:10535000000080E0300804000000000000FEFF01B3
:1053600000000000000000000000030F18204000B3
:1053700000040830E0800000000000000000000091
:1053800001FFFE0000000000004020180F03000095
:1053900000000000000000000000C000000000004D
:1053A000004266663C18FF183C666642000000003A
:1053B000000003000000000000000000000080006A
:1053C00000000000001010101010FF10101010103E
:1053D00000000000000003000000000000000000CA
:1053E00000000000000000000000000000000000BD
:1053F0000000000000808C4C38000000000000001D
:10540000000000000000000000000000001010106C
:10541000101010101010100000000000000000001C
:10542000000000000000000000000000000000007C
:1054300000000000000000000000000000001C1C34
:105440001C00000000000000000000000000000040
:10545000E0380C000000000080701C030000000019
:105460000060380E0100000000000000000080C055
:1054700060202060C080000000FEFF0100000000EE
:1054800001FFFE000001070E181010180E070100A2
:105490000000808080C0E0000000000000000000EC
:1054A00000FFFF000000000000001010101F1F1080
:1054B000101000000080402020202060C0800000EC
:1054C00000030300804020381F070000001C1A1949
:1054D00018181818181F00000080C020202060C075
:1054E00080000000000303001010182FE780000068
:1054F00000070F10101010180F0700000000000028
:105500000000C0E0F000000000C0B088868180FF8D
:10551000FF808000000000000010101F1F1010000E
:105520000000E060606060606060000000003F10AC
:1055300008080818F0E0000000070B101010101CFD
:105540000F030000000080C040202020E0C00000C9
:1055500000FCFF211008080818F0E0000001070C0B
:1055600018101010080F03000000C0E060606060B9
:1055700060E06000000003000000E0180700000089
:1055800000000000001F1F00000000000080C0603D
:105590002020202060C080000087EF2C18183030B9
:1055A00068CF830000070F0810101010180F0700B5
:1055B0000000C0C020202020C0800000001F3F60ED
:1055C0004040402010FFFE0000000C1C101010088E
:1055D0000F030000000000000000000000000000B9
:1055E00000000000000E0E0E000000000000000091
:1055F000001C1C1C00000000000000000000000057
:105600000000000000000000000C0C000000000082
:1056100000000000005838000000000000000000FA
:10562000000000804020100000001028448201008B
:10563000000000000000000000000102040810004B
:1056400000000000000000000000000000848484CE
:1056500084848484848484000000000000000000AE
:10566000000000000000102040800000000000004A
:105670000000000000000182442810000000100813
:10568000040201000000000000C0202010101010D3
:1056900030E0C0000003030000F010080C07030016
:1056A000000000001C1C1C0000000000000000C0E6
:1056B000406020202040C00000FCFF01F00E03C12C
:1056C000FE03807F0001070E08111110110904026A
:1056D0000000000080E0E000000000000000807C8E
:1056E0004340477FF880000010181F1000000000A2
:1056F000131F1C1020E0E02020202060C08000004C
:1057000000FFFF10101010182FE78000101F1F104F
:1057100010101010180F0700000080C0402020203B
:105720002060E00000FCFF0100000000000001001C
:105730000001070E181010100804030020E0E020FC
:1057400020202040C080000000FFFF00000000007B
:1057500001FFFE00101F1F10101018080E07010097
:1057600020E0E020202020202060800000FFFF10AB
:105770001010107C00000000101F1F1010101010DF
:105780001018060020E0E02020202020606080002B
:1057900000FFFF101010107C00000100101F1F10F0
:1057A0000000000000000000000080C060202020F9
:1057B00040E0000000FCFF0100004040C0C140404C
:1057C0000001070E181010100F0F000020E0E0205D
:1057D0000000000020E0E02000FFFF10101010107B
:1057E00010FFFF00101F1F1000000000101F1F10EF
:1057F0000000202020E0E020202000000000000029
:1058000000FFFF000000000000001010101F1F101C
:105810001010000000000000202020E0E0202020E8
:1058200000000000000000FFFF0000000060E080BA
:105830008080C07F3F00000020E0E020000020A02A
:105840006020200000FFFF30187CE3C00000000053
:10585000101F1F10000001131F1C181020E0E02073
:10586000000000000000000000FFFF00000000003A
:1058700000000000101F1F1010101010101806005C
:1058800020E0E0E000000000E0E0E02000FF013F59
:10589000FEC0E01E01FFFF00101F1000031F0300E9
:1058A000101F1F1020E0E0C0000000000020E020DA
:1058B00000FF0003071C78E08000FF00101F1000AD
:1058C00000000000030F1F00000080C06020206067
:1058D000C080000000FEFF010000000000FFFE008D
:1058E0000001070E181010180C07010020E0E0203E
:1058F0002020202060C0800000FFFF2020202020EA
:10590000301F0F00101F1F100000000000000000DB
:10591000000080C060202060C080000000FEFF0109
:105920000000000000FFFE000001070E1111133CF3
:105930007C67210020E0E0202020202060C0800043
:1059400000FFFF101030F0D0080F0700101F1F10CD
:10595000000000030F1C10100080C06020202020D9
:105960004040E00000070F0C1818303060E0810064
:10597000001F0C0810101010180F07008060202066
:1059800020E0E020202060800100000000FFFF00F8
:105990000000000100000000101F1F1000000000A8
:1059A00020E0E020000000000020E02000FFFF00D9
:1059B000000000000000FF0000070F18101010107A
:1059C000100807002060E0E02000000020E06020D8
:1059D0000000077FF88000807C03000000000000CA
:1059E000071F1C070000000020E0E02000E0E0208E
:1059F0000020E0200007FFF8E01FFFFCE01F000090
:105A00000000031F0300011F03000000002060E0EE
:105A1000A0000020E0602000000000038F7CF8C69A
:105A2000010000000010181E130001171F181000BD
:105A30002060E0E02000000020E06020000001077E
:105A40003EF8E0180700000000000010101F1F10B3
:105A50001000000000806020202020A0E0E0200056
:105A600000000000C0F03E0F0300000000101C1FEB
:105A700017101010101806000000000000FC0404AD
:105A8000040404000000000000FF0000000000000B
:105A900000000000007F404040404000000010E057
:105AA000000000000000000000000000031C6080F7
:105AB0000000000000000000000000030C708000E7
:105AC00000000404040404FC0000000000000000C6
:105AD000000000FF00000000000040404040407F08
:105AE0000000000000000010080C040C081000006A
:105AF00000000000000000000000000000000000A6
:105B00000000000000000000000000000000000095
:105B10000000000000000000000000000000000085
:105B20008080808080808080808080800000000471
:105B30000408080000000000000000000000000051
:105B40000000000000000000000000000000000055
:105B5000000000000000000000000000000098D8D5
:105B600044642424FCF80000000F1F1810101008D3
:105B70001F1F10180020E0F00000000000000000CF
:105B80000000FFFF180804040CF8F00000001F0FCD
:105B900018101010180F0300000000000000000093
:105BA0000000000000E0F8180404043C3800000085
:105BB00000030F0C10101010080600000000000079
:105BC00000000020E0F0000000E0F81C04040408DD
:105BD000FFFF000000030F18101010081F0F08002F
:105BE0000000000000000000000000000000E0F8DD
:105BF000484444444C7870000000030F0C18101007
:105C0000100804000000000080C0602020E0C000F8
:105C100000040404FFFF040404040000000010104A
:105C20001F1F101010000000000000000000000006
:105C300000000000000070F88C04048CF874040C60
:105C4000007076CF8D8D8D89C87870000020E0F0CF
:105C500000000000000000000000FFFF0804040432
:105C6000FCF8000000101F1F100000101F1F100084
:105C7000000000000060600000000000000004045C
:105C800004FCFC000000000000001010101F1F109A
:105C90001010000000000000000000606000000024
:105CA00000000000040404FCFC0000000000C0C070
:105CB0008080C07F3F0000000020E0F00000000076
:105CC000000000000000FFFF80C0F41C040400007E
:105CD00000101F1F1100031F1C10100000002020C7
:105CE00020E0F000000000000000000000FFFF00C6
:105CF0000000000000001010101F1F101010000006
:105D000000000000000000000000000004FCFC088F
:105D100004FCFC0804FCFC00101F1F10001F1F10D7
:105D2000001F1F1000000000000000000000000025
:105D30000004FCFC08080404FCF8000000101F1F0D
:105D4000100000101F1F10000000000000000000E5
:105D50000000000000E0F0180C04040C18F0E00053
:105D600000030F0C101010100C0F030000000000B7
:105D700000000000000000000004FCFC0804040413
:105D80000CF8F0000080FFFF889010101C0F03003B
:105D900000000000000000000000000000E0F81C0F
:105DA00004040408F8FC000000030F181010908889
:105DB000FFFF800000000000000000000000000065
:105DC000040404FCFC100804040C0C001010101F48
:105DD0001F10101000000000000000000000000074
:105DE0000000000000003078CCC48484840C1C00C7
:105DF00000001E1810101011190F060000000000FE
:105E000000C000000000000000040404FFFF0404C0
:105E100004000000000000000F1F1010100C000014
:105E20000000000000000000000000000004FCFE74
:105E300000000004FCFE000000000F1F18101008F6
:105E40001F0F08000000000000000000000000001C
:105E500000040C3CFCC40000C43C0C040000000026
:105E6000010F1E0E010000000000000000000000F5
:105E700000000000043CFCC400E47CFC84807C0442
:105E80000000071F070000071F07000000000000B8
:105E900000000000000000000004041C7CE4C0348A
:105EA0001C0404000010101C1601131F1C18100005
:105EB00000000000000000000000000000040C3C96
:105EC000FCC400C43C0404000000C080C1370E01C3
:105ED00000000000000000000000000000000000C2
:105EE00000001C0404C4F47C1C0400000000101C0E
:105EF0001F17111010180E0000000000000000F81D
:105F00000C04000000000000001028EF000000005A
:105F1000000000000000003F6040000000000000A2
:105F20000000FF0000000000000000000000FF0073
:105F300000000000000000000000FF000000000062
:105F40000000040CF8000000000000000000000049
:105F5000EF28100000000000000040603F0000003B
:105F6000000000000018060202040810202030087B
:105F70000000000000000000000000000000000021
:105F800000000000000000000000F010101010FFE2
:105F900010101010F000000000000F04040404FFB3
:105FA000040404040F0000004040405F555555753F
:105FB0005555555F404040000040200F0949897900
:105FC0000909090F2040000000FE02424ACA4A4A5D
:105FD000CA4A4A4202FE000000FF40504C43404083
:105FE0004F50505C40FF00000000F888888888FF10
:105FF00088888888F800000000001F080808087FCB
:10600000888888889F80F00080828282828282E2F3
:10601000A2928A8682808000000000000040807F7B
:106020000000000000000000101010FF1090088811
:106030008888FF88888808000444827F0180804027
:10604000432C1028468180000010101010D030FF23
:1060500030D0121C1010000010080402010000FFD4
:10606000000001020408100004040484E43C272416
:10607000242424E40404040004020100FF090909A3
:106080000949897F0000000000FE225A8600FE9226
:1060900092929292FE00000000FF04080700FF4069
:1060A00020030C142241400000804020180680008C
:1060B00007182040800000000100207028262120C1
:1060C00020243860000101000010129292929292F6
:1060D00092121202FE0000000000003F101010108B
:1060E0003F0040807F000000000000C08080808072
:1060F000808080FC84808080808080C0C000000020
:10610000000000FF7F404040404040FF4040404092
:10611000404040FF7F000000000000000000000041
:106120000000007F70000000000000000000000080
:10613000000000000000000000000000000000FC63
:10614000F800000000000000000000000000000057
:1061500000000000FFFE020202020202020202FF31
:10616000FF020202020202020202FF03000000001C
:10617000000000001F1F040404040404040404FFBE
:10618000FF0404040404040404041F0000000000CD
:106190000000000000000000000000000000007F80
:1061A0003F000000000000000000000000000000B0
:1061B00000000000000000000000000000000000DF
:1061C00000000000000000000000000000F8F8F0EF
:1061D000F07020000000000000000000000000003F
:1061E00000000000000000000000000000000000AF
:1061F000000000000000000080000000000000001F
:1062000000000000000000000000000000FFFFFF91
:10621000FF0000000000000000000000000000007F
:10622000000000008080000000000000000000006E
:10623000000000000000000000FFFFFE060606064A
:1062400006060606060606060606060606FFFFFF03
:10625000FF060606060606060606060606060606E5
:10626000060606FFFFFFFF07020000000000000017
:10627000000000000000000000FFFFFF0000000021
:1062800000000000000000000000000000FFFFFF11
:10629000FF000000000000000000000000000000FF
:1062A000000000FFFFFFFF000000000000000000F2
:1062B000000000000000000000FFFFFF1818181881
:1062C00018181818181818181818181818FFFFFF99
:1062D000FF18181818181818181818181818181857
:1062E000181818FFFFFFFF0000000000000000006A
:1062F000000000000000000002010100000000009A
:1063000000000000000000000000000000FFFFFF90
:10631000FF0000000000000000000000000000007E
:10632000000000010100000000000000000000006B
:10633000000000000000000000000000000000005D
:1063400000000000000000000000000000FFFFFF50
:10635000FF0000000000000000000000000000003E
:10636000000000000000000000000000000000002D
:10637000000000000000000000000000000000001D
:10638000000000000000000000000000001F1F0FC0
:106390000F000000000000000000000000000000EE
:1063A00000000000000000000000000000000000ED
:1063B000D0630008000000201C000000AC070008AB
:1063C000EC6300081C00002054230000BC070008F8
:1063D00000000000000000000000000000000000BD
:0C63E00000000000000E27070000000075
:0400000508000131BD
:00000001FF
