:020000040800F2
:10000000882B002025020008F9020008F1020008F0
:10001000F5020008E1020008950300080000000056
:100020000000000000000000000000002D03000898
:10003000E502000800000000290300083103000861
:100040003F0200083F0200083F0200083F0200088C
:100050003F0200083F020008E90200083F020008D2
:100060003F0200083F0200083F0200083F0200086C
:100070003F0200083F0200083F0200083F0200085C
:100080003F0200083F0200083F0200083F0200084C
:100090003F0200083F0200083F0200083F0200083C
:1000A0003F0200083F0200083F0200083F0200082C
:1000B0003F0200083F0200083F0200083F0200081C
:1000C0003F0200083F0200083F0200083F0200080C
:1000D0003F0200083F0200083F0200083F020008FC
:1000E0003F0200083F0200083F0200083F020008EC
:1000F0003F0200083F0200083F0200083F020008DC
:100100003F0200083F0200083F0200083F020008CB
:100110003F0200083F0200083F0200083F020008BB
:100120003F0200083F0200083F0200083F020008AB
:100130003F0200083F0200083F0200083F0200089B
:1001400000000000000000000000000000000000AF
:100150003F0200083F0200083F0200083F0200087B
:100160003F0200083F0200083F0200083F0200086B
:100170003F0200083F0200083F0200083F0200085B
:100180003F02000800F002F800F03CF80AA090E8F6
:10019000000C82448344AAF10107DA4501D100F042
:1001A00031F8AFF2090EBAE80F0013F0010F18BFD3
:1001B000FB1A43F001031847083F0000283F0000E6
:1001C000103A24BF78C878C1FAD8520724BF30C883
:1001D00030C144BF04680C60704700000023002455
:1001E00000250026103A28BF78C1FBD8520728BF47
:1001F00030C148BF0B6070471FB501F08FFA1FBDBB
:1002000010B510BD00F031F81146FFF7F5FF01F011
:1002100077F800F04FF803B4FFF7F2FF03BC00F0EB
:1002200057F800000948804709480047FEE7FEE705
:10023000FEE7FEE7FEE7FEE7FEE7FEE7FEE7FEE796
:1002400004480549054A064B70470000350300087D
:100250008501000888250020882B002088270020A1
:1002600088270020704770477047754600F02CF8CB
:10027000AE4605006946534620F00700854618B093
:1002800020B5FFF7DDFFBDE820404FF000064FF03E
:1002900000074FF000084FF0000BAC46ACE8C00977
:1002A000ACE8C009ACE8C009ACE8C00921F007011E
:1002B0008D46704710B50446AFF300802046BDE878
:1002C0001040FFF7A8BF000000487047080000205A
:1002D00001491820ABBEFEE726000200704700006F
:1002E000FEE700007047000080B500F0F1F880BD27
:1002F000FEE70000FEE700007047000000F0070086
:1003000080F00703042B28BF04234FF0FF3C033881
:100310000CFA03F338BF0020994381400CFA00F037
:1003200022EA000008437047704700007047000051
:10033000704700004EF6885CCEF2000CDCF800201E
:1003400041F2000142F47002C4F20201CCF8002034
:100350000A6842F001020A600A689207FCD54A68FE
:1003600022F003024A6000BF4A6812F00C0FFBD172
:1003700000224A600B684FF6FF70CFF6F26018401B
:1003800008604FF41F000A6388604FF000604CF86B
:10039000800C7047FEE70000002848BF704700F05F
:1003A0001F01012202FA01F14EF200124009CEF2C1
:1003B000000242F8201070474EF60C50CEF20000BA
:1003C0000068C0F3022070474EF6145300F00F028D
:1003D000CEF2000309011A4400F16043B0F1FF3F7F
:1003E000C8BF03F564421170704700004EF60C510F
:1003F000CEF200010A684FF6FF031A4060F30A22AA
:1004000042F0806040F0FD7008607047B0B543F680
:1004100000050446C4F200052846022101F068F8F0
:100420000028F9D02846214601F060F8B0BD000050
:1004300010B543F60004C4F2000400BF204680213A
:1004400001F056F80028F9D110BD000070B584B055
:100450004FF4C0100121012500F0FAF8002000211E
:10046000002600F077FE01AC204600F01FFE40F2AF
:100470000110ADF80C0020468DF80460029500F0E4
:1004800021FE032001F01CF806200021002201F0CB
:1004900005F804B070BD0000B0B582B00220C0F213
:1004A00018000121012500F0D3F86C46204600F029
:1004B00047FE41F60000C0F20010CDE9005040F6C2
:1004C0000000C4F20100214600F08AFE02B0B0BD77
:1004D00080B5052000F054F9012000F0EDFD40F654
:1004E0000000C4F20100012100F0DAFE002818BF6C
:1004F00080BD40F20000C2F200000178042204290D
:1005000008BF0122027080BD41F20401C4F2020161
:100510000A6800F00F0022F0F00242EA00100860C2
:100520007047000041F20401C4F202010A6800F0C1
:10053000070022F4E06242EA0020086070470000F1
:1005400041F20401C4F202010A6800F0070022F43B
:10055000605242EAC02008607047000041F2540136
:10056000C4F202010A68012822F0300208BF3032CA
:100570000A607047042888BF7047DFE800F0030C6A
:1005800019262F0041F20000C4F20200026861F354
:1005900000020260704741F20000C4F202000268EB
:1005A00001F0010122F4803242EA0141016070470A
:1005B00041F20000C4F20200026801F0010122F0E1
:1005C000807242EA01610160704741F20000C4F2AA
:1005D0000200026A61F300020262704741F2000009
:1005E000C4F20200426A61F30002426270470000F6
:1005F00041F20002010CC4F20202895800F01F000F
:1006000021FA00F000F001007047000041F25401AF
:10061000C4F202010A6800F0030022F4405242EAE8
:10062000003008607047000010B500241120FFF76B
:10063000DFFF210B022903D8012804F10104F5D1C1
:100640001120FFF7D5FF0138B0FA80F0400910BD46
:1006500041F2000200F01F034FF0010CC4F202024D
:1006600001290CFA03F14FEA1040835814BF23EA22
:10067000010119438150704780B541F2040EC4F264
:10068000020EDEF800C060B14CF48033CEF80030CA
:10069000DEF800C0012814BF4CF400302CF4003008
:1006A00001E02CF48030CEF80000DEF8000061F3A9
:1006B0009540CEF80000DEF80000C1F3021161F3AE
:1006C0005E70CEF80000DEF8000020F0004040EA46
:1006D000C270CEF8000080BD41F20000C4F20200FA
:1006E000016841F00101016001688907FCD541689A
:1006F00021F00301416000BF416811F00C0FFBD1F4
:100700000021416002684FF6FF73CFF6F2631A4092
:10071000026001634FF41F018160704741F20401E0
:10072000C4F202010A6860F301020A607047000027
:1007300041F20400C4F202000068C0F38100704777
:1007400080B5042000F0DEFF40F20400C2F2000099
:1007500000684DF68361C4F21B31A0FB0101880CD7
:1007600040F28401C2F20001086008684FF47A7117
:10077000484340F28001C2F20001086080BD0000E1
:1007800080B5002808BF80BD4EF2100140F2800EF7
:10079000CEF20001C2F2000E4FF0320C002300BF77
:1007A00082B2332A06D3DEF80020323802FB0CF284
:1007B0004A6004E0DEF800005043486000208B608F
:1007C0000A6842F001020A600A6802F00112012A76
:1007D000FAD00A6822F001020A6002048B60DFD1BD
:1007E00080BD000080B540F60040C4F201004FF427
:1007F000805100F0A1FC80BD80B540F60040C4F2FD
:1008000001004FF4805100F099FC80BD80B540F6A6
:100810000040C4F201004FF4804100F08DFC80BD27
:1008200080B540F60040C4F201004FF4804100F072
:1008300085FC80BD80B5FFF7A3FF80BD2DE9F041A9
:100840000C46054600200021002600F0B3FB2420C2
:1008500000F0FEFB28464FF4945100F013FC0020FA
:10086000002100F0A7FB262000F0F2FBFFF7BAFF03
:10087000A4F10108002500BF08EB0604002700BF13
:1008800014F8010F80F0FF00FFF7C0FD013F17F5DE
:10089000947FF5D10135102DA6EB0706ECD1FFF7BB
:1008A000C7FDFFF7A9FF00F09DFBBDE8F081000048
:1008B00010B50446102000F0CBFB204600F0B2FB40
:1008C00040F27C00C2F200000021017010BD000067
:1008D00080B540F27C00C2F200000078002808BF1A
:1008E00000F056FB00F08CFB28B9122000F0B0FBA2
:1008F00000F086FB08B1012080BD012000F0A8FBBC
:10090000272000F08FFB012000F08CFB012000F07D
:1009100089FB112000F09CFB012000F083FB4420A8
:1009200000F096FB002000F07DFB0F2000F07AFB2A
:10093000452000F08DFB272000F074FB012000F023
:1009400071FB002000F06EFB002000F06BFB3C20F0
:1009500000F07EFB052000F065FB212000F078FB15
:10096000002000F05FFB802000F05CFB182000F00E
:100970006FFB802000F056FB4E2000F069FB00204A
:1009800000F050FB4F2000F063FB272000F04AFBF3
:10099000012000F047FB00F033FB002818BF0120C6
:1009A00080BD00002DE9F04184B00224C0F218049B
:1009B00020460121FFF74CFE601C0121FFF748FE95
:1009C00002AD284600F0BCFB40F60044C4F201042E
:1009D000A4F5806630464FF480714FF4807700F0C4
:1009E000ABFB40F20040C0F21010CDE9027030467F
:1009F000294600F0F5FB1820ADF80D004FF400700B
:100A000002903046294600F0EBFB20464FF480412F
:100A10004FF4804600F092FB4FF010084FF48067CF
:100A2000204629468DF80E80ADF80C70029600F035
:100A3000D7FB4FF400500826029020462946ADF817
:100A40000C708DF80E6000F0CBFB4FF4004002906C
:100A5000204629468DF80E6000F0C2FB20464FF478
:100A600080514FF4805600F069FB204629468DF8EE
:100A70000E80ADF80C70029600F0B2FB0E20C0F2B2
:100A80001C000121FFF7E4FD6D46284600F01CFD27
:100A900040F20310C0F20500009040F20010C0F2D6
:100AA0000110A4F5544401902046294600F026FD8B
:100AB0002046012100F010FD04B0BDE8F0810000E7
:100AC00080B540F60000C4F201004FF4007100F060
:100AD000E7FB002818BF012080BD000080B540F270
:100AE000680CC2F2000CBCF81210002908BF80BDCF
:100AF0004FF0000E06E000BFBCF812100EF1010E20
:100B00008E4512D2BCF81030002BF5D04FF0FF31DB
:100B1000DCF800200EFB03220A445070BCF81030B1
:100B20008A1C01319A42F3D3E6E780BD2DE9F04FEC
:100B300085B006461046B2EB060B0F46049248BF3E
:100B4000CBF1000BD81B80EAE071024648BF42425D
:100B5000C1EBE07904984FF0FF31B0424FF0FF381D
:100B6000ABEB020A88BF4FF0010818460293BB4264
:100B700088BF01210191039203E000BFBBEB4A0F44
:100B800011DAB4B2BDB20E9A2046294600F016F82A
:100B9000B9EB4A0FF2DC049884420BD00398464428
:100BA000AAEB000AEAE70298854203D00198DA44EA
:100BB0000744E6E705B0BDE8F08F000080B50138D6
:100BC000013980B289B200F06FF880BD2DE9F041A3
:100BD00082B00F46DDE908811C461546064681B104
:100BE000A7420BD2B9B230462A460B46CDF8008058
:100BF000FFF79CFF0137B8B2A042F3D302B0BDE8C3
:100C0000F081304639462A463B46CDF80080FFF752
:100C10008DFF3046394632462346CDF80080FFF737
:100C200085FF284621462A463B46CDF80080FFF73F
:100C30007DFF2846214632462346CDF80080FFF747
:100C400075FF02B0BDE8F08110B540F2680CDDF828
:100C500008E0C2F2000CCCF80000C8084C07ACF861
:100C60000810ACF80A20ACF80CE04FF0010E18BFE9
:100C70000EEBD100ACF81000ACF81220ACF80E303E
:100C80002BB1B42B12BF084610460A4601E01046AD
:100C90000A46ACF80400ACF8062010BD40F268012A
:100CA000C2F200010860704710B540F2680CC2F251
:100CB000000CBCF80E30B32B0BDC93B15A2B36D1A1
:100CC000BCF80830C0431844BCF80A30C9435C186B
:100CD00013E0B42B0CD0B3F5877F0C4618BF10BDC2
:100CE0000BE0BCF808E0C94304460EEB010004E049
:100CF000BCF80A30C0431C180846BCF81030A4B237
:100D000081B26343DCF800C003EBD10E1CF80E3057
:100D100000F007008024C4401C436FF0800141FABA
:100D200000F0002A08BF03EA00040CF80E4010BDD2
:100D30002DE9F04F87B00130039080B20290C01AC5
:100D4000B0F5947F00F38280082B02D1062464B9A9
:100D50007CE0D8085F074FF0010618BF06EBD30010
:100D60005F08784384B2002C70D04E1C109DA2F115
:100D7000200041F6D25182B25808C0F60001DDF8D9
:100D80000C90B5FA85F70190002001EB02114FF0AD
:100D9000000804920091CDE9054311E002991FFA81
:100DA00089F0401A019926468842039804BF81467B
:100DB0000836059908F101081FFA88F0814245D9E3
:100DC000082B09D1049941F2367201EB4101C0F6BA
:100DD000000202EB410119E0182B0BD0102B13D0AD
:100DE0000C2B33D1049941F65E1201EB4101C0F6A0
:100DF000000206E0049942F2C23201EBC101C0F6E2
:100E0000000202EB810101E0009900BF084490F864
:100E100000A04FF0000B34465FEACA702A461FFA62
:100E200089F0B1B208BF7A09FFF7C8FE4FEA5A0A43
:100E30000136BBF1070F0BF1010BEDD3069B09F156
:100E40000109082BAAD105992646B3E707B0BDE8EA
:100E5000F08F00002DE9F04F87B0DE085F070592A4
:100E60004FF0010218BF02EBD306002E009653D0BC
:100E7000119E00F1010A4A1CB6FA86F51FFA8AF0A3
:100E800000234FF0000B17460390CDF810A004E0AC
:100E90000133009998B288423ED205980028F7D0D5
:100EA0004FF000080293CDF804B000BF10991FFA6C
:100EB0008BF00C5C4FF00009069200BFE007324651
:100EC0001FFA8AF0B9B218BF6A09FFF777FE640803
:100ED0000137B9F1070F09F10109EFD30AF1010A4E
:100EE00003991FFA8AF0401A059908F1010888420F
:100EF000049808BF8246069A1FFA88F00BF1010B8E
:100F000008BF083288421746D0D30598DDF804B0F0
:100F1000029B83441746BBE707B0BDE8F08F000093
:100F20002DE9F04381B099461378CBB1DDF82080EC
:100F30000D4606464FEA5907541EB9F1080F08BF7F
:100F4000062700BFB0B2DAB229464B46CDF8008082
:100F5000FFF7EEFEA3783E44002B04F10104F1D12B
:100F600001B0BDE8F083000080B540F60000C4F297
:100F700001004FF4807100F0DFF880BD80B540F6CD
:100F80000000C4F201004FF4807100F0D7F880BD7A
:100F900080B5FFF7E9FF3220FFF74CFCFFF7EEFFCB
:100FA0003220FFF747FC40F27C00C2F20000012132
:100FB000017080BDB0B5044640F22710451A4E209E
:100FC00000F046F8C4F3C70000F02CF84F2000F002
:100FD0003FF8E8B200F026F8C5F3002000F022F850
:100FE000B0BD000080B5222000F032F8F72000F0FC
:100FF00019F8202000F02CF800F002F880BD000065
:1010000010B5FFF75DFD58B149F641440120013CA0
:1010100008BF10BDFFF70EFCFFF752FD0028F5D109
:10102000002010BDB0B543F600040546C4F200042C
:10103000FFF7D8FB2046294600F058FA20468021C9
:1010400000F056FA0028F9D1FFF7D6FBB0BD00003A
:10105000B0B543F600040546C4F20004FFF7D6FB22
:10106000FFF7C0FB2046294600F040FA20468021C9
:1010700000F03EFA0028F9D1FFF7BEFBFFF7D0FBE6
:10108000B0BD0000B0B50C460546FFF7ABFB3CB168
:10109000013D00BF15F8010FFFF7B8F9013CF9D188
:1010A000FFF7C6F9FFF7A8FBB0BD000000214160C3
:1010B000012101810170704740F21441C4F2010125
:1010C0000860704740F20841C4F20101426851F8DB
:1010D000083C934341F8083C51F8043C934341F8E1
:1010E000043C437A002B08BF704703786FEA020C78
:1010F0002BB151F8043C134341F8043C04E051F88F
:10110000083C134341F8083C0B6803EA0C030B60EE
:101110004B6803EA0C034B60007A012807D018B92A
:101120000868104308607047086810430860486802
:10113000104348607047000041617047016170478B
:1011400040F200424FF6FF71C0F20012C0E90012F7
:101150007047000080B58B08032B88BF80BD0C2230
:1011600002EA810E4FF00F0C02EB83010CFA0EF233
:10117000DFE803F002290F1C0821C4F201010B680B
:1011800000FA0EF023EA02020A600A6810430860BF
:1011900080BD0821C4F201018B6800FA0EF023EA39
:1011A00002028A608A681043886080BD0821C4F208
:1011B0000101CB6800FA0EF023EA0202CA60CA6895
:1011C0001043C86080BD0821C4F201014B6800FAD9
:1011D0000EF023EA02024A604A681043486080BD6C
:1011E000B0B58B790A88032B0BD07BB949792829B4
:1011F00001F00F0E18D0182908BF0261110616D190
:101200002EE04FF0000E110611D129E003F0080C7A
:101210000B79C97903F00403634401F0030103EB84
:10122000010E110603D11BE04261110618D0002304
:101230004FF00F0C002104E00131082903F10403F1
:101240000ED022FA01F4E407F6D004680CFA03F594
:10125000AC43046004680EFA03F52C430460EBE72A
:10126000B2F5807F38BFB0BD120A00234FF00F0CDB
:10127000002104E00131082903F104030ED022FA11
:1012800001F4E407F6D044680CFA03F5AC4344607B
:1012900044680EFA03F52C434460EBE7B0BD000050
:1012A00080680840401AB0FA80F04009704700009A
:1012B00010B582B00420C0F218000121FFF7C8F970
:1012C0006C462046FFF73CFF40F20040C0F2101091
:1012D00001904FF40050009041F20000C4F2010070
:1012E0002146FFF77DFF02B010BD000041F20C0067
:1012F000C4F20100016881F40051016070470000F0
:1013000088B000F071F9FFF71BFAFFF7C5F8FFF797
:101310009DF8FFF7CDFFFFF745FBFFF7D9FA40F245
:101320008804C2F20004FF26204680214FF4947204
:10133000B4230096FFF788FC41F20835C2F200059D
:10134000284680214FF49472B4230096FFF77CFC6A
:101350002046FFF7A3FCFF20FFF7C0FB2846FFF75E
:101360009DFCFF20FFF7BAFB43F21E10C0F6000001
:10137000009017200321FA227A230196FFF76AFDD5
:1013800020462946FFF75AFA01200126FFF790FA76
:101390004FF4FA50FFF7F4F9FFF79AFA2046FFF7F7
:1013A0007DFCFF20FFF79AFB002729A20A200021DD
:1013B00018230097FFF7B4FD2AA20A203221102338
:1013C0000097FFF7ADFD2EA20A201D2110230097E4
:1013D000FFF7A6FD2846FFF761FCFF20FFF77EFB25
:1013E00046F26C40C0F22E00069045F22070C7F223
:1013F0006F20059046F66540C6F66C70049043F683
:101400003E60C4F62000039003AA0A204721182357
:101410000097FFF785FD0A2067214FF48F72742330
:1014200000970196FFF7D2FB20462946FFF706FA00
:101430000120FFF73DFA40F20004C2F200046425E7
:10144000FFF754FF20786843FFF79AF9F8E700BFE9
:10145000322E3920457061706572204D6F64756C55
:1014600065000000776974682032393620782031B1
:101470003238207265736F6C7574696F6E0000008E
:1014800044657369676E65642042792057654163DE
:10149000742053747564696F0000000070B51446C1
:1014A0000D460646FEF788FF29462246FEF726FF30
:1014B00001463046FEF788FF3046FEF76DFF70BDEF
:1014C00080B5FEF793FF80BD0021C0F803100160D6
:1014D0000121C17170470000026801F0010122F092
:1014E000400242EA8111016070470000C16070470C
:1014F0008068084018BF012070470000C26922F4CC
:101500000062C2610A78032A27D8DFE802F00206E7
:10151000121A026822F400420EE0026822F400422D
:101520000260026822F480420260026842F4806233
:1015300012E0026842F400420260026822F4804233
:1015400006E0026842F400420260026842F480420F
:101550000260026822F480620260CA79036802F0C5
:10156000010223F4007343EA422202604A78012A0E
:1015700006D1CA79012A03D1026842F4807202E0DE
:10158000026822F4807202604A78036862F3820380
:1015900003608A784368072A23F4807388BF03F5C1
:1015A000807343608A78036862F3C5030360CA7876
:1015B000036802F0010223F0800343EAC2120260D2
:1015C0000A79036802F0010223F4006343EAC222AD
:1015D00002604A79036862F3410303608979026813
:1015E00061F300020260704780B5FFF775F80120D3
:1015F0000121FEF7BFFF00BFFFF716F80028FBD060
:1016000002203B210122FFF737F80020FEF7FEFF02
:1016100002200121FEF7AEFF1920FEF7E9FF0128A5
:10162000FAD10020FEF770FF0420FEF789FF0420A6
:10163000FEF778FF0120FEF791FF0220FFF76EF81A
:10164000FFF776F80228FBD10020FEF787FF00F0B5
:1016500001F880BDB0B541F2040441F20025C4F2A6
:101660000204C0F27A05FFF763F802280BD090BBA2
:10167000206D80052FD5E06A800144BF46F6004505
:10168000C0F2DC2527E0206821682268C1F383418D
:10169000C2F3417213010133002A1A4608BF022225
:1016A0000F2908BF1A46C00302EB010006D440F61A
:1016B0000011C0F23D0100FB01F50CE02168890337
:1016C00001D4454307E0216DC1F301310231B5FB7F
:1016D000F1F101FB00F540F20400C2F200000560E8
:1016E000216804A2C1F30311515C026822FA01F1DE
:1016F0000160B0BD00000000000000000102030412
:10170000060708094EF21001CEF200010A6804280B
:1017100022F0040208BF04320A607047F1EE100A9A
:101720004FF6FF71C0F2C03120EA010040F0407076
:10173000E1EE100A70470000000000000000002FDA
:10174000000000000700070000147F147F1400242D
:101750002A7F2A120062640813230036495522505A
:1017600000000503000000001C224100000041228F
:101770001C000014083E08140008083E0808000079
:1017800000A0600000080808080800006060000071
:10179000002010080402003E5149453E0000427FEF
:1017A0004000004261514946002141454B3100183B
:1017B00014127F10002745454539003C4A494930FD
:1017C00000017109050300364949493600064949B7
:1017D000291E0000363600000000563600000008C2
:1017E000142241000014141414140000412214089F
:1017F00000020151090600324959513E007C121184
:10180000127C007F49494936003E41414122007F18
:101810004141221C007F49494941007F09090901D2
:10182000003E4149497A007F0808087F0000417F57
:101830004100002040413F01007F08142241007F09
:1018400040404040007F020C027F007F0408107F70
:10185000003E4141413E007F09090906003E4151D9
:10186000215E007F09192946004649494931000196
:10187000017F0101003F4040403F001F2040201FEA
:10188000003F4038403F00631408146300070870AD
:10189000080700615149454300007F414100005560
:1018A0002A552A55000041417F000004020102042C
:1018B0000040404040400000010204000020545419
:1018C0005478007F48444438003844444420003869
:1018D0004444487F00385454541800087E090102DB
:1018E0000018A4A4A47C007F080404780000447DB0
:1018F0004000004080847D00007F102844000000EC
:10190000417F4000007C04180478007C08040478BF
:1019100000384444443800FC2424241800182424AB
:1019200018FC007C080404080048545454200004A7
:101930003F444020003C4040207C001C2040201CB4
:10194000003C4030403C004428102844001CA0A02B
:10195000A07C004464544C44141414141414000067
:10196000000000000000000000000000FC0000007B
:10197000000002000000000C020C02000000000049
:10198000000090D0BCD0BC900003000300001824DD
:10199000FE448C000302070201001824D8B04C80DA
:1019A000000300010201C038E438E0000102020136
:1019B0000202080600000000000000000000000015
:1019C00000F80402000000010204000204F8000014
:1019D0000004020100009060F86090000000010027
:1019E00000002020FC20200000000100000000007A
:1019F0000000000008060000000020202020200039
:101A000000000000000000000000000000020000D4
:101A100000000080601C0200040300000000F804C5
:101A20000404F8000102020201000008FC000000AA
:101A3000000203020000188444241800030202027A
:101A4000020008042424D80001020202010040B070
:101A500088FC80000000000302003C242424C40011
:101A6000010202020100F824242CC000010202023B
:101A700001000C04E41C0400000003000000D82452
:101A80002424D80001020202010038444444F80032
:101A9000000302020100000010000000000002002C
:101AA00000000000200000000000060000000020F0
:101AB0005088040200000000010290909090900075
:101AC0000000000000000002048850200002010015
:101AD00000001804C4241800000002000000F804EC
:101AE000E494F80001020202020000E09CF0800091
:101AF00002030000030204FC2424D80002030202B3
:101B00000100F80404040C0001020202010004FCBC
:101B10000404F80002030202010004FC24740C0017
:101B200002030202030004FC24740C0002030200FE
:101B30000000F0080444CC4000010202010004FC53
:101B40002020FC040203000003020404FC0404003F
:101B5000020203020200000404FC0404060404035D
:101B6000000004FC24D00C0402030200030204FC65
:101B700004000000020302020203FC3CC03CFC0023
:101B800003000300030004FC30C4FC040203020051
:101B90000300F8040404F80001020202010004FC3E
:101BA00024241800020302000000F8848404F800D2
:101BB00001020207050004FC2464980002030200ED
:101BC0000302182424448C000302020201000C04C6
:101BD000FC040C0000020302000004FC0000FC04F2
:101BE000000102020100047C80E01C0400000300EC
:101BF00000001CE03CE01C00000300030000049C0B
:101C0000609C0400020300030200041CE01C0400AA
:101C10000002030200000C84641C040002030202A0
:101C200003000000FE020200000007040400000E92
:101C300030C00000000000010200000202FE0000AF
:101C4000000404070000000402040000000000007B
:101C50000000000000000000080808080808000054
:101C6000020000000000000000000040A0A0C00032
:101C700000010202030204FC2020C0000003020253
:101C8000010000C02020600000010202020000C02C
:101C90002024FC0000010202030200C0A0A0C0003A
:101CA0000001020202000020F824240400020302C2
:101CB00002000040A0A0602000070A0A0A0404FCF9
:101CC0002020C0000203020003020020E400000004
:101CD000000203020000000020E4000008080807DA
:101CE000000004FC80E02020020302000302040440
:101CF000FC000000020203020200E020E020C0001D
:101D000003000300030020E02020C00002030200C3
:101D1000030200C02020C00000010202010020E0F8
:101D20002020C000080F0A02010000C02020E000AF
:101D30000001020A0F0820E04020200002030200F8
:101D400000000060A0A020000002020203000020AA
:101D5000F820000000000102020020E00020E00066
:101D600000010202030220E0208060200000030145
:101D700000006080E080600000030003000020603D
:101D80008060200002030003020020E02080602029
:101D90000808070100000020A060200000020302E4
:101DA0000200000020DE0200000000070400000026
:101DB00000FF00000000000F00000002DE20000015
:101DC00000040700000002010204040200000000F9
:101DD0000000000000000000000000000000000003
:101DE0000000000000F80000000000000033300098
:101DF000000000100C06100C06000000000000009F
:101E0000000040C07840C0784000043F04043F0414
:101E10000400007088FC08300000001820FF211E1C
:101E20000000F008F000E018000000211C031E2153
:101E30001E0000F00888700000001E2123241927CE
:101E4000211010160E00000000000000000000002D
:101E50000000000000E01804020000000007182045
:101E6000400000020418E0000000004020180700B5
:101E70000000404080F0804040000202010F01025B
:101E80000200000000F0000000000101011F01013C
:101E90000100000000000000000080B070000000A1
:101EA000000000000000000000000001010101012D
:101EB00001010000000000000000003030000000C0
:101EC0000000000000008060180400601806010097
:101ED000000000E010080810E000000F10202010A3
:101EE0000F00001010F8000000000020203F20200C
:101EF00000000070080808887000003028242221A3
:101F00003000003008888848300000182020201158
:101F10000E000000C02010F8000000070424243F39
:101F2000240000F8088888080800001921202011E2
:101F30000E0000E0108888180000000F112020110A
:101F40000E0000380808C83808000000003F0000F4
:101F500000000070880808887000001C22212122DF
:101F60001C0000E010080810E000000031222211DF
:101F70000F00000000C0C000000000000030300072
:101F800000000000008000000000000080600000F1
:101F9000000000008040201008000001020408102A
:101FA0002000404040404040400004040404040439
:101FB00004000008102040800000002010080402E7
:101FC0000100007048080808F000000000303601E9
:101FD0000000C030C828E810E000071827242314A8
:101FE0000B000000C038E0000000203C2302022764
:101FF000382008F8888888700000203F20202011B1
:102000000E00C030080808083800071820202010EB
:10201000080008F808080810E000203F20202010E1
:102020000F0008F88888E8081000203F20202320AF
:10203000180008F88888E8081000203F20000300F6
:102040000000C03008080838000007182020221EB1
:10205000020008F808000008F808203F21010121CB
:102060003F20000808F8080800000020203F20203A
:10207000000000000808F8080800C08080807F0089
:10208000000008F888C028180800203F20012638E2
:10209000200008F8080000000000203F2020202039
:1020A000300008F8F800F8F80800203F003F003F33
:1020B000200008F830C00008F808203F200007186A
:1020C0003F00E01008080810E0000F10202020104A
:1020D0000F0008F808080808F000203F210101015E
:1020E0000000E01008080810E0000F182424385001
:1020F0004F0008F8888888887000203F2000030C73
:10210000302000708808080838000038202121227B
:102110001C00180808F8080818000000203F2000DC
:10212000000008F808000008F808001F2020202000
:102130001F000878880000C83808000007380E0122
:102140000000F80800F80008F800033C0700073C0E
:102150000300081868808068180820302C03032CBE
:1021600030200838C800C83808000000203F200090
:10217000000010080808C838080020382621202050
:102180001800000000FE020202000000007F404034
:102190004000000C30C000000000000000010638C4
:1021A000C00000020202FE000000004040407F002C
:1021B0000000000004020202040000000000000011
:1021C000000000000000000000008080808080800F
:1021D00080800002020400000000000000000000F7
:1021E000000000008080808000000019242222224C
:1021F0003F2008F8008080000000003F11202011DF
:102200000E000000008080800000000E11202020C1
:102210001100000000808088F800000E11202010BE
:102220003F200000808080800000001F22222222A8
:102230001300008080F0888888180020203F20202C
:1022400000000000808080808000006B9494949354
:10225000600008F8008080800000203F21000020FE
:102260003F2000809898000000000020203F2020A0
:102270000000000000809898000000C08080807FEF
:10228000000008F8000080808000203F24022D30EC
:102290002000000808F8000000000020203F202057
:1022A00000008080808080808000203F20003F20D0
:1022B000003F8080008080800000203F21000020BF
:1022C0003F200000808080800000001F2020202010
:1022D0001F00808000808000000080FFA12020116E
:1022E0000E000000008080808000000E112020A0E1
:1022F000FF80808080008080800020203F2120009F
:102300000100000080808080800000332424242489
:102310001900008080E0808000000000001F202065
:1023200000008080000000808000001F202020101E
:102330003F20808080000080808000010E300806F1
:10234000010080800080008080800F300C030C3002
:102350000F0000808000808080000020312E0E3130
:102360002000808080000080808080818E70180630
:10237000010000808080808080000021302C22219C
:10238000300000000000807C020200000000003FDE
:10239000404000000000FF00000000000000FF00BF
:1023A00000000002027C800000000040403F00006E
:1023B0000000000601010202040400000000000009
:1023C000000000000000000000000000000000000D
:1023D00000000000000000000000000000000000FD
:1023E0000000000000000000000000F0F0F000001D
:1023F00000000000000000017F010000000000005C
:102400000000001C1C1C0000000000008060301C4C
:102410008C60301C0C000000000000000000000078
:1024200000000000000000000000000000000000AC
:1024300000E00000000000E000000086E69F8686C5
:102440008686E69F860000011F01010101011F0130
:102450000100000080C06020F820E0C00000000003
:1024600003070C18FF70E18100000000070F101037
:102470007F100F0700008060206080000000E020D7
:1024800000000F3020309F70DC371030C00000009B
:10249000100E03000718101807000000C02020E0ED
:1024A000C0000000000080E01F38E88703C43C043F
:1024B0000000070F1810100B070D10100800008007
:1024C0008C4C3800000000000000000000000000FC
:1024D00000000000000000000000000000000000FC
:1024E000000000000000000080E030080400000050
:1024F000000000FEFF0100000000000000000000DE
:10250000030F1820400000040830E08000000000A5
:1025100000000000000001FFFE000000000000407D
:1025200020180F0300000000000000000000000061
:10253000C00000000000004266663C18FF183C66C0
:1025400066420000000000000300000000000000E0
:1025500000000000800000000000001010101010AB
:10256000FF10101010100000000000000300000019
:10257000000000000000000000000000000000005B
:102580000000000000000000000000808C4C3800BB
:10259000000000000000000000000000000000003B
:1025A000000000101010101010101010100000008B
:1025B000000000000000000000000000000000001B
:1025C000000000000000000000000000000000000B
:1025D000000000001C1C1C000000000000000000A7
:1025E000000000000000E0380C00000000008070D7
:1025F0001C03000000000060380E01000000000015
:102600000000000080C060202060C080000000FE4C
:10261000FF010000000001FFFE000001070E18107E
:1026200010180E0701000000808080C0E00000004C
:1026300000000000000000FFFF000000000000009C
:102640001010101F1F1010100000008040202020CC
:102650002060C080000000030300804020381F0776
:102660000000001C1A1918181818181F0000008004
:10267000C020202060C08000000000030300101074
:10268000182FE780000000070F10101010180F0718
:102690000000000000000000C0E0F000000000C0EA
:1026A000B088868180FFFF8080000000000000105D
:1026B000101F1F1010000000E0606060606060602C
:1026C000000000003F1008080818F0E000000007B4
:1026D0000B101010101C0F030000000080C04020E1
:1026E0002020E0C0000000FCFF211008080818F0BE
:1026F000E0000001070C18101010080F0300000084
:10270000C0E06060606060E0600000000300000006
:10271000E0180700000000000000001F1F0000007C
:1027200000000080C0602020202060C08000008762
:10273000EF2C1818303068CF830000070F081010F6
:102740001010180F07000000C0C020202020C080FB
:102750000000001F3F604040402010FFFE000000CE
:102760000C1C101010080F030000000000000000F7
:1027700000000000000000000000000E0E0E00002F
:10278000000000000000001C1C1C000000000000F5
:102790000000000000000000000000000000000C2D
:1027A0000C0000000000000000000058380000008D
:1027B0000000000000000000008040201000000029
:1027C000102844820100000000000000000000000A
:1027D00001020408100000000000000000000000DA
:1027E00000000084848484848484848484000000C1
:1027F00000000000000000000000000010204080E9
:1028000000000000000000000000000001824428D9
:10281000100000001008040201000000000000C0C9
:1028200020201010101030E0C0000003030000F062
:1028300010080C070300000000001C1C1C00000016
:102840000000000000C0406020202040C00000FCCC
:10285000FF01F00E03C1FE03807F0001070E081187
:102860001110110904020000000080E0E0000000E7
:1028700000000000807C4340477FF8800000101873
:102880001F1000000000131F1C1020E0E02020207B
:102890002060C080000000FFFF10101010182FE70C
:1028A0008000101F1F1010101010180F07000000DC
:1028B00080C0402020202060E00000FCFF010000DC
:1028C0000000000001000001070E1810101008049D
:1028D000030020E0E02020202040C080000000FF16
:1028E000FF000000000001FFFE00101F1F1010106D
:1028F00018080E07010020E0E020202020202060A2
:10290000800000FFFF101010107C00000000101F5E
:102910001F10101010101018060020E0E0202020DA
:1029200020206060800000FFFF101010107C00006D
:102930000100101F1F100000000000000000000038
:1029400080C06020202040E0000000FCFF0100006B
:102950004040C0C140400001070E181010100F0F7A
:10296000000020E0E0200000000020E0E02000FF68
:10297000FF101010101010FFFF00101F1F1000009C
:102980000000101F1F100000202020E0E020202069
:1029900000000000000000FFFF0000000000000039
:1029A0001010101F1F101010000000000000202049
:1029B00020E0E020202000000000000000FFFF00D9
:1029C00000000060E0808080C07F3F00000020E0C9
:1029D000E020000020A06020200000FFFF30187CD5
:1029E000E3C000000000101F1F10000001131F1C97
:1029F000181020E0E020000000000000000000FFB0
:102A0000FF000000000000000000101F1F10101049
:102A100010101018060020E0E0E000000000E0E0E8
:102A2000E02000FF013FFEC0E01E01FFFF00101F7D
:102A30001000031F0300101F1F1020E0E0C0000063
:102A400000000020E02000FF0003071C78E0800069
:102A5000FF00101F100000000000030F1F00000007
:102A600080C060202060C080000000FEFF010000E8
:102A7000000000FFFE000001070E181010180C07E0
:102A8000010020E0E0202020202060C0800000FF26
:102A9000FF2020202020301F0F00101F1F100000DB
:102AA000000000000000000080C060202060C080A6
:102AB000000000FEFF010000000000FFFE0000011A
:102AC000070E1111133C7C67210020E0E02020203C
:102AD000202060C0800000FFFF101030F0D0080FF1
:102AE0000700101F1F10000000030F1C10100080B3
:102AF000C060202020204040E00000070F0C181884
:102B0000303060E08100001F0C0810101010180F0A
:102B100007008060202020E0E0202020608001006D
:102B2000000000FFFF000000000100000000101F77
:102B30001F100000000020E0E02000000000002046
:102B4000E02000FFFF00000000000000FF00000781
:102B50000F1810101010100807002060E0E020008F
:102B6000000020E060200000077FF88000807C03E8
:102B7000000000000000071F1C070000000020E00C
:102B8000E02000E0E0200020E0200007FFF8E01F48
:102B9000FFFCE01F00000000031F0300011F0300F3
:102BA0000000002060E0A0000020E06020000000A5
:102BB00000038F7CF8C6010000000010181E1300EF
:102BC00001171F1810002060E0E02000000020E046
:102BD0006020000001073EF8E01807000000000038
:102BE0000010101F1F101000000000806020202027
:102BF00020A0E0E0200000000000C0F03E0F030035
:102C0000000000101C1F1710101010180600000004
:102C1000000000FC0404040404000000000000FFA5
:102C200000000000000000000000007F4040404025
:102C30004000000010E00000000000000000000064
:102C40000000031C60800000000000000000000085
:102C500000030C70800000000404040404FC000065
:102C6000000000000000000000FF00000000000065
:102C700040404040407F0000000000000010080C71
:102C8000040C08100000000000000000000000001C
:102C90000000000000000000000000000000000034
:102CA0000000000000000000000000000000000024
:102CB0000000000000008080808080808080808014
:102CC00080800000000404080800000000000000EC
:102CD00000000000000000000000000000000000F4
:102CE00000000000000000000000000000000000E4
:102CF0000000000098D844642424FCF80000000F71
:102D00001F18101010081F1F10180020E0F00000FE
:102D10000000000000000000FFFF180804040CF889
:102D2000F00000001F0F18101010180F0300000013
:102D30000000000000000000000000E0F81804049B
:102D4000043C3800000000030F0C1010101008069F
:102D500000000000000000000020E0F0000000E0A3
:102D6000F81C04040408FFFF000000030F181010F3
:102D700010081F0F08000000000000000000000005
:102D800000000000E0F8484444444C787000000023
:102D9000030F0C181010100804000000000080C081
:102DA000602020E0C00000040404FFFF04040404C9
:102DB0000000000010101F1F101010000000000085
:102DC00000000000000000000000000070F88C040B
:102DD000048CF874040C007076CF8D8D8D89C878C2
:102DE00070000020E0F00000000000000000000083
:102DF000FFFF08040404FCF8000000101F1F10006F
:102E000000101F1F100000000000006060000000A4
:102E100000000000040404FCFC00000000000000AE
:102E20001010101F1F101010000000000000000004
:102E300000606000000000000000040404FCFC00CE
:102E400000000000C0C08080C07F3F000000002064
:102E5000E0F000000000000000000000FFFF80C064
:102E6000F41C0404000000101F1F1100031F1C109D
:102E700010000000202020E0F00000000000000012
:102E8000000000FFFF000000000000001010101FF5
:102E90001F101010000000000000000000000000E3
:102EA000000004FCFC0804FCFC0804FCFC00101FEF
:102EB0001F10001F1F10001F1F1000000000000047
:102EC0000000000000000004FCFC08080404FCF8FA
:102ED000000000101F1F100000101F1F1000000036
:102EE0000000000000000000000000E0F0180C04EA
:102EF000040C18F0E00000030F0C101010100C0F61
:102F000003000000000000000000000000000004BA
:102F1000FCFC080404040CF8F0000080FFFF88901B
:102F200010101C0F03000000000000000000000053
:102F3000000000E0F81C04040408F8FC0000000392
:102F40000F1810109088FFFF8000000000000000A4
:102F5000000000000000040404FCFC100804040C41
:102F60000C001010101F1F101010000000000000B7
:102F70000000000000000000000000003078CCC419
:102F80008484840C1C0000001E1810101011190FEE
:102F900006000000000000C0000000000000000467
:102FA0000404FFFF040404000000000000000F1FE1
:102FB0001010100C000000000000000000000000D5
:102FC00000000004FCFE00000004FCFE0000000005
:102FD0000F1F181010081F0F08000000000000004D
:102FE00000000000000000040C3CFCC40000C43CD5
:102FF0000C0400000000010F1E0E01000000000084
:1030000000000000000000000000043CFCC400E4DC
:103010007CFC84807C040000071F070000071F075A
:10302000000000000000000000000000000000049C
:10303000041C7CE4C0341C0404000010101C1601A5
:10304000131F1C181000000000000000000000000A
:10305000000000040C3CFCC400C43C04040000005C
:10306000C080C1370E010000000000000000000019
:1030700000000000000000001C0404C4F47C1C04D8
:1030800000000000101C1F17111010180E00000087
:103090000000000000F80C04000000000000001018
:1030A00028EF00000000000000000000003F60402A
:1030B0000000000000000000FF0000000000000011
:1030C00000000000FF000000000000000000000001
:1030D000FF00000000000000040CF80000000000E9
:1030E000000000000000EF281000000000000000B9
:1030F00040603F00000000000000001806020204CB
:10310000081020203008000000000000000000002F
:1031100000000000000000000000000000000000AF
:10312000000000000000000000000000000000009F
:10313000000000000000000000000000000000008F
:10314000000000000000000000000000000000007F
:1036C00000000000000080808080808000000000FA
:1036D00000C0E0E0E0E0C0C000000000000000002A
:1036E00000000000000000000000000000000000DA
:1036F00000000000000000000000000000000000CA
:1037000000000000000000007EFEFEFEFEFEFE0047
:10371000000080FEFEFEFEFEFEFEFC00000000FC3F
:10372000FEFEFEFEFE3E0000000000000000808065
:103730008080808000000000000000000000000089
:1037400080F8FEFEFEFEFEFEFEFEF08000000000A1
:103750000000000000000000008080808080800069
:103760000000000000F8F8F8F8F8F8F80000000091
:10377000000000000000000000000000E0F0F8FC85
:10378000FCFEFE7E7E3E3E7E7EFEFCFC783000002F
:103790000000F8F8F8F8F8F8F80000000000000061
:1037A0000000000000000000000000000000000019
:1037B0000000000000000000000080808080800089
:1037C000FFFFFFFFFFFFFF000000030F1F1F1F1F72
:1037D0000F0F00000000000000000080808080804B
:1037E00080800000000000000000000000000000D9
:1037F00000000000000000000000000000000000C9
:103800000000003FFFFFFFFFFFFC00C0FFFFFFFFC6
:103810007FFFFFFFFFFF8000FEFFFFFFFFFF0F00A6
:103820000000F0F8FEFEFFFF7F1F0F0F1FFFFFFFDE
:10383000FEFCF8C000000000C0FCFFFFFFFF7F0798
:103840001FFFFFFFFFFFF88000000000C0F0FCFE3C
:10385000FFFFFF7F1F1F1F1F3F3F3F0E041F1FFF64
:10386000FFFFFFFFFFFF1F1F1F1F000000000000E2
:103870000000000000001F7FFFFFFFFFFFFCF8F8C3
:10388000F0F0E0E0C1C08000001F1F1FFFFFFFFF3E
:10389000FFFFFF1F1F1F0F000000FFFFFFFFFFFFC5
:1038A00000000000FFFFFFFFFFFFFF000000C0F867
:1038B000FCFEFFFFFF7F1F1F1F3FFFFFFFFFFFFFFC
:1038C000FF00000000FFFFFFFFFFFFFF000000C040
:1038D000F8FCFEFFFFFF3F1F1F1F3FFFFFFFFEFC27
:1038E000F8E0000000000000000000000000000000
:1038F00000000000000000000000000000000FFFBA
:10390000FFFFFFFFFCFFFFFFFF1F0001FFFFFFFFA7
:10391000FFFEFFFFFFFFFF070000001EFFFFFFFF8E
:10392000FFFFDF1F1F1F1F1F1F9F9F1F1F1F000065
:10393000E0FEFFFFFFFFFFFFFCFCFCFDFFFFFFFFC2
:10394000FFFFFCC00000FFFFFFFFFFFFFF80000044
:10395000000000800000000000FFFFFFFFFFFFFFEE
:103960000000000000000000000000000000000057
:1039700080C0C0800101030303070FFFFFFFFFFFAB
:10398000FFFF70000000FFFFFFFFFFFFFF000000D0
:1039900000000000FFFFFFFFFFFF00000080FFFFAF
:1039A000FFFFFFFFFF000000FFFFFFFFFFFFFF80A3
:1039B00000000000FFFFFFFFFFFFFF00000000FF0F
:1039C000FFFFFFFFFFFF000000FFFFFFFFFFFFFF04
:1039D0008000000000FFFFFFFFFFFFFF000000006E
:1039E00000000000000000000000000000000000D7
:1039F000000000000000000000073F3F3F3F3F3F46
:103A00003F3F0F000000003F3F3F3F3F3F3F3F3FF2
:103A100001000000000001070F1F1F3F3F3F3E3E17
:103A20003E3E3F3F1F1F0E00303E3F3F3F3F3F1F88
:103A300001000000000000033F3F3F3F3F3F3C00CC
:103A40000003070F1F3F3F3F3F3E3E3F3F3F1F1ECC
:103A5000080000030F1F3F3F3F3F3F3E3F3F1C1802
:103A6000000000000000000000070F1F1F3F3F3F45
:103A70003F3E3E3F3F3F3F1F1F0F07030000000038
:103A8000070F1F3F3F3F3F3E3F3F3F1C00000F1FC0
:103A90003F3F3F3F3F3E3F1F1F3F3F3F3F3F3F00B6
:103AA000000000070F1F3F3F3F3F3F3E3F1F1F3FAC
:103AB0003F3F3F3F3F000000003F3F3F3F3F3F3F12
:103AC0000000000003070F1F3F3F3F3F3E3E3F3FC8
:103AD0003F1F1F0F03000000000000000000000057
:103AE00000000000000000000000000000000000D6
:103AF00000000000000000000000000000000000C6
:103B000000000000000000000000000000000000B5
:103B100000000000000000000000000000000000A5
:1040C000E04000080000002008000000C0010008D7
:1040D000E840000808000020802B0000DC010008F8
:0840E0000100000000127A004B
:040000050800018569
:00000001FF
