:020000040800F2
:1000000068230020110100083502000831020008B1
:1000100033020008850100081705000800000000F1
:10002000000000000000000000000000990300082C
:100030008701000800000000710200089B0300080F
:100040002B0100082B0100082B0100082B010008E0
:100050002B0100082B0100082B0100082B010008D0
:100060002B0100082B0100082B0100082B010008C0
:100070002B0100082B0100082B0100082B010008B0
:100080002B0100082B0100082B0100082B010008A0
:100090002B0100082B0100082B0100082B01000890
:1000A0002B0100082B0100082B0100082B01000880
:1000B0002B0100082B0100082B0100082B01000870
:1000C0002B0100082B0100082B0100082B01000860
:1000D0002B0100082B0100082B0100082B01000850
:1000E0002B0100082B0100082B0100082B01000840
:1000F0002B0100082B0100082B010008DFF80CD0B1
:1001000000F02EF800480047390D00086823002051
:100110000648804706480047FEE7FEE7FEE7FEE7A1
:10012000FEE7FEE7FEE7FEE7FEE7FEE7A1030008C5
:10013000FD00000830B50B460146002020220124B6
:1001400009E021FA02F59D4205D303FA02F5491BA5
:1001500004FA02F52844151EA2F10102F1DC30BDBB
:10016000064C074D06E0E06840F0010394E8070004
:1001700098471034AC42F6D3FFF7C4FFFC3A0008AE
:100180001C3B0008FEE77047F0B5CB7803F00F0288
:100190001B0644BF8B781A430B881C061CD00368CF
:1001A000012400254FF00F0C202D13D00F883C4266
:1001B0000DD00CFA05F602FA05F7B3433B43CF78AE
:1001C000482F03D0282F08BF446100E004610435A4
:1001D0006400E9E703600B88B3F5807F1CD34368B4
:1001E0004FF4807400254FF00F0C202D13D00F8892
:1001F0003C420DD00CFA05F602FA05F7B3433B4337
:10020000CF78482F03D0282F08BF446100E0046155
:1002100004356400E9E74360F0BD8068084018BF1A
:10022000012070471023002A08BF1423C1507047D3
:10023000FEE7FEE770470020002100F0F9BC0A68E5
:1002400010430860704729460490304638472046DE
:10025000802100F09AB82A462346CDF8008048470E
:1002600032463B46CDF800804847262000F028BDA6
:10027000704700000149FFF7E2BF00BF1C100240B9
:100280000149FFF7DCBF00BF1810024080B500F045
:100290002DF8044904A20968C1F30311515CC84058
:1002A00080BD00BF041002400000000000000000FC
:1002B000010203040607080970B5184E0C460546EE
:1002C000FFF7E4FF3DB13168074AC1F30221515CF9
:1002D00020FA01F1296034B13168034AC1F3C22127
:1002E000515CC840206070BD042B00080B490868B1
:1002F00000F003020A48022A08D10A680B68C2F318
:1003000083420232DB0302D4064850437047096837
:100310005043C1F34041C840704700BF0410024041
:1003200000127A0000093D0070B5026802F44152E3
:1003300002604A890B884C790E7B0D7A1A434B88F0
:100340001A430B7922431A43CB881A43036832437A
:100350002A4392B21A430260C989016170BD0268E2
:1003600022F40062026002681143016070470021BC
:10037000017341810160416001720721C1817047B1
:10038000016841F04001016070478068084018BF73
:1003900001207047C1607047704700F039B9000014
:1003A00081B03148314A016841F001010160416882
:1003B00011402F4A4160016811400160016821F439
:1003C00080210160416821F4FE0141604FF41F016A
:1003D0008160016841F48031016000210091009941
:1003E000090B042905D80168890302D40099013159
:1003F000F4E70168890330D51E4903230A6842F0F7
:1004000010020A600A6863F302020A60042241686B
:1004100021F0F0014160416821F460514160416880
:1004200062F30A210A224160416841F4803141604F
:10043000416862F395414160016841F0807101605B
:1004400001688901FCD54168022262F30101416023
:10045000416801F00C010829FAD107484FF000610A
:10046000016001B0704700BF001002400000FFF8BB
:10047000FFFFF6FE0020024008ED00E0BCB5044698
:10048000C0680D464EF6F3110840A97A0843298941
:100490000843A98808434CF6FF71E06020690840D2
:1004A000E98808434FF6FF41206160690840A98947
:1004B000084360615148844219BF01A8002101A985
:1004C0000020FFF7F9FE019919206FF063034843FC
:1004D00029688900B0FBF1F06421B0FBF1F202FB66
:1004E0000300322303EB0010B0FBF1F000F00F002B
:1004F00040EA0210A060BCBDC16841F40051C16077
:1005000070470068084018BF01207047426861F3D7
:10051000080242607047FEE7B0B5BA4D044628466F
:100520000221FFF732FF0028F9D028462146BDE816
:10053000B040FFF72FBF00BF10B5B24CFFF787FEEA
:100540000028FBD110BD00BFE0B50420FFF798FEE6
:1005500003480190B64801A9FFF716FE8CBD00BF05
:100560000100032880B5B2480121FFF756FE00289C
:1005700018BF012080BD00BFE0B50820FFF780FE56
:1005800003480190324801A9FFF7FEFD8CBD00BF72
:10059000040003802E4804210022FFF743BE00BF61
:1005A0000248016881F00401016070470C0C0140B1
:1005B00010B586B044F20400FFF762FE0E480F4CFF
:1005C0000590A4F5405005A9FFF7DEFD4FF4E13199
:1005D000002001910821ADF81000ADF80C00029048
:1005E00020468DF80E1001A9FFF748FF2046FFF7BF
:1005F00083FF06B010BD00BF000203880038014031
:1006000006490A6810440A688242FCD3704700BF5A
:100610000248016801310160704700BF20000020DE
:100620000B484FF480510022FFF7FCBD08484FF4FF
:1006300080510122FFF7F6BD05484FF480410022AA
:10064000FFF7F0BD02484FF480410122FFF7EABDF9
:10065000000C014070B50C46054600200021002624
:1006600000F0E6FA242000F02BFB28464FF47A61D4
:1006700000F03EFBFFF7DFFDFFF7F7FDFFF7D0FFD0
:10068000102E0CD00025FA2D06D0605D80F0FF0002
:10069000FFF742FF0135F6E7FA340136F0E7FFF7DE
:1006A0004BFFFFF7C3FFBDE8704000F0DBBA00006E
:1006B00010B50446102000F003FB204600F0EEFACF
:1006C00028480021017010BDB0B52648007808B94F
:1006D00000F09CFA00F0D4FA28B9122000F0F0FAE9
:1006E00000F0CEFA08B10120B0BD1F4D0120A8478F
:1006F0001E4C2720A0470120A0470120A047112021
:10070000A8470120A0474420A8470020A0470F2069
:10071000A0474520A8472720A0470120A047002048
:10072000A0470020A0473C20A8470520A047212043
:10073000A8470020A0478020A0471820A847802075
:10074000A0474E20A8470020A0474F20A8472720B9
:10075000A0470120A04700F093FA002818BF01200D
:10076000B0BD00BF1C000020C10C00089D0C00089B
:10077000F0B585B00C20FFF783FD2148214C224FB6
:10078000049004F5504604AD30462946B8474FF46E
:1007900000402946ADF8100048208DF8130030467F
:1007A000B8471A4804F55446FFF74DFD1848FFF7BF
:1007B0004AFD1848FFF747FD4FF48040FFF75AFD08
:1007C0006D462846FFF7D3FD102029468DF80C0012
:1007D0004FF4827000904FF44040ADF80A000020C2
:1007E0008DF808000C4801902046FFF79DFD20463B
:1007F0000021FFF7B4FD2046FFF7C2FD05B0F0BDB4
:100800000001038000380040890100080040038097
:1008100000A00388001003800102000280B5FA489E
:100820004FF40041FFF7F9FC002818BF012080BDFC
:1008300000080140B0B5714A0021538A994228BF8F
:10084000B0BD0023148AA34205D2156801FB0454ED
:10085000E0540133F6E70131EFE700BF2DE9F04F37
:1008600085B00E4607464FF0FF304FF0FF31DDF800
:1008700038A0B34288BF012000900492BA421046CB
:10088000184688BF012102910193981B039044BF31
:10089000414203910499B1EB070B48BFCBF1000B28
:1008A0000399ABEB010980EAE071C1EBE078BCB2DF
:1008B000B5B252462046294600F019F8B8EB490F68
:1008C00007DC049884420FD0029807440398A9EBF0
:1008D00000094FEA49005845E9DC0198854203D0F8
:1008E0000098D9440644E2E705B0BDE8F08F01382E
:1008F000013980B289B200F04DB800002DE9F8430B
:100900000546DDE908801C4616460F4658B1B9B2C7
:10091000A1421AD2284632460B46CDF80080FFF796
:100920009DFF0137F3E7DFF8289028463946FFF7A7
:1009300097FC28463946FFF78EFC30462146FFF7E4
:100940008FFC30462146FFF786FCBDE8F88300BFE8
:100950005D080008B0B5294C049D20600120A581E8
:10096000628262812181E3814D074FEAD10518BF80
:1009700000EBD10525820BB1B42B02D110460A46FB
:1009800000E00846E280A080B0BD00BF1B490860BF
:10099000704700BF70B5194BDC89B4F5877F09D06B
:1009A0005A2C0AD0B42C0FD03CBB1C89C94321441B
:1009B00004460CE00C46014609E05C89C943C0438B
:1009C0000C441989014402E05C89C04304441E8A36
:1009D000A4B201F0070089B21B686FF080050541E1
:1009E0007443802604EBD10126FA00F05C5C2043BE
:1009F000002A08BF04EA0500585470BD0800002012
:100A00002DE9F04F89B00130039080B20690C01AF2
:100A1000FA2802DD09B0BDE8F08F481C129D1C4683
:100A2000082B089001D1062009E0012061074FEA58
:100A3000D40118BF00EBD4016008484380B207908E
:100A40006008DDF80C90B5FA85F64FF000080490C8
:100A5000A2F1200081B22C4801EB4102029100EB8F
:100A6000420001920590264800EB01100090079982
:100A70001FFA88F08142CDD9082C01D1059910E0E8
:100A8000182C06D0102C0BD00C2CC3D101991D4A68
:100A900003E00299194A01EBC10102EB810100E078
:100AA00000990844089F4FF0000B90F800A0BBF19C
:100AB000070F0FD85FEACA702A46B9B21FFA89F049
:100AC00008BF7209FFF713FF0BF1010B01374FEA63
:100AD0005A0AECE709F10109082C0BD006991FFA14
:100AE00089F0401A0499884204D10898DDF80C90E6
:100AF0000830089008F10108B9E700BFA81D0008F8
:100B0000B8170008441300081C1100082DE9F04F25
:100B100087B0012501F1010A91464FF000085C07FA
:100B20004FEAD30418BF05EBD304461C119D53466E
:100B30000094B0B204960390B5FA85F700200099AE
:100B4000029080B2884236D20021CDF8048088B26B
:100B500048452AD2CDE9051310991FFA88F04FF0C5
:100B6000000B0C5CBBF1070F0ED8E0072A461FFAFA
:100B70008AF1B0B218BF7A09FFF7B9FE0BF1010B89
:100B80000AF1010A6408EDE70136039908F101084A
:100B9000B0B2401A4845069B08BF0833049808BF06
:100BA000064605999A460131D1E7DDF8048002989E
:100BB000C8440130C3E707B0BDE8F08F2DE9F84322
:100BC000DDF820905E081C46154688460746082B2F
:100BD00008BF06262A784AB1B8B241462346CDF866
:100BE0000090FFF70DFF37440135F3E7BDE8F883C8
:100BF00005484FF480710022FFF714BB02484FF400
:100C000080710122FFF70EBB0008014080B5FFF79D
:100C1000EFFF3220FFF7F4FCFFF7F0FF3220FFF781
:100C2000EFFC02480121017080BD00BF1C000020C4
:100C3000B0B505464E200C4600F042F8C5F3C7009B
:100C4000074DA8474F2000F03BF840F22710041B47
:100C5000E0B2A847C4F300202946BDE8B0400847E9
:100C60009D0C000880B5222000F02AF8F72000F043
:100C700015F8202000F024F8BDE88040AFF3008094
:100C800010B549F64044FFF7C9FD28B1012024B151
:100C9000FFF7B6FC013CF6E7002010BDB0B50546F5
:100CA000FFF7BEFC114C29462046FFF773FBFFF708
:100CB000CEFA0028FBD1BDE8B040FFF7B7BC00BFBB
:100CC000B0B50546FFF7B8FCFFF7AAFC074C29466C
:100CD0002046FFF75FFBFFF7BAFA0028FBD1FFF7CA
:100CE000A5FCBDE8B040FFF7ADBC00BF0038004038
:100CF000B0B50C460546FFF793FC2CB115F8010B77
:100D0000FFF70AFC013CF8E7FFF716FCBDE8B0402E
:100D1000FFF78CBCB0B5074D0446C1B22846FFF7BB
:100D2000F5FB28468021FFF7ECFB0028F9D0204690
:100D3000B0BD00BF0038014088B000F0F5F8FFF703
:100D40001BFCFFF701FCFFF733FC4748474CA0476B
:100D50004748A0474748A04747A0A0474B480168DD
:100D60004BA000F0FFF84EA0A047FFF701FDFFF7F2
:100D7000ABFCDFF84081FF257A21FA22B4230095ED
:100D80004046FFF7E7FDDFF830A17A21FA22B423CD
:100D900000955046FFF7DEFD484F4046B847484CA7
:100DA000FF20A0475046B847FF20A04745480021F4
:100DB000FA227A230195002600900020FFF7A6FE74
:100DC00040465146FFF746FC01204FF00109FFF76E
:100DD0006FFC4FF4FA50FFF713FCFFF775FC404629
:100DE000B847FF20A0473D4D37A20A200021182315
:100DF0000096A8473AA20A20322110230096A8475D
:100E00003EA20A201D2110230096A8475046B8474D
:100E1000FF20A04740480096182303903EA0D0E949
:100E20000112C068CDE90412069003AA0A204721E6
:100E3000A8470A206721F0227423CDE90069FFF753
:100E40005DFD40465146FFF705FC0120FFF730FCF1
:100E5000FFF788FB10B1FFF79DFBF9E76420FFF770
:100E6000CFFBFFF79DFBF3E7AC3A0008F910000851
:100E7000C73A0008DF3A0008777777772E77656101
:100E800063742D74632E636E0D0A0D000400002040
:100E900053797374656D436C6B3A25640D0A0000D9
:100EA000457061706572204D6F64756C6520546586
:100EB00073740D0024000020C40F00208D09000869
:100EC000350800080C2B0008322E313320457061A4
:100ED000706572204D6F64756C650000BD0B000875
:100EE00077697468203235302078203132322072B0
:100EF00065736F6C7574696F6E000000446573698B
:100F0000676E65642042792057654163742053748D
:100F10007564696F000000003E3E2048656C6C6F90
:100F200020576F726C642E000B484FF47A71006882
:100F3000B0FBF1F00138B0F1807F00D3FEE7074944
:100F4000F02248600648027000228A6007220A6088
:100F500050210170704700BF0400002010E000E045
:100F600023ED00E00FB4054B10B503A9044A029825
:100F700000F018F810BC5DF814FB0000150D000817
:100F80000000002002E008C8121F08C1002AFAD1A0
:100F900070477047002001E001C1121F002AFBD1F9
:100FA000704700002DE9FF4F89B09B46044600259D
:100FB00006E025280BD05A460B999047641C6D1CFF
:100FC00020780028F5D10DB02846BDE8F08F002725
:100FD000B8460122474900E0074314F8013F203B8F
:100FE00002FA03F00842F7D120782E2819D114F81C
:100FF000010F47F004072A280ED06FF02F02207847
:10100000A0F1300109290CD808EB880102EB41015D
:1010100000EB0108641CF2E70A98641C50F8048B8A
:101020000A9020780028CED0642808D0692806D0FD
:1010300075281ED05A460B9990476D1C58E00A99A6
:101040004FF00A0901C90A91002802DA40422D2115
:1010500002E0390504D52B218DF82010012103E091
:10106000F90704D02021F7E78A4608AE0DE00021F9
:10107000FAE70A994FF00A0901C90A91F7E74946C8
:10108000FFF758F8303106F8011D0028F7D1ADEB15
:10109000060000F12009780701D44FF00108C84587
:1010A00002DDA8EB090000E000208046002706E0F2
:1010B00008A85A46C05D0B9990476D1C7F1C574588
:1010C000F6DB04E030205A460B9990476D1CB8F1CE
:1010D0000001A8F10108F5DC05E016F8010B5A46FD
:1010E0000B9990476D1CB9F10001A9F10109F4DCDD
:1010F000641C65E70928010010B5044601E0FFF70C
:1011000009FE14F8010B04490028F8D1BDE810408D
:101110000A20FFF7FFBD00000000002000000000D3
:1011200000000000002F000000000700070000146E
:101130007F147F1400242A7F2A120062640813237C
:1011400000364955225000000503000000001C2213
:101150004100000041221C000014083E0814000851
:10116000083E0808000000A0600000080808080801
:10117000000060600000002010080402003E514999
:10118000453E0000427F4000004261514946002137
:1011900041454B31001814127F1000274545453951
:1011A000003C4A49493000017109050300364949AC
:1011B000493600064949291E000036360000000065
:1011C00056360000000814224100001414141414B0
:1011D0000000412214080002015109060032495959
:1011E000513E007C1211127C007F49494936003E75
:1011F00041414122007F4141221C007F4949494130
:10120000007F09090901003E4149497A007F080829
:10121000087F0000417F4100002040413F01007FE6
:1012200008142241007F40404040007F020C027FB2
:10123000007F0408107F003E4141413E007F0909C4
:101240000906003E4151215E007F091929460046EA
:10125000494949310001017F0101003F4040403FC1
:10126000001F2040201F003F4038403F006314080B
:1012700014630007087008070061514945430000E6
:101280007F41410000552A552A55000041417F0009
:1012900000040201020400404040404000000102FE
:1012A0000400002054545478007F484444380038E7
:1012B0004444442000384444487F0038545454186F
:1012C00000087E0901020018A4A4A47C007F080481
:1012D00004780000447D4000004080847D00007F51
:1012E000102844000000417F4000007C041804786E
:1012F000007C0804047800384444443800FC24246A
:1013000024180018242418FC007C08040408004851
:101310005454542000043F444020003C4040207C72
:10132000001C2040201C003C4030403C0044281061
:101330002844001CA0A0A07C004464544C44141415
:10134000141414140000000000000000000000004D
:101350000000FC000000000002000000000C020C75
:10136000020000000000000090D0BCD0BC90000340
:10137000000300001824FE448C0003020702010051
:101380001824D8B04C80000300010201C038E438B2
:10139000E000010202010202080600000000000055
:1013A00000000000000000F8040200000001020438
:1013B000000204F800000004020100009060F860E0
:1013C00090000000010000002020FC202000000010
:1013D00001000000000000000000080600000000FE
:1013E000202020202000000000000000000000005D
:1013F00000000002000000000080601C02000403E6
:1014000000000000F8040404F800010202020100D8
:101410000008FC00000000020302000018844424BD
:10142000180003020202020008042424D80001026A
:101430000202010040B088FC8000000000030200AE
:101440003C242424C400010202020100F824242CBC
:10145000C0000102020201000C04E41C04000000B0
:1014600003000000D8242424D80001020202010055
:1014700038444444F8000003020201000000100058
:10148000000000000200000000002000000000003A
:101490000600000000205088040200000000010245
:1014A00090909090900000000000000000020488DE
:1014B00050200002010000001804C424180000009D
:1014C00002000000F804E494F800010202020200A5
:1014D00000E09CF0800002030000030204FC2424CE
:1014E000D800020302020100F80404040C00010207
:1014F0000202010004FC0404F800020302020100DD
:1015000004FC24740C0002030202030004FC247493
:101510000C00020302000000F0080444CC4000016B
:101520000202010004FC2020FC040203000003026C
:101530000404FC040400020203020200000404FC90
:10154000040406040403000004FC24D00C04020379
:101550000200030204FC0400000002030202020372
:10156000FC3CC03CFC0003000300030004FC30C44E
:10157000FC04020302000300F8040404F800010262
:101580000202010004FC24241800020302000000EF
:10159000F8848404F80001020207050004FC2464B6
:1015A0009800020302000302182424448C00030262
:1015B000020201000C04FC040C0000020302000003
:1015C00004FC0000FC04000102020100047C80E035
:1015D0001C040000030000001CE03CE01C000003B1
:1015E00000030000049C609C04000203000302004E
:1015F000041CE01C04000002030200000C84641CB4
:1016000004000203020203000000FE0202000000C8
:1016100007040400000E30C00000000000010200BA
:10162000000202FE0000000404070000000402049F
:10163000000000000000000000000000000008089A
:101640000808080800000200000000000000000078
:101650000040A0A0C00000010202030204FC202000
:10166000C00000030202010000C020206000000151
:101670000202020000C02024FC000001020203025A
:1016800000C0A0A0C0000001020202000020F82457
:1016900024040002030202000040A0A06020000712
:1016A0000A0A0A0404FC2020C0000203020003020C
:1016B0000020E4000000000203020000000020E41B
:1016C000000008080807000004FC80E02020020356
:1016D000020003020404FC000000020203020200F4
:1016E000E020E020C00003000300030020E02020F1
:1016F000C00002030200030200C02020C00000015D
:101700000202010020E02020C000080F0A020100B0
:1017100000C02020E0000001020A0F0820E0402065
:1017200020000203020000000060A0A020000002D0
:10173000020203000020F820000000000102020065
:1017400020E00020E00000010202030220E02080EF
:1017500060200000030100006080E0806000000362
:1017600000030000206080602000020300030200EC
:1017700020E0208060200808070100000020A06011
:101780002000000203020200000020DE0200000030
:1017900000070400000000FF00000000000F000030
:1017A0000002DE2000000004070000000201020425
:1017B0000402000000000000000000000000000023
:1017C0000000000000000000000000F80000000021
:1017D000000000333000000000100C06100C060062
:1017E000000000000000000040C07840C0784000C9
:1017F000043F04043F040400007088FC083000002B
:10180000001820FF211E0000F008F000E018000082
:1018100000211C031E211E0000F00888700000003B
:101820001E2123241927211010160E00000000008D
:101830000000000000000000000000E018040200AA
:10184000000000071820400000020418E00000001B
:101850000040201807000000404080F08040400019
:101860000202010F01020200000000F0000000006F
:101870000101011F01010100000000000000000043
:1018800080B07000000000000000000000000000B8
:101890000001010101010101000000000000000041
:1018A00000303000000000000000000080601804DC
:1018B000006018060100000000E010080810E000B9
:1018C000000F102020100F00001010F80000000082
:1018D0000020203F202000000070080808887000C9
:1018E0000030282422213000003008888848300049
:1018F0000018202020110E000000C02010F8000069
:1019000000070424243F240000F808888808080001
:101910000019212020110E0000E010888818000016
:10192000000F112020110E0000380808C8380800E8
:101930000000003F00000000007088080888700068
:10194000001C222121221C0000E010080810E000E9
:101950000000312222110F00000000C0C000000072
:101960000000003030000000000000800000000097
:10197000000080600000000000008040201008008F
:101980000001020408102000404040404040400058
:101990000404040404040400000810204080000033
:1019A0000020100804020100007048080808F00038
:1019B0000000003036010000C030C828E810E00008
:1019C0000718272423140B000000C038E000000093
:1019D000203C23020227382008F8888888700000FD
:1019E000203F202020110E00C030080808083800D1
:1019F000071820202010080008F808080810E00048
:101A0000203F202020100F0008F88888E8081000E8
:101A1000203F20202320180008F88888E8081000BC
:101A2000203F200003000000C030080808380000F4
:101A300007182020221E020008F808000008F808F5
:101A4000203F210101213F20000808F8080800007C
:101A50000020203F2020000000000808F8080800AF
:101A6000C08080807F00000008F888C02818080027
:101A7000203F20012638200008F808000000000060
:101A8000203F20202020300008F8F800F8F8080057
:101A9000203F003F003F200008F830C00008F80851
:101AA000203F200007183F00E01008080810E00061
:101AB0000F10202020100F0008F808080808F00078
:101AC000203F210101010000E01008080810E0009B
:101AD0000F18242438504F0008F888888888700030
:101AE000203F2000030C30200070880808083800D0
:101AF0000038202121221C00180808F808081800C6
:101B00000000203F2000000008F808000008F80846
:101B1000001F202020201F000878880000C83808F7
:101B2000000007380E010000F80800F80008F8006F
:101B3000033C0700073C0300081868808068180809
:101B400020302C03032C30200838C800C838080087
:101B50000000203F2000000010080808C8380800D6
:101B60002038262120201800000000FE020202007A
:101B70000000007F40404000000C30C0000000002A
:101B8000000000010638C00000020202FE00000052
:101B9000004040407F0000000000040202020400F8
:101BA0000000000000000000000000000000000035
:101BB000808080808080808000020204000000001D
:101BC0000000000000000000000080808080000015
:101BD0000019242222223F2008F800808000000003
:101BE000003F112020110E000000008080800000C6
:101BF000000E112020201100000000808088F800D5
:101C0000000E112020103F20000080808080000006
:101C1000001F222222221300008080F0888888186A
:101C20000020203F20200000000080808080800075
:101C3000006B94949493600008F80080808000000A
:101C4000203F210000203F200080989800000000E5
:101C50000020203F20200000000000809898000015
:101C600000C08080807F000008F800008080800035
:101C7000203F24022D302000000808F8000000005A
:101C80000020203F20200000808080808080800015
:101C9000203F20003F20003F8080008080800000A7
:101CA000203F210000203F20000080808080000035
:101CB000001F202020201F00808000808000000066
:101CC00080FFA12020110E00000000808080800095
:101CD000000E112020A0FF80808080008080800086
:101CE00020203F21200001000000808080808000B3
:101CF0000033242424241900008080E08080000028
:101D00000000001F20200000808000000080800074
:101D1000001F202020103F208080800000808080D5
:101D200000010E3008060100808000800080808065
:101D30000F300C030C300F0000808000808080008A
:101D40000020312E0E3120008080800000808080B5
:101D500080818E7018060100008080808080800065
:101D60000021302C2221300000000000807C020283
:101D700000000000003F404000000000FF000000A5
:101D800000000000FF0000000002027C8000000054
:101D90000040403F00000000000601010202040470
:101DA0000000000000000000000000000000000033
:101DB0000000000000000000000000000000000023
:101DC0000000000000000000000000000000000013
:101DD00000F0F0F0000000000000000000017F01B2
:101DE0000000000000000000001C1C1C000000009F
:101DF00000008060301C8C60301C0C000000000073
:101E000000000000000000000000000000000000D2
:101E100000000000000000E00000000000E0000002
:101E20000086E69F86868686E69F860000011F0163
:101E3000010101011F010100000080C06020F820A5
:101E4000E0C00000000003070C18FF70E1810000F3
:101E50000000070F10107F100F0700008060206047
:101E600080000000E02000000F3020309F70DC3741
:101E70001030C0000000100E0300071810180700F3
:101E80000000C02020E0C0000000000080E01F38FB
:101E9000E88703C43C040000070F1810100B070D5F
:101EA0001010080000808C4C38000000000000007A
:101EB0000000000000000000000000000000000022
:101EC000000000000000000000000000000080E0B2
:101ED000300804000000000000FEFF0100000000C8
:101EE000000000000000030F18204000000408302C
:101EF000E0800000000000000000000001FFFE0084
:101F000000000000004020180F0300000000000047
:101F1000000000000000C0000000000000426666F3
:101F20003C18FF183C6666420000000000000300F9
:101F30000000000000000000000080000000000021
:101F4000001010101010FF101010101000000000F2
:101F5000000003000000000000000000000000007E
:101F60000000000000000000000000000000000071
:101F700000808C4C380000000000000000000000D1
:101F800000000000000000000010101010101010E1
:101F90001010100000000000000000000000000011
:101FA0000000000000000000000000000000000031
:101FB000000000000000000000001C1C1C000000CD
:101FC000000000000000000000000000E0380C00ED
:101FD0000000000080701C03000000000060380E4C
:101FE0000100000000000000000080C060202060B0
:101FF000C080000000FEFF010000000001FFFE00A5
:102000000001070E181010180E0701000000808054
:1020100080C0E000000000000000000000FFFF00A2
:102020000000000000001010101F1F101010000012
:102030000080402020202060C080000000030300BA
:10204000804020381F070000001C1A1918181818A3
:10205000181F00000080C020202060C08000000009
:10206000000303001010182FE780000000070F1076
:10207000101010180F070000000000000000C0E062
:10208000F000000000C0B088868180FFFF808000E3
:10209000000000000010101F1F1010000000E06082
:1020A000606060606060000000003F100808081871
:1020B000F0E0000000070B101010101C0F030000D0
:1020C000000080C040202020E0C0000000FCFF2174
:1020D0001008080818F0E0000001070C1810101094
:1020E000080F03000000C0E06060606060E0600016
:1020F000000003000000E0180700000000000000DE
:10210000001F1F00000000000080C0602020202071
:1021100060C080000087EF2C1818303068CF830033
:1021200000070F0810101010180F07000000C0C0A3
:1021300020202020C0800000001F3F604040402041
:1021400010FFFE0000000C1C101010080F03000010
:10215000000000000000000000000000000000007F
:10216000000E0E0E0000000000000000001C1C1CF1
:10217000000000000000000000000000000000005F
:1021800000000000000C0C00000000000000000037
:10219000005838000000000000000000000000802F
:1021A00040201000000010284482010000000000C0
:1021B0000000000000000102040810000000000000
:1021C0000000000000000000008484848484848473
:1021D0008484840000000000000000000000000073
:1021E00000001020408000000000000000000000FF
:1021F00000000182442810000000100804020100C1
:102200000000000000C020201010101030E0C000BE
:102210000003030000F010080C070300000000009A
:102220001C1C1C0000000000000000C040602020BA
:102230002040C00000FCFF01F00E03C1FE03807FC0
:102240000001070E0811111011090402000000001E
:1022500080E0E000000000000000807C4340477FF9
:10226000F880000010181F1000000000131F1C1041
:1022700020E0E02020202060C080000000FFFF1050
:10228000101010182FE78000101F1F1010101010D2
:10229000180F0700000080C0402020202060E000D0
:1022A00000FCFF0100000000000001000001070E1B
:1022B000181010100804030020E0E0202020204027
:1022C000C080000000FFFF000000000001FFFE00D2
:1022D000101F1F10101018080E07010020E0E0204A
:1022E000202020202060800000FFFF101010107CB4
:1022F00000000000101F1F10101010101018060012
:1023000020E0E020202020206060800000FFFF10FF
:102310001010107C00000100101F1F1000000000B2
:1023200000000000000080C06020202040E000008D
:1023300000FCFF0100004040C0C140400001070E0A
:10234000181010100F0F000020E0E0200000000027
:1023500020E0E02000FFFF101010101010FFFF0021
:10236000101F1F1000000000101F1F100000202071
:1023700020E0E020202000000000000000FFFF001F
:102380000000000000001010101F1F1010100000AF
:1023900000000000202020E0E020202000000000BD
:1023A000000000FFFF0000000060E0808080C07F30
:1023B0003F00000020E0E020000020A0602020007E
:1023C00000FFFF30187CE3C000000000101F1F104A
:1023D000000001131F1C181020E0E0200000000086
:1023E0000000000000FFFF000000000000000000EF
:1023F000101F1F10101010101018060020E0E0E051
:1024000000000000E0E0E02000FF013FFEC0E01E11
:1024100001FFFF00101F1000031F0300101F1F10FB
:1024200020E0E0C0000000000020E02000FF0003EA
:10243000071C78E08000FF00101F10000000000063
:10244000030F1F00000080C060202060C0800000DB
:1024500000FEFF010000000000FFFE000001070E6B
:10246000181010180C07010020E0E0202020202088
:1024700060C0800000FFFF2020202020301F0F00C0
:10248000101F1F100000000000000000000080C0AE
:1024900060202060C080000000FEFF0100000000FE
:1024A00000FFFE000001070E1111133C7C672100A4
:1024B00020E0E0202020202060C0800000FFFF10EE
:1024C0001030F0D0080F0700101F1F10000000038D
:1024D0000F1C10100080C060202020204040E00031
:1024E00000070F0C1818303060E08100001F0C0846
:1024F00010101010180F07008060202020E0E0204E
:10250000202060800100000000FFFF0000000001AB
:1025100000000000101F1F100000000020E0E0205D
:10252000000000000020E02000FFFF00000000008D
:102530000000FF0000070F1810101010100807000F
:102540002060E0E02000000020E060200000077F25
:10255000F88000807C03000000000000071F1C07BB
:102560000000000020E0E02000E0E0200020E0206B
:102570000007FFF8E01FFFFCE01F00000000031F42
:102580000300011F03000000002060E0A000002005
:10259000E0602000000000038F7CF8C6010000000E
:1025A0000010181E130001171F1810002060E0E033
:1025B0002000000020E06020000001073EF8E01845
:1025C0000700000000000010101F1F101000000086
:1025D00000806020202020A0E0E02000000000001B
:1025E000C0F03E0F0300000000101C1F1710101059
:1025F000101806000000000000FC0404040404009D
:102600000000000000FF00000000000000000000CB
:10261000007F404040404000000010E0000000000B
:102620000000000000000000031C608000000000AB
:1026300000000000000000030C7080000000040493
:10264000040404FC0000000000000000000000FF83
:1026500000000000000040404040407F00000000BB
:1026600000000010080C040C08100000000000001E
:10267000000000000000000000000000000000005A
:10268000000000000000000000000000000000004A
:10269000000000000000000000000000808080803A
:1026A0008080808080808080000000040408080012
:1026B000000000000000000000000000000000001A
:1026C000000000000000000000000000000000000A
:1026D0000000000000000000000098D8446424249A
:1026E000FCF80000000F1F18101010081F1F101812
:1026F0000020E0F000000000000000000000FFFFEC
:10270000180804040CF8F00000001F0F1810101037
:10271000180F03000000000000000000000000008F
:1027200000E0F8180404043C3800000000030F0C1B
:10273000101010100806000000000000000000202B
:10274000E0F0000000E0F81C04040408FFFF0000B3
:1027500000030F18101010081F0F080000000000E1
:1027600000000000000000000000E0F8484444447D
:102770004C7870000000030F0C18101010080400B3
:102780000000000080C0602020E0C00000040404BD
:10279000FFFF040404040000000010101F1F1010AD
:1027A0001000000000000000000000000000000019
:1027B000000070F88C04048CF874040C007076CF60
:1027C0008D8D8D89C87870000020E0F00000000039
:1027D000000000000000FFFF08040404FCF80000F3
:1027E00000101F1F100000101F1F1000000000002D
:1027F00000606000000000000000040404FCFC0015
:102800000000000000001010101F1F10101000002A
:1028100000000000000000606000000000000000F8
:10282000040404FCFC0000000000C0C08080C07FE5
:102830003F0000000020E0F0000000000000000069
:102840000000FFFF80C0F41C0404000000101F1FE4
:102850001100031F1C1010000000202020E0F000D9
:10286000000000000000000000FFFF00000000006A
:1028700000001010101F1F101010000000000000BA
:10288000000000000000000004FCFC0804FCFC0840
:1028900004FCFC00101F1F10001F1F10001F1F1042
:1028A0000000000000000000000000000004FCFC2C
:1028B00008080404FCF8000000101F1F100000109E
:1028C0001F1F1000000000000000000000000000BA
:1028D00000E0F0180C04040C18F0E00000030F0CEA
:1028E000101010100C0F030000000000000000008A
:1028F000000000000004FCFC080404040CF8F000D4
:102900000080FFFF889010101C0F030000000000E3
:10291000000000000000000000E0F81C04040408AF
:10292000F8FC000000030F1810109088FFFF8000D3
:10293000000000000000000000000000040404FC8F
:10294000FC100804040C0C001010101F1F101010B5
:102950000000000000000000000000000000000077
:1029600000003078CCC48484840C1C0000001E1845
:1029700010101011190F06000000000000C0000028
:102980000000000000040404FFFF04040400000031
:10299000000000000F1F1010100C000000000000CD
:1029A00000000000000000000004FCFE0000000425
:1029B000FCFE000000000F1F181010081F0F080079
:1029C00000000000000000000000000000040C3CBB
:1029D000FCC40000C43C0C0400000000010F1E0EEB
:1029E00001000000000000000000000000000000E6
:1029F000043CFCC400E47CFC84807C040000071FD1
:102A0000070000071F070000000000000000000092
:102A1000000000000004041C7CE4C0341C0404001A
:102A20000010101C1601131F1C18100000000000DD
:102A3000000000000000000000040C3CFCC400C4C6
:102A40003C0404000000C080C1370E0100000000FB
:102A500000000000000000000000000000001C0456
:102A600004C4F47C1C0400000000101C1F1711108B
:102A700010180E0000000000000000F80C04000018
:102A800000000000001028EF00000000000000001F
:102A90000000003F60400000000000000000FF0058
:102AA00000000000000000000000FF000000000027
:102AB000000000000000FF00000000000000040C07
:102AC000F80000000000000000000000EF281000E7
:102AD00000000000000040603F0000000000000017
:102AE0000018060202040810202030080000000030
:102AF00000000000000000000000000000000000D6
:102B000000000000000000000102030400000000BB
:102B100000000000000000000000000000000000B5
:102B200000000000000000000000000000000000A5
:102B30000000000000000000000000000000000095
:102B40000000000000000000000000000000000085
:1030B000000000008080808080800000000000C050
:1030C000E0E0E0E0C0C00000000000000000000000
:1030D00000000000000000000000000000000000F0
:1030E00000000000000000000000000000000000E0
:1030F0000000000000007EFEFEFEFEFEFE0000005E
:1031000080FEFEFEFEFEFEFEFC00000000FCFEFE59
:10311000FEFEFE3E00000000000000008080808077
:10312000808000000000000000000000000080F827
:10313000FEFEFEFEFEFEFEFEF0800000000000002F
:10314000000000000000008080808080800000007F
:10315000000000F8F8F8F8F8F8F8000000000000A7
:1031600000000000000000000000E0F0F8FCFCFEA1
:10317000FE7E7E3E3E7E7EFEFCFC7830000000003F
:10318000F8F8F8F8F8F8F800000000000000000077
:10319000000000000000000000000000000000002F
:1031A0000000000000000000808080808000FFFFA1
:1031B000FFFFFFFFFF000000030F1F1F1F1F0F0F68
:1031C000000000000000000000808080808080807F
:1031D00000000000000000000000000000000000EF
:1031E00000000000000000000000000000000000DF
:1031F000003FFFFFFFFFFFFC00C0FFFFFFFF7FFF5F
:10320000FFFFFFFF8000FEFFFFFFFFFF0F0000003A
:10321000F0F8FEFEFFFF7F1F0F0F1FFFFFFFFEFCFA
:10322000F8C000000000C0FCFFFFFFFF7F071FFF8A
:10323000FFFFFFFFF88000000000C0F0FCFEFFFF72
:10324000FF7F1F1F1F1F3F3F3F0E041F1FFFFFFF7A
:10325000FFFFFFFF1F1F1F1F0000000000000000F6
:10326000000000001F7FFFFFFFFFFFFCF8F8F0F0F9
:10327000E0E0C1C08000001F1F1FFFFFFFFFFFFF36
:10328000FF1F1F1F0F000000FFFFFFFFFFFF0000D9
:103290000000FFFFFFFFFFFFFF000000C0F8FCFE83
:1032A000FFFFFF7F1F1F1F3FFFFFFFFFFFFFFF000D
:1032B000000000FFFFFFFFFFFFFF000000C0F8FC61
:1032C000FEFFFFFF3F1F1F1F3FFFFFFFFEFCF8E059
:1032D00000000000000000000000000000000000EE
:1032E0000000000000000000000000000FFFFFFFD2
:1032F000FFFFFCFFFFFFFF1F0001FFFFFFFFFFFEBF
:10330000FFFFFFFFFF070000001EFFFFFFFFFFFFA3
:10331000DF1F1F1F1F1F1F9F9F1F1F1F0000E0FE9B
:10332000FFFFFFFFFFFFFCFCFCFDFFFFFFFFFFFFB8
:10333000FCC00000FFFFFFFFFFFFFF800000000058
:1033400000800000000000FFFFFFFFFFFFFF000004
:10335000000000000000000000000000000080C02D
:10336000C0800101030303070FFFFFFFFFFFFFFF03
:1033700070000000FFFFFFFFFFFFFF0000000000E4
:103380000000FFFFFFFFFFFF00000080FFFFFFFFC7
:10339000FFFFFF000000FFFFFFFFFFFFFF800000B7
:1033A0000000FFFFFFFFFFFFFF00000000FFFFFF27
:1033B000FFFFFFFF000000FFFFFFFFFFFFFF800098
:1033C000000000FFFFFFFFFFFFFF00000000000004
:1033D00000000000000000000000000000000000ED
:1033E00000000000000000073F3F3F3F3F3F3F3FDE
:1033F0000F000000003F3F3F3F3F3F3F3F3F010086
:103400000000000001070F1F1F3F3F3F3E3E3E3EB2
:103410003F3F1F1F0E00303E3F3F3F3F3F1F010019
:103420000000000000033F3F3F3F3F3F3C000003E0
:10343000070F1F3F3F3F3F3E3E3F3F3F1F1E0800DD
:1034400000030F1F3F3F3F3F3F3E3F3F1C18000020
:1034500000000000000000070F1F1F3F3F3F3F3EDE
:103460003E3F3F3F3F1F1F0F070300000000070FB5
:103470001F3F3F3F3F3E3F3F3F1C00000F1F3F3F6E
:103480003F3F3F3E3F1F1F3F3F3F3F3F3F0000004A
:1034900000070F1F3F3F3F3F3F3E3F1F1F3F3F3F44
:1034A0003F3F3F000000003F3F3F3F3F3F3F0000A6
:1034B000000003070F1F3F3F3F3F3E3E3F3F3F1F80
:1034C0001F0F0300000000000000000000000000CB
:1034D00000000000000000000000000000000000EC
:1034E00000000000000000000000000000000000DC
:1034F00000000000000000000000000000000000CC
:1035000000000000000000000000000000000000BB
:103AA0000000000000000000000000000D0A576543
:103AB0004163742053747564696F20436F7265208D
:103AC000426F6172640D007765616374737475642D
:103AD000696F2E74616F62616F2E636F6D0D007779
:103AE0006561637473747564696F2E616C69657860
:103AF00070726573732E636F6D0D0000203B0008BC
:103B00000000002008000000840F0008283B000887
:103B10000800002060230000940F0008000000004F
:083B20000000000000D8B80508
:04000005080000FDF2
:00000001FF
