:020000040800F2
:10000000B017002011010008550200085102000835
:1000100053020008850100083B05000800000000AD
:10002000000000000000000000000000B90300080C
:10003000870100080000000093020008BB030008CD
:100040002B0100082B0100082B0100082B010008E0
:100050002B0100082B0100082B0100082B010008D0
:100060002B0100082B0100082B0100082B010008C0
:100070002B0100082B0100082B0100082B010008B0
:100080002B0100082B0100082B0100082B010008A0
:100090002B0100082B0100082B0100082B01000890
:1000A0002B0100082B0100082B0100082B01000880
:1000B0002B0100082B0100082B0100082B01000870
:1000C0002B0100082B0100082B0100082B01000860
:1000D0002B0100082B0100082B0100082B01000850
:1000E0002B0100082B0100082B0100082B01000840
:1000F0002B0100082B0100082B010008DFF80CD0B1
:1001000000F02EF800480047BD0C0008B017002092
:100110000648804706480047FEE7FEE7FEE7FEE7A1
:10012000FEE7FEE7FEE7FEE7FEE7FEE7C1030008A5
:10013000FD00000830B50B460146002020220124B6
:1001400009E021FA02F59D4205D303FA02F5491BA5
:1001500004FA02F52844151EA2F10102F1DC30BDBB
:10016000064C074D06E0E06840F0010394E8070004
:1001700098471034AC42F6D3FFF7C4FFFC310008B7
:100180001C320008FEE770472DE9F04191F9033079
:1001900003F00F02B3F1FF3F01DC8B781A430B88A9
:1001A0005FFA82F81A0620D0024600F1100C0126F0
:1001B00000274FF00F0E52F8144B202F13D00B884E
:1001C0001E420DD00EFA07F508FA07F3AC43CD78BE
:1001D0001C431346282D02D0482D01D163461E60D2
:1001E00004377600E9E704600B88B3F5807F22D3FB
:1001F000456800F1140300F1100C4FF480760027DD
:100200004FF00F0E202F15D00A8816420FD00EFA8D
:1002100007F408FA07F225EA040444EA0205CC7858
:100220001A46282C02D0482C01D1624616600437A9
:100230007600E7E74560BDE8F0818068084018BFB8
:10024000012070471023002A08BF1423C1507047B3
:10025000FEE7FEE770470020002100F0A1BC0A681D
:10026000104308607047204641F2883100F002BD1B
:1002700029460490304638472046802100F095B842
:10028000202000F0DFBC222000F0DCBC262000F0A3
:10029000D9BC70470149FFF7E2BF00BF1C10024004
:1002A0000149FFF7DCBF00BF1810024080B500F025
:1002B0002DF8044904A20968C1F30311515CC84038
:1002C00080BD00BF041002400000000000000000DC
:1002D000010203040607080970B5184E0C460546CE
:1002E000FFF7E4FF3DB13168074AC1F30221515CD9
:1002F00020FA01F1296034B13168034AC1F3C22107
:10030000515CC840206070BD202B00080B49086874
:1003100000F003020A48022A08D10A680B68C2F3F7
:1003200083420232DB0302D4064850437047096817
:100330005043C1F34041C840704700BF0410024021
:1003400000127A0000093D0070B5026802F44152C3
:1003500002604A890B884C790E7B0D7A1A434B88D0
:100360001A430B7922431A43CB881A43036832435A
:100370002A4392B21A430260C989016170BD0268C2
:1003800022F400620260026811430160704700219C
:10039000017341810160416001720721C181704791
:1003A000016841F04001016070478068084018BF53
:1003B00001207047C1607047704700F03BB90000F2
:1003C00081B03148314A016841F001010160416862
:1003D00011402F4A4160016811400160016821F419
:1003E00080210160416821F4FE0141604FF41F014A
:1003F0008160016841F48031016000210091009921
:10040000090B042905D80168890302D40099013138
:10041000F4E70168890330D51E4903230A6842F0D6
:1004200010020A600A6863F302020A60042241684B
:1004300021F0F0014160416821F460514160416860
:1004400062F30A210A224160416841F4803141602F
:10045000416862F395414160016841F0807101603B
:1004600001688901FCD54168022262F30101416003
:10047000416801F00C010829FAD107484FF00061EA
:10048000016001B0704700BF001002400000FFF89B
:10049000FFFFF6FE0020024008ED00E0BCB5044678
:1004A000C0680D464EF6F3112A890840A97A114317
:1004B000AA88114389B208434CF6FF71E0602069B5
:1004C0000840E98808434FF6FF4120616069084011
:1004D000A989084360615248844219BF01A80021DC
:1004E00001A90020FFF7F8FE019919200A4B4843A3
:1004F00029688900B0FBF1F06421B0FBF1F202FB46
:100500000300322303EB0010B0FBF1F000F00F000A
:1005100040EA0210A060BCBD9CFFFF0FC16841F41F
:100520000051C16070470068084018BF0120704743
:10053000426861F3080242607047FEE7B0B5B74D0C
:10054000044628460221FFF730FF0028F9D028464C
:100550002146BDE8B040FFF72DBF00BF10B5AF4C3E
:10056000FFF78AFE0028FBD110BD00BFE0B50420D4
:10057000FFF796FE03480190B34801A9FFF704FE78
:100580008CBD00BF0100032880B5AF480121FFF7F3
:1005900054FE002818BF012080BD00BFE0B5082030
:1005A000FFF77EFE03480190324801A9FFF7ECFDFA
:1005B0008CBD00BF040003802E4804210022FFF7F9
:1005C00041BE00BF0248016881F00401016070472C
:1005D0000C0C014010B586B044F20400FFF760FE39
:1005E0000E480F4C0590A4F5405005A9FFF7CCFD2F
:1005F0004FF4E131002001910821ADF81000ADF871
:100600000C00029020468DF80E1001A9FFF746FF5E
:100610002046FFF783FF06B010BD00BF000203882D
:100620000038014006490A6810440A688242FCD337
:10063000704700BF0248016801310160704700BF88
:10064000200000200B484FF480510022FFF7FABD34
:1006500008484FF480510122FFF7F4BD05484FF4DC
:1006600080410022FFF7EEBD02484FF48041012295
:10067000FFF7E8BD000C014010B50446FFF7EBFDA5
:10068000FFF704FEFFF7EFFDFFF7E5FD242000F084
:10069000D9FAFFF7E8FDBDE8104000F09BBA10B5AD
:1006A0000446FFF7D8FD242000F0CCFAFFF7DBFD6D
:1006B00000F09CFAFFF7CFFDFFF7E8FD204641F27E
:1006C0008831BDE8104000F0D5BA000010B50446EE
:1006D00000F02EFA102000F0B5FA204600F0A0FA43
:1006E00022480021017010BDB0B52048007808B93B
:1006F00000F044FA00F086FA40B9122000F0A2FAA5
:100700000A20FFF78FFF00F07DFA08B10120B0BD8D
:10071000174C0120A047174DC720A8470020A84725
:100720000120A8471120A0470120A8474420A04746
:100730000020A8471820A8474520A047C720A84761
:100740000020A8470020A8470020A8473C20A04739
:100750000520A8471820A0478020A847FFF77BFD69
:1007600000F0F2F9002818BF0120B0BD1C000020E5
:10077000450C0008210C000880B5FFF7B5FF0028E4
:1007800018BF012080BD0000F0B585B00C20FFF738
:1007900087FD2148214C224F049004F5504604ADBA
:1007A00030462946B8474FF400402946ADF81000BE
:1007B00048208DF813003046B8471A4804F55446CF
:1007C000FFF756FD1848FFF753FD1848FFF750FD97
:1007D0004FF48040FFF75EFD6D462846FFF7D7FDDA
:1007E000102029468DF80C004FF4827000904FF4D1
:1007F0004040ADF80A0000208DF808000C48019038
:100800002046FFF7A1FD20460021FFF7B8FD204656
:10081000FFF7C6FD05B0F0BD0001038000380040C1
:10082000890100080040038000A0038800100380B5
:100830000102000280B5D0484FF40041FFF7FDFCF3
:10084000002818BF012080BD00080140B0B5364A1D
:100850000021538A994228BFB0BD0023148AA342C5
:1008600005D2156801FB0454E0540133F6E7013169
:10087000EFE700BF0138013980B289B200F020B83B
:10088000B0B5294C049D20600120A581628262815F
:100890002181E3814D074FEAD10518BF00EBD10557
:1008A00025820BB1B42B02D110460A4600E008465F
:1008B000E280A080B0BD00BF1B490860704700BF48
:1008C00070B5194BDC89B4F5877F09D05A2C0AD052
:1008D000B42C0FD03CBB1C89C943214404460CE016
:1008E0000C46014609E05C89C943C0430C441989A0
:1008F000014402E05C89C04304441E8AA4B201F0B2
:10090000070089B21B686FF080050541744380269B
:1009100004EBD10126FA00F05C5C2043002A08BFFA
:1009200004EA0500585470BD080000202DE9F04F7E
:1009300089B00130039080B20690C01AC82802DD49
:1009400009B0BDE8F08F481C129D1C46082B08908A
:1009500001D1062008E0012061074FEAD40118BF49
:1009600000EBD40160084843610880B2DDF80CA0B8
:10097000B5FA85F64FF0000B0491A2F12001079023
:100980002C4889B201EB4102029100EB4200019236
:100990000590264800EB0110009007991FFA8BF094
:1009A0008142CDD9082C01D1059910E0182C06D030
:1009B000102C0BD00C2CC3D101991D4A03E00299D5
:1009C000194A01EBC10102EB810100E000990844E2
:1009D000089F4FF0000890F80090B8F1070F0FD86B
:1009E0005FEAC9702A46B9B21FFA8AF008BF7209D5
:1009F000FFF740FF08F1010801374FEA5909ECE71A
:100A00000AF1010A082C0BD006991FFA8AF0401A45
:100A10000499884204D10898DDF80CA008300890A9
:100A20000BF1010BB9E700BFC41D0008D417000883
:100A300060130008381100082DE9F04F87B0012538
:100A400001F1010A91464FF000085C074FEAD30418
:100A500018BF05EBD304461C119D53460094B0B259
:100A600004960390B5FA85F700200099029080B2B1
:100A7000884236D20021CDF8048088B248452AD277
:100A8000CDE9051310991FFA88F04FF0000B0C5CAC
:100A9000BBF1070F0ED8E0072A461FFA8AF1B0B261
:100AA00018BF7A09FFF7E6FE0BF1010B0AF1010A04
:100AB0006408EDE70136039908F10108B0B2401A65
:100AC0004845069B08BF0833049808BF06460599A9
:100AD0009A460131D1E7DDF804800298C84401301C
:100AE000C3E707B0BDE8F08F2DE9FC470746C820F3
:100AF000DDF828A01C4615460E464FEA5309A0EB28
:100B000053082A7892B1B8B231462346CDF800A0F6
:100B1000FFF70CFF0135082C04D10637B8B2C22804
:100B2000EFD903E04F44B8B28045EADABDE8FC876C
:100B300080B5FFF7A8FB832000F072F8FFF7A0FB59
:100B4000BDE8804000F05EB880B5FFF79CFBF82060
:100B500000F066F8FFF794FBBDE8804000F052B863
:100B600005484FF480710022FFF76CBB02484FF438
:100B700080710122FFF766BB0008014080B5FFF7D6
:100B8000EFFF3220FFF74EFDFFF7F0FF3220FFF7B7
:100B900049FD02480121017080BD00BF1C000020FA
:100BA000B0B505464E200C4600F04CF8C5F3C70022
:100BB000074DA8474F2000F045F8C4F1C704E0B244
:100BC000A847C4F300202946BDE8B040084700BF4D
:100BD000210C000880B5FFF756FBF42000F020F848
:100BE000FFF74EFBBDE8804000F00CB880B5FFF782
:100BF0004AFBFC2000F014F8FFF742FBBDE8804000
:100C0000AFF3008010B549F64044FFF713FE28B15A
:100C1000012024B1FFF706FD013CF6E7002010BDDE
:100C2000B0B50546FFF70EFD114C29462046FFF7EB
:100C3000C1FBFFF721FB0028FBD1BDE8B040FFF767
:100C400007BD00BFB0B50546FFF708FDFFF7FAFC8A
:100C5000074C29462046FFF7ADFBFFF70DFB0028A8
:100C6000FBD1FFF7F5FCBDE8B040FFF7FDBC00BFCE
:100C700000380040B0B50C460546FFF7E3FC2CB148
:100C800015F8010BFFF75AFC013CF8E7FFF766FC8B
:100C9000BDE8B040FFF7DCBCB0B5074D0446C1B2BB
:100CA0002846FFF745FC28468021FFF73CFC00283A
:100CB000F9D02046B0BD00BF0038014088B000F038
:100CC00027F9FFF76BFCFFF751FCFFF783FC604847
:100CD000604CA0476048A0476048A0476048A047D4
:100CE00060480168604800F031F960A0A047FFF754
:100CF0004BFDFFF7F9FCDFF88881FF25C821C822EA
:100D0000B42300954046FFF7BBFD4046FFF7D4FDF6
:100D1000FF20FFF79BFD5B4E00204421C8224023AB
:100D2000019500240096FFF787FE4046FFF7A4FCDC
:100D30000120FFF7CBFC41F28830FFF773FCFFF78F
:100D40001BFD4046FFF7B8FDFF20FFF77FFD514F29
:100D50004DA20A20002118230094B8474EA20A2071
:100D6000172118230094B8474FA20A2030210C23E2
:100D70000094B84753A20A203C210C230094B847A2
:100D800000208221C8224023CDE90065FFF754FEF0
:100D900053A20A20642110230094B84756480094B7
:100DA0001823039054A0D0E90112C068CDE90412C1
:100DB000069003AD0A2047212A46B8474046FFF770
:100DC0006EFC4FF47A70FFF72DFC504F7B26B6F582
:100DD000767F13D228463946324600F0C7F80A20FB
:100DE00047212A4618230094FFF77EFE4046FFF76E
:100DF00056FC6420FFF716FC7B36E8E742480DF10D
:100E00000C0C90E80E00C06806900020ACE80E00C4
:100E100047211823009003AA0A20FFF765FE18480F
:100E2000FFF73DFC4FF47A70FFF7FCFBFFF7D2FEB3
:100E30000120FFF74BFCFFF7A7FB10B1FFF7BCFB4E
:100E4000F9E76420FFF7EEFBFFF7BCFBF3E700BF19
:100E50008B31000815110008A6310008BE310008CA
:100E60007731000804000020683100084570617087
:100E70006572204D6F64756C6520546573740D0048
:100E800024000020282B0008312E353420496E63C1
:100E900068000000E90A0008457061706572204D25
:100EA0006F64756C6500000044657369676E656406
:100EB0002042792057654163742053747564696FCB
:100EC00000000000776974682032303020782032CA
:100ED0003030207265736F6C7574696F6E0000003E
:100EE00041504D33324631303343425436204578F9
:100EF000616D706C650000003E3E20506172746947
:100F0000616C204D6F646500EC310008DA31000837
:100F10000B484FF47A710068B0FBF1F00138B0F182
:100F2000807F00D3FEE70749F02248600648027040
:100F300000228A6007220A6050210170704700BFBA
:100F40000400002010E000E023ED00E00FB4054BAA
:100F500010B503A9044A029800F02CF810BC5DF803
:100F600014FB0000990C0008000000200FB4084B8F
:100F700010B504A902AA039800F01CF8044602A9BF
:100F8000002000F0C1F8204610BC5DF814FB000002
:100F90000911000802E008C8121F08C1002AFAD18E
:100FA00070477047002001E001C1121F002AFBD1E9
:100FB000704700002DE9FF4F89B09B46044600258D
:100FC00006E025280BD05A460B999047641C6D1CEF
:100FD00020780028F5D10DB02846BDE8F08F002715
:100FE000B8460122474900E0074314F8013F203B7F
:100FF00002FA03F00842F7D120782E2819D114F80C
:10100000010F47F004072A280ED06FF02F02207836
:10101000A0F1300109290CD808EB880102EB41014D
:1010200000EB0108641CF2E70A98641C50F8048B7A
:101030000A9020780028CED0642808D0692806D0ED
:1010400075281ED05A460B9990476D1C58E00A9996
:101050004FF00A0901C90A91002802DA40422D2105
:1010600002E0390504D52B218DF82010012103E081
:10107000F90704D02021F7E78A4608AE0DE00021E9
:10108000FAE70A994FF00A0901C90A91F7E74946B8
:10109000FFF750F8303106F8011D0028F7D1ADEB0D
:1010A000060000F12009780701D44FF00108C84577
:1010B00002DDA8EB090000E000208046002706E0E2
:1010C00008A85A46C05D0B9990476D1C7F1C574578
:1010D000F6DB04E030205A460B9990476D1CB8F1BE
:1010E0000001A8F10108F5DC05E016F8010B5A46ED
:1010F0000B9990476D1CB9F10001A9F10109F4DCCD
:10110000641C65E7092801000A68531C0B60107015
:101110007047000010B5044601E0FFF7BDFD14F86C
:10112000010B04490028F8D1BDE810400A20FFF760
:10113000B3BD00000000002000000000000000001F
:10114000002F000000000700070000147F147F1428
:1011500000242A7F2A1200626408132300364955AE
:10116000225000000503000000001C224100000086
:1011700041221C000014083E08140008083E08081C
:10118000000000A060000008080808080000606077
:101190000000002010080402003E5149453E0000B6
:1011A000427F4000004261514946002141454B3198
:1011B000001814127F10002745454539003C4A4964
:1011C00049300001710905030036494949360006D6
:1011D0004949291E0000363600000000563600003E
:1011E00000081422410000141414141400004122B9
:1011F000140800020151090600324959513E007C91
:101200001211127C007F49494936003E414141227A
:10121000007F4141221C007F49494941007F090963
:101220000901003E4149497A007F0808087F000013
:10123000417F4100002040413F01007F08142241CE
:10124000007F40404040007F020C027F007F040886
:10125000107F003E4141413E007F09090906003EE2
:101260004151215E007F091929460046494949310B
:101270000001017F0101003F4040403F001F20402E
:10128000201F003F4038403F0063140814630007EC
:101290000870080700615149454300007F41410043
:1012A00000552A552A55000041417F0000040201E3
:1012B00002040040404040400000010204000020C1
:1012C00054545478007F48444438003844444420FF
:1012D00000384444487F00385454541800087E09AC
:1012E00001020018A4A4A47C007F08040478000074
:1012F000447D4000004080847D00007F1028440031
:101300000000417F4000007C04180478007C080441
:10131000047800384444443800FC2424241800187D
:10132000242418FC007C0804040800485454542069
:1013300000043F444020003C4040207C001C2040F2
:10134000201C003C4030403C004428102844001C35
:10135000A0A0A07C004464544C441414141414142D
:101360000000000000000000000000000000FC0081
:101370000000000002000000000C020C020000004F
:101380000000000090D0BCD0BC900003000300001F
:101390001824FE448C000302070201001824D8B070
:1013A0004C80000300010201C038E438E000010273
:1013B0000201020208060000000000000000000018
:1013C000000000F80402000000010204000204F81A
:1013D00000000004020100009060F860900000002E
:1013E000010000002020FC2020000000010000007F
:1013F000000000000000080600000000202020205F
:1014000020000000000000000000000000000002BA
:10141000000000000080601C0200040300000000C7
:10142000F8040404F8000102020201000008FC00B4
:101430000000000203020000188444241800030284
:101440000202020008042424D80001020202010062
:1014500040B088FC80000000000302003C242424EB
:10146000C400010202020100F824242CC000010281
:10147000020201000C04E41C040000000300000050
:10148000D8242424D8000102020201003844444434
:10149000F80000030202010000001000000000003C
:1014A0000200000000002000000000000600000014
:1014B00000205088040200000000010290909090EB
:1014C000900000000000000000020488502000028C
:1014D000010000001804C4241800000002000000ED
:1014E000F804E494F80001020202020000E09CF01B
:1014F000800002030000030204FC2424D80002033D
:1015000002020100F80404040C00010202020100BE
:1015100004FC0404F80002030202010004FC247429
:101520000C0002030202030004FC24740C000203FA
:1015300002000000F0080444CC4000010202010057
:1015400004FC2020FC040203000003020404FC0449
:101550000400020203020200000404FC0404060466
:101560000403000004FC24D00C0402030200030264
:1015700004FC04000000020302020203FC3CC03C25
:10158000FC0003000300030004FC30C4FC0402035D
:1015900002000300F8040404F80001020202010042
:1015A00004FC24241800020302000000F8848404D0
:1015B000F80001020207050004FC246498000203FD
:1015C00002000302182424448C00030202020100DA
:1015D0000C04FC040C0000020302000004FC0000E8
:1015E000FC04000102020100047C80E01C040000F5
:1015F000030000001CE03CE01C00000300030000AE
:10160000049C609C0400020300030200041CE01C14
:1016100004000002030200000C84641C04000203A6
:10162000020203000000FE020200000007040400A2
:10163000000E30C00000000000010200000202FEA7
:101640000000000404070000000402040000000081
:10165000000000000000000000000808080808085A
:101660000000020000000000000000000040A0A0F8
:10167000C00000010202030204FC2020C00000039D
:101680000202010000C020206000000102020200EE
:1016900000C02024FC0000010202030200C0A0A040
:1016A000C0000001020202000020F824240400020D
:1016B000030202000040A0A0602000070A0A0A04FA
:1016C00004FC2020C0000203020003020020E4000A
:1016D0000000000203020000000020E400000808EF
:1016E0000807000004FC80E020200203020003023F
:1016F0000404FC000000020203020200E020E020DB
:10170000C00003000300030020E02020C00002030B
:101710000200030200C02020C000000102020100FC
:1017200020E02020C000080F0A02010000C0202095
:10173000E0000001020A0F0820E040202000020320
:10174000020000000060A0A02000000202020300CE
:101750000020F820000000000102020020E000202C
:10176000E00000010202030220E02080602000006F
:10177000030100006080E0806000000300030000BF
:1017800020608060200002030003020020E020802F
:1017900060200808070100000020A060200000026F
:1017A00003020200000020DE020000000007040027
:1017B000000000FF00000000000F00000002DE201B
:1017C00000000004070000000201020404020000FF
:1017D0000000000000000000000000000000000009
:1017E00000000000000000F80000000000000033CE
:1017F0003000000000100C06100C06000000000075
:101800000000000040C07840C0784000043F04045D
:101810003F040400007088FC08300000001820FF1E
:10182000211E0000F008F000E018000000211C0359
:101830001E211E0000F00888700000001E212324D5
:101840001927211010160E000000000000000000F3
:1018500000000000000000E0180402000000000783
:101860001820400000020418E0000000004020188A
:1018700007000000404080F0804040000202010F5D
:1018800001020200000000F0000000000101011F41
:1018900001010100000000000000000080B07000A5
:1018A0000000000000000000000000000001010135
:1018B00001010101000000000000000000303000C4
:1018C000000000000000000080601804006018069E
:1018D0000100000000E010080810E000000F1020D8
:1018E00020100F00001010F8000000000020203F22
:1018F00020200000007008080888700000302824AC
:10190000222130000030088888483000001820204C
:1019100020110E000000C02010F800000007042471
:10192000243F240000F808888808080000192120B6
:1019300020110E0000E0108888180000000F112010
:1019400020110E0000380808C83808000000003FC9
:10195000000000000070880808887000001C222128
:1019600021221C0000E010080810E00000003122D5
:1019700022110F00000000C0C00000000000003075
:1019800030000000000000800000000000008060C7
:101990000000000000008040201008000001020448
:1019A000081020004040404040404000040404042F
:1019B00004040400000810204080000000201008EB
:1019C00004020100007048080808F0000000003020
:1019D00036010000C030C828E810E00007182724AE
:1019E00023140B000000C038E0000000203C23025C
:1019F0000227382008F8888888700000203F2020BF
:101A000020110E00C03008080808380007182020F0
:101A10002010080008F808080810E000203F2020E7
:101A200020100F0008F88888E8081000203F2020C8
:101A30002320180008F88888E8081000203F2000BC
:101A400003000000C03008080838000007182020F4
:101A5000221E020008F808000008F808203F2101B3
:101A600001213F20000808F8080800000020203F5E
:101A70002020000000000808F8080800C0808080CE
:101A80007F00000008F888C028180800203F2001C7
:101A90002638200008F8080000000000203F202021
:101AA0002020300008F8F800F8F80800203F003F38
:101AB000003F200008F830C00008F808203F200050
:101AC00007183F00E01008080810E0000F10202061
:101AD00020100F0008F808080808F000203F210136
:101AE00001010000E01008080810E0000F1824248D
:101AF00038504F0008F8888888887000203F200000
:101B0000030C3020007088080808380000382021B5
:101B100021221C00180808F8080818000000203FBF
:101B20002000000008F808000008F808001F202026
:101B300020201F000878880000C8380800000738F7
:101B40000E010000F80800F80008F800033C070048
:101B5000073C0300081868808068180820302C03B0
:101B6000032C30200838C800C83808000000203F87
:101B70002000000010080808C83808002038262176
:101B800020201800000000FE020202000000007F7A
:101B900040404000000C30C0000000000000000188
:101BA0000638C00000020202FE0000000040404073
:101BB0007F00000000000402020204000000000098
:101BC0000000000000000000000000008080808015
:101BD00080808080000202040000000000000000FD
:101BE0000000000000008080808000000019242296
:101BF00022223F2008F8008080000000003F1120D2
:101C000020110E000000008080800000000E1120D6
:101C100020201100000000808088F800000E1120B4
:101C200020103F200000808080800000001F2222C2
:101C300022221300008080F0888888180020203F2E
:101C4000202000000000808080808000006B949441
:101C50009493600008F8008080800000203F2100FD
:101C600000203F2000809898000000000020203FC6
:101C700020200000000000809898000000C08080B4
:101C8000807F000008F8000080808000203F240250
:101C90002D302000000808F8000000000020203F40
:101CA000202000008080808080808000203F2000F5
:101CB0003F20003F8080008080800000203F210086
:101CC00000203F200000808080800000001F202036
:101CD00020201F00808000808000000080FFA12065
:101CE00020110E000000008080808000000E112076
:101CF00020A0FF80808080008080800020203F2105
:101D000020000100000080808080800000332424B7
:101D100024241900008080E0808000000000001F63
:101D2000202000008080000000808000001F202014
:101D300020103F20808080000080808000010E30D5
:101D40000806010080800080008080800F300C0336
:101D50000C300F0000808000808080000020312E39
:101D60000E312000808080000080808080818E7015
:101D70001806010000808080808080000021302CC7
:101D80002221300000000000807C020200000000E0
:101D9000003F404000000000FF0000000000000085
:101DA000FF0000000002027C800000000040403F75
:101DB000000000000006010102020404000000000F
:101DC0000000000000000000000000000000000013
:101DD0000000000000000000000000000000000003
:101DE00000000000000000000000000000F0F0F023
:101DF000000000000000000000017F010000000062
:101E000000000000001C1C1C00000000000080609E
:101E1000301C8C60301C0C00000000000000000032
:101E200000000000000000000000000000000000B2
:101E3000000000E00000000000E000000086E69FD7
:101E400086868686E69F860000011F01010101014A
:101E50001F010100000080C06020F820E0C00000E9
:101E6000000003070C18FF70E18100000000070F5D
:101E700010107F100F0700008060206080000000BD
:101E8000E02000000F3020309F70DC371030C000A1
:101E90000000100E03000718101807000000C020F3
:101EA00020E0C0000000000080E01F38E88703C485
:101EB0003C040000070F1810100B070D101008004D
:101EC00000808C4C38000000000000000000000082
:101ED0000000000000000000000000000000000002
:101EE0000000000000000000000080E03008040056
:101EF0000000000000FEFF010000000000000000E4
:101F00000000030F1820400000040830E0800000AB
:101F1000000000000000000001FFFE0000000000C3
:101F2000004020180F030000000000000000000027
:101F30000000C00000000000004266663C18FF1868
:101F40003C66664200000000000003000000000044
:101F500000000000000080000000000000101010D1
:101F60001010FF10101010100000000000000300FF
:101F70000000000000000000000000000000000061
:101F800000000000000000000000000000808C4CF9
:101F90003800000000000000000000000000000009
:101FA0000000000000101010101010101010100091
:101FB0000000000000000000000000000000000021
:101FC0000000000000000000000000000000000011
:101FD0000000000000001C1C1C00000000000000AD
:101FE0000000000000000000E0380C0000000000CD
:101FF00080701C03000000000060380E010000002B
:1020000000000000000080C060202060C080000050
:1020100000FEFF010000000001FFFE000001070EAE
:10202000181010180E0701000000808080C0E0002A
:10203000000000000000000000FFFF0000000000A2
:1020400000001010101F1F10101000000080402012
:1020500020202060C0800000000303008040203862
:102060001F070000001C1A1918181818181F000064
:102070000080C020202060C080000000000303001A
:102080001010182FE780000000070F101010101814
:102090000F070000000000000000C0E0F00000009A
:1020A00000C0B088868180FFFF80800000000000B3
:1020B0000010101F1F1010000000E06060606060E2
:1020C0006060000000003F1008080818F0E0000001
:1020D00000070B101010101C0F030000000080C040
:1020E00040202020E0C0000000FCFF21100808086C
:1020F00018F0E0000001070C18101010080F030082
:102100000000C0E06060606060E06000000003000C
:102110000000E0180700000000000000001F1F0082
:10212000000000000080C0602020202060C08000EF
:102130000087EF2C1818303068CF830000070F0895
:1021400010101010180F07000000C0C02020202021
:10215000C0800000001F3F604040402010FFFE0094
:1021600000000C1C101010080F03000000000000FD
:10217000000000000000000000000000000E0E0E35
:102180000000000000000000001C1C1C00000000FB
:10219000000000000000000000000000000000003F
:1021A000000C0C0000000000000000000058380087
:1021B000000000000000000000000080402010002F
:1021C0000000102844820100000000000000000010
:1021D00000000102040810000000000000000000E0
:1021E00000000000008484848484848484848400C7
:1021F00000000000000000000000000000001020AF
:10220000408000000000000000000000000001828B
:102210004428100000001008040201000000000023
:1022200000C020201010101030E0C0000003030098
:1022300000F010080C070300000000001C1C1C002C
:1022400000000000000000C0406020202040C000CE
:1022500000FCFF01F00E03C1FE03807F0001070EAA
:1022600008111110110904020000000080E0E000D4
:10227000000000000000807C4340477FF8800000A1
:1022800010181F1000000000131F1C1020E0E02099
:1022900020202060C080000000FFFF1010101018E8
:1022A0002FE78000101F1F1010101010180F0700CC
:1022B000000080C0402020202060E00000FCFF01E2
:1022C00000000000000001000001070E18101010AF
:1022D0000804030020E0E02020202040C08000000F
:1022E00000FFFF000000000001FFFE00101F1F1094
:1022F000101018080E07010020E0E0202020202008
:102300002060800000FFFF101010107C0000000013
:10231000101F1F10101010101018060020E0E020F1
:10232000202020206060800000FFFF101010107C33
:1023300000000100101F1F1000000000000000003E
:10234000000080C06020202040E0000000FCFF0171
:1023500000004040C0C140400001070E181010109E
:102360000F0F000020E0E0200000000020E0E0204F
:1023700000FFFF101010101010FFFF00101F1F10A3
:1023800000000000101F1F100000202020E0E020AF
:10239000202000000000000000FFFF0000000000FF
:1023A00000001010101F1F1010100000000000008F
:1023B000202020E0E020202000000000000000FF9E
:1023C000FF0000000060E0808080C07F3F000000D0
:1023D00020E0E020000020A06020200000FFFF306F
:1023E000187CE3C000000000101F1F100000011344
:1023F0001F1C181020E0E02000000000000000007A
:1024000000FFFF000000000000000000101F1F1070
:10241000101010101018060020E0E0E0000000008E
:10242000E0E0E02000FF013FFEC0E01E01FFFF00F2
:10243000101F1000031F0300101F1F1020E0E0C03A
:10244000000000000020E02000FF0003071C78E0EF
:102450008000FF00101F100000000000030F1F008D
:10246000000080C060202060C080000000FEFF01EE
:102470000000000000FFFE000001070E18101018F9
:102480000C07010020E0E0202020202060C0800018
:1024900000FFFF2020202020301F0F00101F1F10E2
:1024A0000000000000000000000080C060202060EC
:1024B000C080000000FEFF010000000000FFFE00E1
:1024C0000001070E1111133C7C67210020E0E02081
:1024D0002020202060C0800000FFFF101030F0D0CE
:1024E000080F0700101F1F10000000030F1C101022
:1024F0000080C060202020204040E00000070F0C3A
:102500001818303060E08100001F0C081010101007
:10251000180F07008060202020E0E020202060804D
:102520000100000000FFFF000000000100000000AB
:10253000101F1F100000000020E0E020000000003D
:102540000020E02000FFFF00000000000000FF006E
:1025500000070F1810101010100807002060E0E0AE
:102560002000000020E060200000077FF88000804D
:102570007C03000000000000071F1C070000000093
:1025800020E0E02000E0E0200020E0200007FFF84D
:10259000E01FFFFCE01F00000000031F0300011FFD
:1025A00003000000002060E0A0000020E0602000A8
:1025B000000000038F7CF8C6010000000010181E08
:1025C000130001171F1810002060E0E02000000039
:1025D00020E06020000001073EF8E018070000003E
:1025E00000000010101F1F1010000000008060206D
:1025F000202020A0E0E0200000000000C0F03E0FFE
:102600000300000000101C1F171010101018060007
:102610000000000000FC04040404040000000000AA
:1026200000FF00000000000000000000007F4040AC
:1026300040404000000010E00000000000000000EA
:1026400000000000031C608000000000000000008B
:10265000000000030C70800000000404040404FC6B
:102660000000000000000000000000FF000000006B
:10267000000040404040407F00000000000000108B
:10268000080C040C0810000000000000000000000E
:10269000000000000000000000000000000000003A
:1026A000000000000000000000000000000000002A
:1026B000000000000000000080808080808080801A
:1026C00080808080000000040408080000000000F2
:1026D00000000000000000000000000000000000FA
:1026E00000000000000000000000000000000000EA
:1026F00000000000000098D844642424FCF8000086
:10270000000F1F18101010081F1F10180020E0F0F5
:1027100000000000000000000000FFFF1808040493
:102720000CF8F00000001F0F18101010180F030015
:1027300000000000000000000000000000E0F818A9
:102740000404043C3800000000030F0C10101010AB
:10275000080600000000000000000020E0F000007B
:1027600000E0F81C04040408FFFF000000030F1839
:10277000101010081F0F08000000000000000000EB
:10278000000000000000E0F8484444444C78700029
:102790000000030F0C1810101008040000000000C7
:1027A00080C0602020E0C00000040404FFFF040497
:1027B00004040000000010101F1F10101000000083
:1027C000000000000000000000000000000070F8A1
:1027D0008C04048CF874040C007076CF8D8D8D8978
:1027E000C87870000020E0F0000000000000000049
:1027F0000000FFFF08040404FCF8000000101F1F85
:10280000100000101F1F100000000000006060009A
:10281000000000000000040404FCFC0000000000B4
:1028200000001010101F1F1010100000000000000A
:10283000000000606000000000000000040404FCD0
:10284000FC0000000000C0C08080C07F3F0000008E
:102850000020E0F000000000000000000000FFFF8A
:1028600080C0F41C0404000000101F1F1100031F8F
:102870001C1010000000202020E0F00000000000EC
:102880000000000000FFFF0000000000000010102A
:10289000101F1F10101000000000000000000000BA
:1028A0000000000004FCFC0804FCFC0804FCFC0024
:1028B000101F1F10001F1F10001F1F10000000001E
:1028C00000000000000000000004FCFC08080404F4
:1028D000FCF8000000101F1F100000101F1F100048
:1028E00000000000000000000000000000E0F01800
:1028F0000C04040C18F0E00000030F0C1010101072
:102900000C0F0300000000000000000000000000A9
:102910000004FCFC080404040CF8F0000080FFFF35
:10292000889010101C0F0300000000000000000041
:102930000000000000E0F81C04040408F8FC00009B
:1029400000030F1810109088FFFF800000000000A7
:102950000000000000000000040404FCFC10080457
:10296000040C0C001010101F1F10101000000000AD
:1029700000000000000000000000000000003078AF
:10298000CCC48484840C1C0000001E18101010118C
:10299000190F06000000000000C000000000000049
:1029A00000040404FFFF0404040000000000000011
:1029B0000F1F1010100C00000000000000000000AD
:1029C000000000000004FCFE00000004FCFE00000B
:1029D00000000F1F181010081F0F08000000000053
:1029E000000000000000000000040C3CFCC40000DB
:1029F000C43C0C0400000000010F1E0E010000008A
:102A0000000000000000000000000000043CFCC4C6
:102A100000E47CFC84807C040000071F07000007A2
:102A20001F07000000000000000000000000000080
:102A30000004041C7CE4C0341C0404000010101CBE
:102A40001601131F1C1810000000000000000000F9
:102A50000000000000040C3CFCC400C43C04040062
:102A60000000C080C1370E0100000000000000001F
:102A7000000000000000000000001C0404C4F47CFE
:102A80001C0400000000101C1F17111010180E006D
:102A900000000000000000F80C040000000000002E
:102AA000001028EF00000000000000000000003FC0
:102AB00060400000000000000000FF000000000077
:102AC000000000000000FF00000000000000000007
:102AD0000000FF00000000000000040CF8000000EF
:102AE0000000000000000000EF28100000000000BF
:102AF000000040603F0000000000000000180602D7
:102B0000020408102020300800000000000000002F
:102B100000000000000000000000000000000000B5
:102B2000000000000102030400000000000000009B
:102B30000000000000000000000000000000000095
:102B40000000000000000000000000000000000085
:102B50000000000000000000000000000000000075
:102B60000000000000000000000000000000000065
:102B70000000000000000000000000000000000055
:102B80000000000000000000000000000000000045
:102B90000000000000000000000000000000000035
:102BA0000000000000000000000000000000000025
:102BB0000000000000000000000000000000000015
:102BC0000000000000000000000000000000000005
:102BD00000000000000000000000000000000000F5
:102BE00000000000000000000000000000000000E5
:102BF00000000000000000000000000000000000D5
:102C000000000000000000000000000000000000C4
:102C100000000000000000000000000000000000B4
:102C200000000000000000000000000000000000A4
:102C30000000000000000000000000000000000094
:102C40000000000000000000000000000000000084
:102C50000000000000000000000000000000000074
:102C60000000000000000000000000000000000064
:102C70000000000000000000000000000000000054
:102C80000000000000000000000000000000000044
:102C90000000000000000000000000000000000034
:102CA0000000000000000000000000000000000024
:102CB000000000000000000000000000000020E014
:102CC000E0E0E0C0000000000080E0E0E0E0E000C4
:102CD0000000000000E0E0E0E0E000000000000094
:102CE00000000000000000000000000000000000E4
:102CF000C0E0E0E0E0E0C0000000000000000000F4
:102D0000000000000000000000000000000000C003
:102D1000C0C0C000000000000000000000000080F3
:102D2000C0E0E0E0F0F0F0F0F0F0E0E0C0C0000063
:102D30000000C0C0C0C00000000000000000000093
:102D40000000000000000000000000000000000083
:102D5000000000000000000000F8F8F8F8F800009B
:102D600000F8F8F8F8F8000000000000000000008B
:102D70000000000000000000000000000000000053
:102D80000000000000000007FFFFFFFFF800000048
:102D9000F8FFFFFF7FFFFFFEE0000080FCFFFFFF6A
:102DA0003F0100C0F0F8F8FC7C3C3C3C7CFCF8F8AF
:102DB000F0C000000080F0FEFFFF3F073FFFFFFE76
:102DC000F08000000000C0E0F0F8F8FC7C3C3C7CA7
:102DD0007C7C7838787CFFFFFFFFFF7C7C7C7C006C
:102DE000000000000000007FFFFFFFFFF1E1C0C016
:102DF000C18183030301007878FCFFFFFFFF7C7C27
:102E00007C7C0000FCFCFCFCFC0000000000FCFCE6
:102E1000FCFCFC000000C0F0F8F8FCFC7C3C3C7CB6
:102E200078FFFFFFFFFF000000FCFCFCFCFC000043
:102E300080E0F0F8F8FC7C3C3C3C7CFCF8F8F0E0EE
:102E40008000000000000000000000000000000002
:102E5000001FFFFFFFFEF0FFFFFF1F0100077FFFC6
:102E6000FFFEE0FFFFFFFF0700007FFFFFFFFF9E69
:102E70001E1E1E1E1E1E1F1F1F1F00E0FCFFFFFF49
:102E80003F3D3C3C3C3F3FFFFFFFFCE0007FFFFF3E
:102E9000FFFFC10000000000000000000000FFFF75
:102EA000FFFFFF00000000000000000000000080A5
:102EB000C08101030307070F0F1FFFFFFFFEF8008C
:102EC00000FFFFFFFFFF000000000000FFFFFFFF0B
:102ED000FF0000000000FFFFFFFFFF00007FFFFF7B
:102EE000FFFFC3000000000000FFFFFFFFFF000026
:102EF00000FFFFFFFFFF0000FFFFFFFFFF8100005B
:102F000000000080FFFFFFFFFF0000000000000046
:102F100000000000000000000000031F1F1F1F1F13
:102F20001F010000000000071F1F1F1F1F1F0000C0
:102F300000000003070F0F1F1F1E1E1E1E1E1F1F57
:102F40000E181F1F1F1F07000000000000000001D7
:102F50000F1F1F1F1F1803070F0F1F1F1E1E1E1EF0
:102F60001F1F0F0E0000030F1F1F1F1E1E1E1E1807
:102F7000000000000002070F0F1F1F1F1E1E1E1E55
:102F80001E1F1F0F0F07010000010F1F1F1F1F1E15
:102F90001E1E1C00030F1F1F1F1F1E1E1E1F0F1FA4
:102FA0001F1F1F00000003070F1F1F1F1E1E1E1ED6
:102FB0001F0F1F1F1F1F0000001F1F1F1F1F0000CC
:102FC0000003070F1F1F1F1E1E1E1F1F1F0F0703BB
:102FD00000000000000000000000000000000000F1
:102FE00000000000000000000000000000000000E1
:102FF00000000000000000000000000000000000D1
:1030000000000000000000000000000000000000C0
:1030100000000000000000000000000000000000B0
:1030200000000000000000000000000000000000A0
:103030000000000000000000000000000000000090
:103040000000000000000000000000000000000080
:103050000000000000000000000000000000000070
:103060000000000000000000000000000000000060
:103070000000000000000000000000000000000050
:103080000000000000000000000000000000000040
:103090000000000000000000000000000000000030
:1030A0000000000000000000000000000000000020
:1030B0000000000000000000000000000000000010
:1030C0000000000000000000000000000000000000
:1030D00000000000000000000000000000000000F0
:1030E00000000000000000000000000000000000E0
:1030F00000000000000000000000000000000000D0
:1031000000000000000000000000000000000000BF
:1031100000000000000000000000000000000000AF
:10312000000000000000000000000000000000009F
:10313000000000000000000000000000000000008F
:10314000000000000000000000000000000000007F
:10315000000000000000000000000000000000006F
:10316000000000000000000053797374656D436C2B
:103170006B3A25640D0A00777777772E7765616360
:10318000742D74632E636E0D0A0D000D0A57654190
:1031900063742053747564696F20436F72652042B5
:1031A0006F6172640D00776561637473747564692F
:1031B0006F2E74616F62616F2E636F6D0D007765A6
:1031C00061637473747564696F2E616C696578707E
:1031D000726573732E636F6D0D003E3E204E756DEC
:1031E0003D25642020202020000000003E3E204895
:1031F000656C6C6F20576F726C642E002032000873
:103200000000002008000000940F00082832000889
:1032100008000020A8170000A40F0008000000000C
:083220000000000000D8B80511
:04000005080000FDF2
:00000001FF
