:020000040800F2
:100000001004002011010008350200083102000828
:1000100033020008850100086704000800000000A2
:10002000000000000000000000000000E9020008DD
:1000300087010008000000003F020008EB020008F2
:100040002B0100082B0100082B0100082B010008E0
:100050002B0100082B0100082B0100082B010008D0
:100060002B0100082B0100082B0100082B010008C0
:100070002B0100082B0100082B0100082B010008B0
:100080002B0100082B0100082B0100082B010008A0
:100090002B0100082B0100082B0100082B01000890
:1000A0002B0100082B0100082B0100082B01000880
:1000B0002B0100082B0100082B0100082B01000870
:1000C0002B0100082B0100082B0100082B01000860
:1000D0002B0100082B0100082B0100082B01000850
:1000E0002B0100082B0100082B0100082B01000840
:1000F0002B0100082B0100082B010008DFF80CD0B1
:1001000000F02EF8004800476905000810040020A0
:100110000648804706480047FEE7FEE7FEE7FEE7A1
:10012000FEE7FEE7FEE7FEE7FEE7FEE7F102000876
:10013000FD00000830B50B460146002020220124B6
:1001400009E021FA02F59D4205D303FA02F5491BA5
:1001500004FA02F52844151EA2F10102F1DC30BDBB
:10016000064C074D06E0E06840F0010394E8070004
:1001700098471034AC42F6D3FFF7C4FF34080008A8
:1001800054080008FEE77047F0B5CB7803F00F0283
:100190001B0644BF8B781A430B881C061CD00368CF
:1001A000012400254FF00F0C202D13D00F883C4266
:1001B0000DD00CFA05F602FA05F7B3433B43CF78AE
:1001C000482F03D0282F08BF446100E004610435A4
:1001D0006400E9E703600B88B3F5807F1CD34368B4
:1001E0004FF4807400254FF00F0C202D13D00F8892
:1001F0003C420DD00CFA05F602FA05F7B3433B4337
:10020000CF78482F03D0282F08BF446100E0046155
:1002100004356400E9E74360F0BD8068084018BF1A
:10022000012070471023002A08BF1423C1507047D3
:10023000FEE7FEE770470A681043086070477047A2
:100240000149FFF7F8BF00BF1810024080B500F069
:100250002DF8044904A20968C1F30311515CC84098
:1002600080BD00BF0410024000000000000000003C
:10027000010203040607080970B5184E0C4605462E
:10028000FFF7E4FF3DB13168074AC1F30221515C39
:1002900020FA01F1296034B13168034AC1F3C22167
:1002A000515CC840206070BD2C0800080B490868EC
:1002B00000F003020A48022A08D10A680B68C2F358
:1002C00083420232DB0302D4064850437047096878
:1002D0005043C1F34041C840704700BF0410024082
:1002E00000127A0000093D00704700F023B90000B9
:1002F00081B03148314A016841F001010160416833
:1003000011402F4A4160016811400160016821F4E9
:1003100080210160416821F4FE0141604FF41F011A
:100320008160016841F480310160002100910099F1
:10033000090B042905D80168890302D40099013109
:10034000F4E70168890330D51E4903230A6842F0A7
:1003500010020A600A6863F302020A60042241681C
:1003600021F0F0014160416821F460514160416831
:1003700062F30A210A224160416841F48031416000
:10038000416862F395414160016841F0807101600C
:1003900001688901FCD54168022262F301014160D4
:1003A000416801F00C010829FAD107484FF00061BB
:1003B000016001B0704700BF001002400000FFF86C
:1003C000FFFFF6FE0020024008ED00E0BCB5044649
:1003D000C0680D464EF6F3110840A97A08432989F2
:1003E0000843A98808434CF6FF71E0602069084083
:1003F000E98808434FF6FF41206160690840A989F8
:10040000084360615748844219BF01A8002101A92F
:100410000020FFF731FF019919206FF06303484373
:1004200029688900B0FBF1F06421B0FBF1F202FB16
:100430000300322303EB0010B0FBF1F000F00F00DB
:1004400040EA0210A060BCBDC16841F40051C16027
:1004500070470068084018BF01207047426861F388
:10046000080242607047FEE7E0B50420FFF7E8FEAF
:1004700003480190084801A9FFF786FE8CBD00BF24
:100480000100032880B504480121FFF7C6FE0028BB
:1004900018BF012080BD00BF00080140E0B5082062
:1004A000FFF7CEFE03480190064801A9FFF76CFE56
:1004B0008CBD00BF04000380024804210022FFF726
:1004C000B1BE00BF000C01400248016881F0040188
:1004D000016070470C0C014010B586B044F2040076
:1004E000FFF7AEFE0E481F4C0590A4F5405005A93D
:1004F000FFF74AFE4FF4E131002001910821ADF8E9
:100500001000ADF80C00029020468DF80E1001A9E5
:10051000FFF75CFF2046FFF797FF06B010BD00BF56
:100520000002038806490A6810440A688242FCD324
:10053000704700BF0248016801310160704700BF89
:1005400008000020B0B5074D0446C1B22846FFF7A9
:1005500085FF28468021FFF77CFF0028F9D0204640
:10056000B0BD00BF0038014000F066F8FFF796FF0D
:10057000FFF77AFFFFF7B0FF144C0DA0A04714A0BF
:10058000A04719A0A0471FA0A0472348016823A0A7
:1005900000F070F825A0A047FFF774FF10B1FFF737
:1005A0008BFFF9E76420FFF7BDFFFFF78DFFF3E74F
:1005B0000D0A57654163742053747564696F204355
:1005C0006F726520426F6172640D000009080008B7
:1005D000776561637473747564696F2E74616F629B
:1005E000616F2E636F6D0D00776561637473747551
:1005F00064696F2E616C69657870726573732E63C0
:100600006F6D0D00777777772E77656163742D7442
:10061000632E636E0D0A0D0004000020537973747D
:10062000656D436C6B3A25640D0A000054656D706E
:100630006C6174650D0000000B484FF47A7100681E
:10064000B0FBF1F00138B0F1807F00D3FEE707493D
:10065000F02248600648027000228A6007220A6081
:1006600050210170704700BF0400002010E000E03E
:1006700023ED00E00FB4054B10B503A9044A02981E
:1006800000F018F810BC5DF814FB000045050008E8
:100690000000002002E008C8121F08C1002AFAD199
:1006A00070477047002001E001C1121F002AFBD1F2
:1006B000704700002DE9FF4F89B09B460446002596
:1006C00006E025280BD05A460B999047641C6D1CF8
:1006D00020780028F5D10DB02846BDE8F08F00271E
:1006E000B8460122474900E0074314F8013F203B88
:1006F00002FA03F00842F7D120782E2819D114F815
:10070000010F47F004072A280ED06FF02F0220783F
:10071000A0F1300109290CD808EB880102EB410156
:1007200000EB0108641CF2E70A98641C50F8048B83
:100730000A9020780028CED0642808D0692806D0F6
:1007400075281ED05A460B9990476D1C58E00A999F
:100750004FF00A0901C90A91002802DA40422D210E
:1007600002E0390504D52B218DF82010012103E08A
:10077000F90704D02021F7E78A4608AE0DE00021F2
:10078000FAE70A994FF00A0901C90A91F7E74946C1
:10079000FFF7D0FC303106F8011D0028F7D1ADEB92
:1007A000060000F12009780701D44FF00108C84580
:1007B00002DDA8EB090000E000208046002706E0EB
:1007C00008A85A46C05D0B9990476D1C7F1C574581
:1007D000F6DB04E030205A460B9990476D1CB8F1C7
:1007E0000001A8F10108F5DC05E016F8010B5A46F6
:1007F0000B9990476D1CB9F10001A9F10109F4DCD6
:10080000641C65E70928010010B5044601E0FFF704
:1008100099FE14F8010B04490028F8D1BDE81040F6
:100820000A20FFF78FBE000000000020000000003B
:10083000010203045808000800000020080000001E
:100840009406000860080008080000200804000062
:10085000A4060008000000000000000000D8B80551
:04000005080000FDF2
:00000001FF
