:020000040800F2
:10000000C8130020190100089D010008950100088F
:10001000990100088D0100089D0200080000000001
:10002000000000000000000000000000B501000812
:100030009101000800000000B1010008E50100087E
:1000400033010008330100083301000833010008C0
:1000500033010008330100083301000833010008B0
:1000600033010008330100083301000833010008A0
:100070003301000833010008330100083301000890
:100080003301000833010008330100083301000880
:100090003301000833010008330100083301000870
:1000A0003301000833010008330100083301000860
:1000B0003301000833010008330100083301000850
:1000C0003301000833010008330100083301000840
:1000D0003301000833010008330100083301000830
:1000E000330100083301000833010008000000005C
:1000F0000000000000000000000000000000000000
:1001000033010008DFF80CD000F02EF8004800475B
:10011000810E0008C81300200648804706480047A3
:10012000FEE7FEE7FEE7FEE7FEE7FEE7FEE7FEE7A7
:10013000FEE7FEE7ED0100080501000830B50B46BB
:10014000014600202022012409E021FA02F59D4207
:1001500005D303FA02F5491B04FA02F52844151EDB
:10016000A2F10102F1DC30BD064C074D06E0E0686B
:1001700040F0010394E8070098471034AC42F6D3EE
:10018000FFF7C4FFF041000810420008FEE700003E
:1001900070470000FEE70000FEE700007047000027
:1001A0004EF623510001CEF20001087070470000A6
:1001B0007047000070470000B0B501380024B4EB70
:1001C000106F1CBF0120B0BD4EF21005CEF200052D
:1001D00068600F20FFF7E4FF0720AC60286020462E
:1001E000B0BD000080B500F017F980BD80B582B0C9
:1001F00041F20000C4F20200016841F00101016017
:1002000001688907FCD5416841F080014160002107
:100210000191019A4F2A05D8019A01320192019A5F
:10022000502AF9D3426842F090024260019101994C
:100230004F2905D801990131019101995029F9D32C
:1002400041684FF6FF7221F0030141600168CFF66B
:10025000F6621140016041680C23CEF6FF0319409D
:10026000416001684FF6FF73114001600168CFF2F1
:10027000007321F4802101604168194041600168E8
:10028000114001604FF41F01816001F095F84FF0BB
:100290000060002100F056FF02B080BDFEE70000C4
:1002A000B0B543F600050446C4F200052846022115
:1002B00001F00CF80028F9D02846214600F0E0FFB4
:1002C000B0BD000010B543F60004C4F2000400BF46
:1002D0002046802100F0FAFF0028F9D110BD00006F
:1002E00080B540F2026000F095FF4FF4C06000F06E
:1002F00091FF40F60000C4F20100282103220123EF
:1003000000F024FD80BD000080B540F60000C4F27E
:100310000100012100F070FD80BD0000B0B540F289
:10032000036000F077FF40F60044C4F20104204669
:10033000102103220423042500F008FD6561B0BDEF
:1003400040F61440C4F2010004210160704700002F
:1003500010B540F60044C4F201042046042100F028
:100360004BFDC0F10100C2B22046042100F0E8FCC0
:1003700010BD0000B0B540F2026000F04BFF40F24B
:100380000E6000F047FF43F60004C4F20104A4F538
:1003900040552846182103224FF4007300F0D6FC84
:1003A0002846042103224FF4806300F0CFFC20464E
:1003B00001F05CF820464FF4E13101F01DF82046D1
:1003C000002101F0C5F82046002101F0B3F82046D5
:1003D000002101F0A1F82046002101F097F8204605
:1003E000002101F08DF82046042101F09DF82046FF
:1003F000082101F0A7F8204601F074F8B0BD000014
:1004000010B5044600F0F2FF044400BF00F0EEFF18
:10041000A042FBD310BD000040F22000C2F2000059
:10042000016801310160704780B540F60040C4F2B8
:1004300001004FF48051002200F082FC80BD0000DA
:1004400080B540F60040C4F201004FF48051012213
:1004500000F076FC80BD000080B540F60040C4F29C
:1004600001004FF48041002200F06AFC80BD0000D2
:1004700080B540F60040C4F201004FF480410122F3
:1004800000F05EFC80BD000080B5FFF7B9FF80BDC5
:1004900010B504460020002100F0AAFB262000F041
:1004A00009FC20464FF47A6100F024FC0020002172
:1004B00000F09EFB242000F0FDFB20464FF47A6103
:1004C00000F018FC00F0ACFB10BD000010B50446B5
:1004D0000020002100F08CFB242000F0EBFB2046E4
:1004E0004FF47A6100F006FC00F0A8FB0020002128
:1004F00000F07EFB262000F0DDFB20464FF47A6101
:1005000000F0F8FB10BD000010B50446102000F00C
:10051000D1FB204600F0B2FB40F21C00C2F200000A
:100520000021017010BD000080B540F21C00C2F235
:1005300000000078002808BF00F048FB00F08CFBAA
:1005400028B9122000F0B6FB00F086FB08B10120AC
:1005500080BD012000F0AEFB272000F08FFB0120C2
:1005600000F08CFB012000F089FB112000F0A2FBC1
:10057000012000F083FB442000F09CFB002000F0F1
:100580007DFB0F2000F07AFB452000F093FB272035
:1005900000F074FB012000F071FB002000F06EFB06
:1005A000002000F06BFB3C2000F084FB052000F0F5
:1005B00065FB212000F07EFB002000F05FFB802027
:1005C00000F05CFB182000F075FB802000F056FB6B
:1005D0004E2000F06FFB002000F050FB4F2000F099
:1005E00069FB272000F04AFB012000F047FB00F0E8
:1005F00033FB002818BF012080BD0000B0B5FFF715
:1006000093FF00281CBF0120B0BD322000F052FB38
:10061000FFF70AFF44F25510C0F60000441E99256A
:1006200014F8010FFFF73CFE013DF9D1FFF74AFE38
:10063000FFF706FF0020B0BDF0B587B040F20260C2
:1006400000F0E8FD40F2036000F0E4FD4FF4C0600C
:1006500000F0E0FD43F60004C4F2000404F5504548
:100660002846102103224FF48073032600F06EFB0E
:100670002846482103224FF4004300F067FB04F5AD
:1006800054452846102103224FF4804300F05EFBBE
:100690002846182103224FF42043182700F056FB68
:1006A0002846102103224FF4805300F04FFB40F204
:1006B0000E7000F0AFFD204600F0E4FD6D462846C8
:1006C00000F024FE4FF4404001904FF482700090FF
:1006D00000204FF400710290CDE903102046294616
:1006E0000596069700F0F8FD204600F0C3FD07B020
:1006F000F0BD000080B540F60000C4F201004FF4E8
:10070000004100F079FB002818BF012080BD0000E7
:1007100080B540F2080CC2F2000CBCF8121000299F
:1007200008BF80BD4FF0000E06E000BFBCF81210FD
:100730000EF1010E8E4512D2BCF81030002BF5D010
:100740004FF0FF31DCF800200EFB03220A4450700A
:10075000BCF810308A1C01319A42F3D3E6E780BD21
:100760002DE9F04F85B006461046B2EB060B0F465A
:10077000049248BFCBF1000BD81B80EAE07102461F
:1007800048BF4242C1EBE07904984FF0FF31B042DC
:100790004FF0FF38ABEB020A88BF4FF00108184654
:1007A0000293BB4288BF01210191039203E000BF85
:1007B000BBEB4A0F11DAB4B2BDB20E9A20462946FD
:1007C00000F016F8B9EB4A0FF2DC049884420BD023
:1007D00003984644AAEB000AEAE70298854203D050
:1007E0000198DA440744E6E705B0BDE8F08F000061
:1007F00080B50138013980B289B200F06FF880BD50
:100800002DE9F04182B00F46DDE908811C4615460E
:10081000064681B1A7420BD2B9B230462A460B46F2
:10082000CDF80080FFF79CFF0137B8B2A042F3D3A8
:1008300002B0BDE8F081304639462A463B46CDF845
:100840000080FFF78DFF3046394632462346CDF80B
:100850000080FFF785FF284621462A463B46CDF813
:100860000080FFF77DFF2846214632462346CDF81B
:100870000080FFF775FF02B0BDE8F08110B540F2CF
:10088000080CDDF808E0C2F2000CCCF80000C80843
:100890004C07ACF80810ACF80A20ACF80CE04FF0AC
:1008A000010E18BF0EEBD100ACF81000ACF812200E
:1008B000ACF80E302BB1B42B12BF084610460A46D6
:1008C00001E010460A46ACF80400ACF8062010BD62
:1008D00040F20801C2F200010860704710B540F212
:1008E000080CC2F2000CBCF80E30B32B0BDC93B139
:1008F0005A2B36D1BCF80830C0431844BCF80A3033
:10090000C9435C1813E0B42B0CD0B3F5877F0C46B9
:1009100018BF10BD0BE0BCF808E0C94304460EEB5D
:10092000010004E0BCF80A30C0431C180846BCF8BB
:100930001030A4B281B26343DCF800C003EBD10EE7
:100940001CF80E3000F007008024C4401C436FF0F8
:10095000800141FA00F0002A08BF03EA00040CF805
:100960000E4010BD2DE9F04F87B00130039080B2EA
:100970000290C01AFA2800F38380082B02D10624C3
:1009800064B97DE0D8085F074FF0010618BF06EB99
:10099000D3005F08784384B2002C71D04E1C109DA8
:1009A000A2F1200041F6E85182B25808C0F60001D9
:1009B000DDF80C90B5FA85F70190002001EB0211EB
:1009C0004FF0000804920091CDE9054312E000BF0A
:1009D00002991FFA89F0401A019926468842039825
:1009E00004BF81460836059908F101081FFA88F00E
:1009F000814245D9082B09D1049941F24C7201EB8F
:100A00004101C0F6000202EB410119E0182B0BD0A6
:100A1000102B13D00C2B33D1049941F6741201EB37
:100A20004101C0F6000206E0049942F2D83201EB1F
:100A3000C101C0F6000202EB810101E0009900BF94
:100A4000084490F800A04FF0000B34465FEACA70EB
:100A50002A461FFA89F0B1B208BF7A09FFF7C8FE2B
:100A60004FEA5A0A0136BBF1070F0BF1010BEDD328
:100A7000069B09F10109082BAAD105992646B3E77F
:100A800007B0BDE8F08F00002DE9F04F87B0DE0819
:100A90005F0705924FF0010218BF02EBD306002E4C
:100AA000009653D0119E00F1010A4A1CB6FA86F551
:100AB0001FFA8AF000234FF0000B17460390CDF881
:100AC00010A004E00133009998B288423ED2059804
:100AD0000028F7D04FF000080293CDF804B000BF13
:100AE00010991FFA8BF00C5C4FF00009069200BFC2
:100AF000E00732461FFA8AF0B9B218BF6A09FFF759
:100B000077FE64080137B9F1070F09F10109EFD346
:100B10000AF1010A03991FFA8AF0401A059908F1AF
:100B200001088842049808BF8246069A1FFA88F096
:100B30000BF1010B08BF083288421746D0D3059845
:100B4000DDF804B0029B83441746BBE707B0BDE85D
:100B5000F08F00002DE9F04381B099461378CBB1B6
:100B6000DDF820800D4606464FEA5907541EB9F1BC
:100B7000080F08BF062700BFB0B2DAB229464B46BD
:100B8000CDF80080FFF7EEFEA3783E44002B04F181
:100B90000104F1D101B0BDE8F083000080B540F65A
:100BA0000000C4F201004FF48071002200F0C8F888
:100BB00080BD000080B540F60000C4F201004FF493
:100BC0008071012200F0BCF880BD000080B5FFF705
:100BD000E5FF3220FFF758FCFFF7ECFF3220FFF76C
:100BE00053FC40F21C00C2F200000121017080BDE4
:100BF000B0B5044640F22710451A4E2000F05AF8CE
:100C0000C4F3C70000F03AF84F2000F053F8E8B200
:100C100000F034F8C5F3002000F030F8B0BD00005B
:100C200080B5222000F046F8F72000F027F82020B9
:100C300000F040F800F010F880BD000080B52220E0
:100C400000F038F8CC2000F019F8202000F032F83D
:100C500000F002F880BD000010B5FFF74BFD58B161
:100C600049F641440120013C08BF10BDFFF70CFCD0
:100C7000FFF740FD0028F5D1002010BDB0B543F6C8
:100C800000040546C4F20004FFF7CEFB20462946C7
:100C900000F0F6FA2046022100F018FB0028F9D0F7
:100CA0002046802100F012FB0028F9D1FFF7C8FB95
:100CB000B0BD0000B0B543F600040546C4F2000420
:100CC000FFF7CAFBFFF7B0FB2046294600F0D8FA31
:100CD0002046022100F0FAFA0028F9D020468021AF
:100CE00000F0F4FA0028F9D1FFF7AAFBFFF7C0FBE8
:100CF000B0BD0000B0B50C460546FFF795FB3CB112
:100D0000013D00BF15F8010FFFF7CAFA013CF9D108
:100D1000FFF7D8FAFFF794FBB0BD0000B0B543F67B
:100D20000005C4F201050446C1B2284600F09AFB52
:100D30002846072100F0DCFB0028F9D02046B0BD92
:100D40001023002A08BF1423195070472DE9F047DB
:100D5000CF0601F00F0C00F1100E00F1140A4FF055
:100D600000044FF001094FF00F084FF0000748BF93
:100D70004CEA020C0EE000BF166008FA04F225EA05
:100D800002020CFA04F52A4302600137082F04F12D
:100D900004040CD009FA07F212EA0306F5D005683C
:100DA00028295246E8D04829E7D17246E4E70824CA
:100DB00000254FF001094FF00F080FE0176008FA07
:100DC00005F226EA02020CFA05F6324342600134CB
:100DD000102C05F1040508BFBDE8F08709FA04F2FC
:100DE00012EA0307F3D0466828295246E6D048297C
:100DF000E5D17246E2E700008068084018BF012094
:100E000070470000B0B50422C4F20102134602F19B
:100E1000180E002848BF73461C6800F44013B3F551
:100E2000401F1FFA80FC06D1156824F0706325F07E
:100E30007064146015E0C3020AD46FF00F0303EA74
:100E400050430CFA03F324EA030343F0706308E011
:100E5000C0F30343032505FA03F324EA030343F035
:100E600070636FF00F0404EA504400290CFA04F593
:100E700018BF2B43002848BF72461360B0BD000066
:100E800088B000F09DFA40F20020C0F2300001214D
:100E90000125FFF7B7FFFFF741FAFFF721FAFFF748
:100EA00069FA44F2F700C0F6000000F03DFC44F29D
:100EB0001210C0F6000000F037FC44F22A10C0F611
:100EC000000000F031FC44F2E300C0F6000000F046
:100ED0002BFC40F20400C2F20000016844F2D4008E
:100EE000C0F6000000F03CFB012000F039F901469B
:100EF00070A000F035FB022000F032F9014671A02D
:100F000000F02EFB032000F02BF9014671A000F049
:100F100027FB74A000F008FCFFF78EFBFFF704FB33
:100F200040F22408C2F20008FF2440467A21FA2247
:100F3000B4230094FFF7A2FC4046FFF7C9FCFF2052
:100F4000FFF7E6FB43F23410C0F60000CDE90004E1
:100F500000200021FA227A230024FFF795FD404665
:100F6000FFF796FA0120FFF7CFFA41F28830FFF73A
:100F700047FAFFF743FB4046FFF7AAFCFF20FFF7C5
:100F8000C7FB5DA20A20002118230094FFF7E2FDB1
:100F90005EA20A20322110230094FFF7DBFD62A23B
:100FA0000A201D2110230094FFF7D4FD0A20672199
:100FB000F022742300940195FFF722FC46F26F4063
:100FC000C0F26500069046F66140C4F620500590D8
:100FD00047F26120C6F67410049043F63E60C5F2F5
:100FE000200003AD03900A2047212A4618230094CD
:100FF000FFF7B0FD4046FFF769FA4FF47A70FFF74C
:10100000FFF944F246177B26C0F60007284639460A
:10101000324600F0B5FA0A2047212A4618230094E8
:10102000FFF798FD4046FFF751FA6420FFF7E8F913
:10103000B6F5577F06F17B06E8D946F26C40C0F260
:101040002E00069045F22070C7F26F20059046F6FC
:101050006540C6F66C70049043F63E60C4F620000E
:101060000390002703AA0A20472118230097FFF7BF
:1010700071FD40F22400C2F20000FFF727FA4FF49E
:101080007A70FFF7BDF9FFF7CBFD0120FFF73CFABF
:1010900000F0ACF9044601E0FFF752F900F0A6F9C0
:1010A0008442FBD86434FFF72FF90028F4D1FFF70E
:1010B0004FF9F3E7434B5F414842206973202564B1
:1010C0000D0A0000434B5F415042312069732025D7
:1010D000640D0A00434B5F41504232206973202562
:1010E000640D0A00457061706572204D6F64756C07
:1010F0006520546573740D00322E313320457061C4
:10110000706572204D6F64756C6500007769746856
:1011100020323530207820313232207265736F6C86
:101120007574696F6E00000044657369676E65646D
:101130002042792057654163742053747564696F48
:10114000000000004FF68072C1F6FF7211400843A4
:101150004EF60851CEF200010860BFF34F8F704782
:1011600010B541F20402C4F202021368014603F012
:101170000C00082841F20020C0F27A0019D113684F
:1011800040F6001CDB03C0F23D0C03D513689B0343
:1011900058BF844610681368C0F3834E102000EADD
:1011A000D350704401230F2838BF0223184400FB9A
:1011B0000CF01368D2F800C0146803290DD8C3F3EB
:1011C00003130EA2D25C0FF2440E20FA02F3DFE802
:1011D00001F01302060D184610BD002010BDCCF31F
:1011E00002201EF8000023FA00F010BDC4F3C22054
:1011F0001EF8000023FA00F010BD00BF0000000040
:1012000000000000010203040607080900000000B6
:101210000102030441F2000300F01F018009C4F23F
:1012200002034FF0010CC2580CFA01F11143C150F6
:101230007047000041F2000300F01F018009C4F272
:1012400002034FF0010CC2580CFA01F122EA01012D
:10125000C150704741F2000300F01F018009C4F241
:1012600002034FF0010CC2580CFA01F11143C150B6
:1012700070470000016841F04001016070470000C4
:10128000C160704710B543F20001C4F20101884209
:101290000FD043F60041C4F2000188420CD043F65F
:1012A0000001C4F20001884218BF10BD40F20E4494
:1012B00004E04FF4437401E040F20F442046FFF78E
:1012C000C9FF2046FFF7B6FF10BD00008068084048
:1012D00018BF01207047000070B50268D1E902E430
:1012E00002F4415CD1E90032D1E9045643EA0C032F
:1012F0001A4342EA0E02224389692A4332431143C8
:101300000160C16921F40061C16170BD0021C0E9C3
:101310000511C0E90011C0E90211704741F2040053
:10132000C4F2020050F8041C41F4803140F8041C5F
:101330004FF6FE7150F8043C4A1E8A4203D213F461
:1013400000311146F6D050F8041C890301D400BFC7
:10135000FEE701684FF6FF7201600168CFF2C372C9
:101360000160016841F480610160016821F440314D
:101370000160016841F44031016001681140016081
:10138000016841F0006141F42011016050F8041C33
:1013900041F0807140F8041C50F8041C8901FBD511
:1013A000016821F003010160016841F00201016060
:1013B00001680907FCD5704780B5FFF7AFFF80BD16
:1013C00080B540F20400C2F20000006844F6D35138
:1013D000C1F26201A0FB01018809FEF7EDFE00B138
:1013E000FEE70520FEF7DCFE80BD000040F2200095
:1013F000C2F2000000687047B0B5044644F6FF3002
:10140000C4F200000D4684424FF0000013DD44F6A4
:101410000041C4F200018C4219D045F20001C4F22F
:1014200000018C4213D043F60001C4F201018C424A
:1014300010D103200CE044F20041C4F200018C42C0
:1014400005D044F60001C4F200018C4202D1022012
:10145000FFF786FE00EB5500B0FBF5F080B2A06010
:10146000B0BD00006FF35F214160704710B544F6D6
:10147000FF31C4F20001884215DD44F60041C4F298
:10148000000188421ED045F20001C4F200018842EA
:101490001BD043F60001C4F20101884218BF10BD01
:1014A00040F20E3416E044F20041C4F200018842DA
:1014B0000ED044F60001C4F20001884210D140F27F
:1014C000124407E040F2134404E040F2144401E007
:1014D00040F211442046FFF7BDFE2046FFF7AAFE6A
:1014E00010BD0000C16841F40051C16070470000A8
:1014F0008A09105801F01F01C84000F00100704730
:10150000426922F40072114341617047426922F43A
:101510008072114341617047C26822F4C062C260A8
:10152000C2681143C1607047C26822F004021143CF
:10153000C1607047026922F440520261026911439E
:1015400001617047C26822F008021143C160704710
:10155000C26822F48052C260C2681143C160704701
:101560000FB4054B10B503A9044A029800F02CF8FB
:1015700010BC5DF814FB00001D0D000800000020E9
:101580000FB4084B10B504A902AA039800F01CF888
:10159000044602A9002000F0C1F8204610BC5DF806
:1015A00014FB00001D17000802E008C8121F08C144
:1015B000002AFAD170477047002001E001C1121FD4
:1015C000002AFBD1704700002DE9FF4F89B09B46F0
:1015D0000446002506E025280BD05A460B99904773
:1015E000641C6D1C20780028F5D10DB02846BDE89C
:1015F000F08F0027B8460122474900E0074314F85E
:10160000013F203B02FA03F00842F7D120782E2850
:1016100019D114F8010F47F004072A280ED06FF0F3
:101620002F022078A0F1300109290CD808EB88019D
:1016300002EB410100EB0108641CF2E70A98641C0C
:1016400050F8048B0A9020780028CED0642808D067
:10165000692806D075281ED05A460B9990476D1CF4
:1016600058E00A994FF00A0901C90A91002802DAE4
:1016700040422D2102E0390504D52B218DF82010A0
:10168000012103E0F90704D02021F7E78A4608AEDC
:101690000DE00021FAE70A994FF00A0901C90A9101
:1016A000F7E74946FEF74AFD303106F8011D0028EC
:1016B000F7D1ADEB060000F12009780701D44FF017
:1016C0000108C84502DDA8EB090000E000208046C3
:1016D000002706E008A85A46C05D0B9990476D1C8C
:1016E0007F1C5745F6DB04E030205A460B999047A3
:1016F0006D1CB8F10001A8F10108F5DC05E016F851
:10170000010B5A460B9990476D1CB9F10001A9F1E4
:101710000109F4DC641C65E7092801000A68531C10
:101720000B6010707047000010B5044601E0FFF731
:10173000F5FA14F8010B04490028F8D1BDE810406F
:101740000A20FFF7EBBA00000000002000000000B4
:1017500000000000002F0000000007000700001438
:101760007F147F1400242A7F2A1200626408132346
:1017700000364955225000000503000000001C22DD
:101780004100000041221C000014083E081400081B
:10179000083E0808000000A06000000808080808CB
:1017A000000060600000002010080402003E514963
:1017B000453E0000427F4000004261514946002101
:1017C00041454B31001814127F100027454545391B
:1017D000003C4A4949300001710905030036494976
:1017E000493600064949291E00003636000000002F
:1017F000563600000008142241000014141414147A
:101800000000412214080002015109060032495922
:10181000513E007C1211127C007F49494936003E3E
:1018200041414122007F4141221C007F49494941F9
:10183000007F09090901003E4149497A007F0808F3
:10184000087F0000417F4100002040413F01007FB0
:1018500008142241007F40404040007F020C027F7C
:10186000007F0408107F003E4141413E007F09098E
:101870000906003E4151215E007F091929460046B4
:10188000494949310001017F0101003F4040403F8B
:10189000001F2040201F003F4038403F00631408D5
:1018A00014630007087008070061514945430000B0
:1018B0007F41410000552A552A55000041417F00D3
:1018C00000040201020400404040404000000102C8
:1018D0000400002054545478007F484444380038B1
:1018E0004444442000384444487F00385454541839
:1018F00000087E0901020018A4A4A47C007F08044B
:1019000004780000447D4000004080847D00007F1A
:10191000102844000000417F4000007C0418047837
:10192000007C0804047800384444443800FC242433
:1019300024180018242418FC007C0804040800481B
:101940005454542000043F444020003C4040207C3C
:10195000001C2040201C003C4030403C004428102B
:101960002844001CA0A0A07C004464544C441414DF
:101970001414141400000000000000000000000017
:101980000000FC000000000002000000000C020C3F
:10199000020000000000000090D0BCD0BC9000030A
:1019A000000300001824FE448C000302070201001B
:1019B0001824D8B04C80000300010201C038E4387C
:1019C000E00001020201020208060000000000001F
:1019D00000000000000000F8040200000001020402
:1019E000000204F800000004020100009060F860AA
:1019F00090000000010000002020FC2020000000DA
:101A000001000000000000000000080600000000C7
:101A10002020202020000000000000000000000026
:101A200000000002000000000080601C02000403AF
:101A300000000000F8040404F800010202020100A2
:101A40000008FC0000000002030200001884442487
:101A5000180003020202020008042424D800010234
:101A60000202010040B088FC800000000003020078
:101A70003C242424C400010202020100F824242C86
:101A8000C0000102020201000C04E41C040000007A
:101A900003000000D8242424D8000102020201001F
:101AA00038444444F8000003020201000000100022
:101AB0000000000002000000000020000000000004
:101AC000060000000020508804020000000001020F
:101AD00090909090900000000000000000020488A8
:101AE00050200002010000001804C4241800000067
:101AF00002000000F804E494F8000102020202006F
:101B000000E09CF0800002030000030204FC242497
:101B1000D800020302020100F80404040C000102D0
:101B20000202010004FC0404F800020302020100A6
:101B300004FC24740C0002030202030004FC24745D
:101B40000C00020302000000F0080444CC40000135
:101B50000202010004FC2020FC0402030000030236
:101B60000404FC040400020203020200000404FC5A
:101B7000040406040403000004FC24D00C04020343
:101B80000200030204FC040000000203020202033C
:101B9000FC3CC03CFC0003000300030004FC30C418
:101BA000FC04020302000300F8040404F80001022C
:101BB0000202010004FC24241800020302000000B9
:101BC000F8848404F80001020207050004FC246480
:101BD0009800020302000302182424448C0003022C
:101BE000020201000C04FC040C00000203020000CD
:101BF00004FC0000FC04000102020100047C80E0FF
:101C00001C040000030000001CE03CE01C0000037A
:101C100000030000049C609C040002030003020017
:101C2000041CE01C04000002030200000C84641C7D
:101C300004000203020203000000FE020200000092
:101C400007040400000E30C0000000000001020084
:101C5000000202FE00000004040700000004020469
:101C60000000000000000000000000000000080864
:101C70000808080800000200000000000000000042
:101C80000040A0A0C00000010202030204FC2020CA
:101C9000C00000030202010000C02020600000011B
:101CA0000202020000C02024FC0000010202030224
:101CB00000C0A0A0C0000001020202000020F82421
:101CC00024040002030202000040A0A060200007DC
:101CD0000A0A0A0404FC2020C000020302000302D6
:101CE0000020E4000000000203020000000020E4E5
:101CF000000008080807000004FC80E02020020320
:101D0000020003020404FC000000020203020200BD
:101D1000E020E020C00003000300030020E02020BA
:101D2000C00002030200030200C02020C000000126
:101D30000202010020E02020C000080F0A0201007A
:101D400000C02020E0000001020A0F0820E040202F
:101D500020000203020000000060A0A0200000029A
:101D6000020203000020F82000000000010202002F
:101D700020E00020E00000010202030220E02080B9
:101D800060200000030100006080E080600000032C
:101D900000030000206080602000020300030200B6
:101DA00020E0208060200808070100000020A060DB
:101DB0002000000203020200000020DE02000000FA
:101DC00000070400000000FF00000000000F0000FA
:101DD0000002DE20000000040700000002010204EF
:101DE00004020000000000000000000000000000ED
:101DF0000000000000000000000000F800000000EB
:101E0000000000333000000000100C06100C06002B
:101E1000000000000000000040C07840C078400092
:101E2000043F04043F040400007088FC08300000F4
:101E3000001820FF211E0000F008F000E01800004C
:101E400000211C031E211E0000F008887000000005
:101E50001E2123241927211010160E000000000057
:101E60000000000000000000000000E01804020074
:101E7000000000071820400000020418E0000000E5
:101E80000040201807000000404080F080404000E3
:101E90000202010F01020200000000F00000000039
:101EA0000101011F0101010000000000000000000D
:101EB00080B0700000000000000000000000000082
:101EC000000101010101010100000000000000000B
:101ED00000303000000000000000000080601804A6
:101EE000006018060100000000E010080810E00083
:101EF000000F102020100F00001010F8000000004C
:101F00000020203F20200000007008080888700092
:101F10000030282422213000003008888848300012
:101F20000018202020110E000000C02010F8000032
:101F300000070424243F240000F8088888080800CB
:101F40000019212020110E0000E0108888180000E0
:101F5000000F112020110E0000380808C8380800B2
:101F60000000003F00000000007088080888700032
:101F7000001C222121221C0000E010080810E000B3
:101F80000000312222110F00000000C0C00000003C
:101F90000000003030000000000000800000000061
:101FA0000000806000000000000080402010080059
:101FB0000001020408102000404040404040400022
:101FC00004040404040404000008102040800000FD
:101FD0000020100804020100007048080808F00002
:101FE0000000003036010000C030C828E810E000D2
:101FF0000718272423140B000000C038E00000005D
:10200000203C23020227382008F8888888700000C6
:10201000203F202020110E00C0300808080838009A
:10202000071820202010080008F808080810E00011
:10203000203F202020100F0008F88888E8081000B2
:10204000203F20202320180008F88888E808100086
:10205000203F200003000000C030080808380000BE
:1020600007182020221E020008F808000008F808BF
:10207000203F210101213F20000808F80808000046
:102080000020203F2020000000000808F808080079
:10209000C08080807F00000008F888C028180800F1
:1020A000203F20012638200008F80800000000002A
:1020B000203F20202020300008F8F800F8F8080021
:1020C000203F003F003F200008F830C00008F8081B
:1020D000203F200007183F00E01008080810E0002B
:1020E0000F10202020100F0008F808080808F00042
:1020F000203F210101010000E01008080810E00065
:102100000F18242438504F0008F8888888887000F9
:10211000203F2000030C3020007088080808380099
:102120000038202121221C00180808F8080818008F
:102130000000203F2000000008F808000008F80810
:10214000001F202020201F000878880000C83808C1
:10215000000007380E010000F80800F80008F80039
:10216000033C0700073C03000818688080681808D3
:1021700020302C03032C30200838C800C838080051
:102180000000203F2000000010080808C8380800A0
:102190002038262120201800000000FE0202020044
:1021A0000000007F40404000000C30C000000000F4
:1021B000000000010638C00000020202FE0000001C
:1021C000004040407F0000000000040202020400C2
:1021D00000000000000000000000000000000000FF
:1021E00080808080808080800002020400000000E7
:1021F00000000000000000000000808080800000DF
:102200000019242222223F2008F8008080000000CC
:10221000003F112020110E0000000080808000008F
:10222000000E112020201100000000808088F8009E
:10223000000E112020103F200000808080800000D0
:10224000001F222222221300008080F08888881834
:102250000020203F2020000000008080808080003F
:10226000006B94949493600008F8008080800000D4
:10227000203F210000203F200080989800000000AF
:102280000020203F202000000000008098980000DF
:1022900000C08080807F000008F8000080808000FF
:1022A000203F24022D302000000808F80000000024
:1022B0000020203F202000008080808080808000DF
:1022C000203F20003F20003F808000808080000071
:1022D000203F210000203F200000808080800000FF
:1022E000001F202020201F00808000808000000030
:1022F00080FFA12020110E0000000080808080005F
:10230000000E112020A0FF8080808000808080004F
:1023100020203F212000010000008080808080007C
:102320000033242424241900008080E080800000F1
:102330000000001F2020000080800000008080003E
:10234000001F202020103F2080808000008080809F
:1023500000010E300806010080800080008080802F
:102360000F300C030C300F00008080008080800054
:102370000020312E0E31200080808000008080807F
:1023800080818E701806010000808080808080002F
:102390000021302C2221300000000000807C02024D
:1023A00000000000003F404000000000FF0000006F
:1023B00000000000FF0000000002027C800000001E
:1023C0000040403F0000000000060101020204043A
:1023D00000000000000000000000000000000000FD
:1023E00000000000000000000000000000000000ED
:1023F00000000000000000000000000000000000DD
:1024000000F0F0F0000000000000000000017F017B
:102410000000000000000000001C1C1C0000000068
:1024200000008060301C8C60301C0C00000000003C
:10243000000000000000000000000000000000009C
:1024400000000000000000E00000000000E00000CC
:102450000086E69F86868686E69F860000011F012D
:10246000010101011F010100000080C06020F8206F
:10247000E0C00000000003070C18FF70E1810000BD
:102480000000070F10107F100F0700008060206011
:1024900080000000E02000000F3020309F70DC370B
:1024A0001030C0000000100E0300071810180700BD
:1024B0000000C02020E0C0000000000080E01F38C5
:1024C000E88703C43C040000070F1810100B070D29
:1024D0001010080000808C4C380000000000000044
:1024E00000000000000000000000000000000000EC
:1024F000000000000000000000000000000080E07C
:10250000300804000000000000FEFF010000000091
:10251000000000000000030F1820400000040830F5
:10252000E0800000000000000000000001FFFE004D
:1025300000000000004020180F0300000000000011
:10254000000000000000C0000000000000426666BD
:102550003C18FF183C6666420000000000000300C3
:1025600000000000000000000000800000000000EB
:10257000001010101010FF101010101000000000BC
:102580000000030000000000000000000000000048
:10259000000000000000000000000000000000003B
:1025A00000808C4C3800000000000000000000009B
:1025B00000000000000000000010101010101010AB
:1025C00010101000000000000000000000000000DB
:1025D00000000000000000000000000000000000FB
:1025E000000000000000000000001C1C1C00000097
:1025F000000000000000000000000000E0380C00B7
:102600000000000080701C03000000000060380E15
:102610000100000000000000000080C06020206079
:10262000C080000000FEFF010000000001FFFE006E
:102630000001070E181010180E070100000080801E
:1026400080C0E000000000000000000000FFFF006C
:102650000000000000001010101F1F1010100000DC
:102660000080402020202060C08000000003030084
:10267000804020381F070000001C1A19181818186D
:10268000181F00000080C020202060C080000000D3
:10269000000303001010182FE780000000070F1040
:1026A000101010180F070000000000000000C0E02C
:1026B000F000000000C0B088868180FFFF808000AD
:1026C000000000000010101F1F1010000000E0604C
:1026D000606060606060000000003F10080808183B
:1026E000F0E0000000070B101010101C0F0300009A
:1026F000000080C040202020E0C0000000FCFF213E
:102700001008080818F0E0000001070C181010105D
:10271000080F03000000C0E06060606060E06000DF
:10272000000003000000E0180700000000000000A7
:10273000001F1F00000000000080C060202020203B
:1027400060C080000087EF2C1818303068CF8300FD
:1027500000070F0810101010180F07000000C0C06D
:1027600020202020C0800000001F3F60404040200B
:1027700010FFFE0000000C1C101010080F030000DA
:102780000000000000000000000000000000000049
:10279000000E0E0E0000000000000000001C1C1CBB
:1027A0000000000000000000000000000000000029
:1027B00000000000000C0C00000000000000000001
:1027C00000583800000000000000000000000080F9
:1027D000402010000000102844820100000000008A
:1027E00000000000000001020408100000000000CA
:1027F000000000000000000000848484848484843D
:10280000848484000000000000000000000000003C
:1028100000001020408000000000000000000000C8
:10282000000001824428100000001008040201008A
:102830000000000000C020201010101030E0C00088
:102840000003030000F010080C0703000000000064
:102850001C1C1C0000000000000000C04060202084
:102860002040C00000FCFF01F00E03C1FE03807F8A
:102870000001070E081111101109040200000000E8
:1028800080E0E000000000000000807C4340477FC3
:10289000F880000010181F1000000000131F1C100B
:1028A00020E0E02020202060C080000000FFFF101A
:1028B000101010182FE78000101F1F10101010109C
:1028C000180F0700000080C0402020202060E0009A
:1028D00000FCFF0100000000000001000001070EE5
:1028E000181010100804030020E0E02020202040F1
:1028F000C080000000FFFF000000000001FFFE009C
:10290000101F1F10101018080E07010020E0E02013
:10291000202020202060800000FFFF101010107C7D
:1029200000000000101F1F101010101010180600DB
:1029300020E0E020202020206060800000FFFF10C9
:102940001010107C00000100101F1F10000000007C
:1029500000000000000080C06020202040E0000057
:1029600000FCFF0100004040C0C140400001070ED4
:10297000181010100F0F000020E0E02000000000F1
:1029800020E0E02000FFFF101010101010FFFF00EB
:10299000101F1F1000000000101F1F10000020203B
:1029A00020E0E020202000000000000000FFFF00E9
:1029B0000000000000001010101F1F101010000079
:1029C00000000000202020E0E02020200000000087
:1029D000000000FFFF0000000060E0808080C07FFA
:1029E0003F00000020E0E020000020A06020200048
:1029F00000FFFF30187CE3C000000000101F1F1014
:102A0000000001131F1C181020E0E020000000004F
:102A10000000000000FFFF000000000000000000B8
:102A2000101F1F10101010101018060020E0E0E01A
:102A300000000000E0E0E02000FF013FFEC0E01EDB
:102A400001FFFF00101F1000031F0300101F1F10C5
:102A500020E0E0C0000000000020E02000FF0003B4
:102A6000071C78E08000FF00101F1000000000002D
:102A7000030F1F00000080C060202060C0800000A5
:102A800000FEFF010000000000FFFE000001070E35
:102A9000181010180C07010020E0E0202020202052
:102AA00060C0800000FFFF2020202020301F0F008A
:102AB000101F1F100000000000000000000080C078
:102AC00060202060C080000000FEFF0100000000C8
:102AD00000FFFE000001070E1111133C7C6721006E
:102AE00020E0E0202020202060C0800000FFFF10B8
:102AF0001030F0D0080F0700101F1F100000000357
:102B00000F1C10100080C060202020204040E000FA
:102B100000070F0C1818303060E08100001F0C080F
:102B200010101010180F07008060202020E0E02017
:102B3000202060800100000000FFFF000000000175
:102B400000000000101F1F100000000020E0E02027
:102B5000000000000020E02000FFFF000000000057
:102B60000000FF0000070F181010101010080700D9
:102B70002060E0E02000000020E060200000077FEF
:102B8000F88000807C03000000000000071F1C0785
:102B90000000000020E0E02000E0E0200020E02035
:102BA0000007FFF8E01FFFFCE01F00000000031F0C
:102BB0000300011F03000000002060E0A0000020CF
:102BC000E0602000000000038F7CF8C601000000D8
:102BD0000010181E130001171F1810002060E0E0FD
:102BE0002000000020E06020000001073EF8E0180F
:102BF0000700000000000010101F1F101000000050
:102C000000806020202020A0E0E0200000000000E4
:102C1000C0F03E0F0300000000101C1F1710101022
:102C2000101806000000000000FC04040404040066
:102C30000000000000FF0000000000000000000095
:102C4000007F404040404000000010E000000000D5
:102C50000000000000000000031C60800000000075
:102C600000000000000000030C708000000004045D
:102C7000040404FC0000000000000000000000FF4D
:102C800000000000000040404040407F0000000085
:102C900000000010080C040C0810000000000000E8
:102CA0000000000000000000000000000000000024
:102CB0000000000000000000000000000000000014
:102CC0000000000000000000000000008080808004
:102CD00080808080808080800000000404080800DC
:102CE00000000000000000000000000000000000E4
:102CF00000000000000000000000000000000000D4
:102D00000000000000000000000098D84464242463
:102D1000FCF80000000F1F18101010081F1F1018DB
:102D20000020E0F000000000000000000000FFFFB5
:102D3000180804040CF8F00000001F0F1810101001
:102D4000180F030000000000000000000000000059
:102D500000E0F8180404043C3800000000030F0CE5
:102D600010101010080600000000000000000020F5
:102D7000E0F0000000E0F81C04040408FFFF00007D
:102D800000030F18101010081F0F080000000000AB
:102D900000000000000000000000E0F84844444447
:102DA0004C7870000000030F0C181010100804007D
:102DB0000000000080C0602020E0C0000004040487
:102DC000FFFF040404040000000010101F1F101077
:102DD00010000000000000000000000000000000E3
:102DE000000070F88C04048CF874040C007076CF2A
:102DF0008D8D8D89C87870000020E0F00000000003
:102E0000000000000000FFFF08040404FCF80000BC
:102E100000101F1F100000101F1F100000000000F6
:102E200000606000000000000000040404FCFC00DE
:102E30000000000000001010101F1F1010100000F4
:102E400000000000000000606000000000000000C2
:102E5000040404FCFC0000000000C0C08080C07FAF
:102E60003F0000000020E0F0000000000000000033
:102E70000000FFFF80C0F41C0404000000101F1FAE
:102E80001100031F1C1010000000202020E0F000A3
:102E9000000000000000000000FFFF000000000034
:102EA00000001010101F1F10101000000000000084
:102EB000000000000000000004FCFC0804FCFC080A
:102EC00004FCFC00101F1F10001F1F10001F1F100C
:102ED0000000000000000000000000000004FCFCF6
:102EE00008080404FCF8000000101F1F1000001068
:102EF0001F1F100000000000000000000000000084
:102F000000E0F0180C04040C18F0E00000030F0CB3
:102F1000101010100C0F0300000000000000000053
:102F2000000000000004FCFC080404040CF8F0009D
:102F30000080FFFF889010101C0F030000000000AD
:102F4000000000000000000000E0F81C0404040879
:102F5000F8FC000000030F1810109088FFFF80009D
:102F6000000000000000000000000000040404FC59
:102F7000FC100804040C0C001010101F1F1010107F
:102F80000000000000000000000000000000000041
:102F900000003078CCC48484840C1C0000001E180F
:102FA00010101011190F06000000000000C00000F2
:102FB0000000000000040404FFFF040404000000FB
:102FC000000000000F1F1010100C00000000000097
:102FD00000000000000000000004FCFE00000004EF
:102FE000FCFE000000000F1F181010081F0F080043
:102FF00000000000000000000000000000040C3C85
:10300000FCC40000C43C0C0400000000010F1E0EB4
:1030100001000000000000000000000000000000AF
:10302000043CFCC400E47CFC84807C040000071F9A
:10303000070000071F07000000000000000000005C
:10304000000000000004041C7CE4C0341C040400E4
:103050000010101C1601131F1C18100000000000A7
:10306000000000000000000000040C3CFCC400C490
:103070003C0404000000C080C1370E0100000000C5
:1030800000000000000000000000000000001C0420
:1030900004C4F47C1C0400000000101C1F17111055
:1030A00010180E0000000000000000F80C040000E2
:1030B00000000000001028EF0000000000000000E9
:1030C0000000003F60400000000000000000FF0022
:1030D00000000000000000000000FF0000000000F1
:1030E000000000000000FF00000000000000040CD1
:1030F000F80000000000000000000000EF281000B1
:1031000000000000000040603F00000000000000E0
:1031100000180602020408102020300800000000F9
:10312000000000000000000000000000000000009F
:10313000000000000000000000000000000000008F
:10314000000000000000000000000000000000007F
:10315000000000000000000000000000000000006F
:1036D00000000000000000000000000080808080EA
:1036E00080800000000000C0E0E0E0E0C0C000001A
:1036F00000000000000000000000000000000000CA
:1037000000000000000000000000000000000000B9
:1037100000000000000000000000000000007EFE2D
:10372000FEFEFEFEFE00000080FEFEFEFEFEFEFE31
:10373000FC00000000FCFEFEFEFEFE3E000000005D
:103740000000000080808080808000000000000079
:1037500000000000000080F8FEFEFEFEFEFEFEFE01
:10376000F080000000000000000000000000008069
:103770008080808080000000000000F8F8F8F8F8F1
:10378000F8F8000000000000000000000000000049
:103790000000E0F0F8FCFCFEFE7E7E3E3E7E7EFEFB
:1037A000FCFC783000000000F8F8F8F8F8F8F800B1
:1037B0000000000000000000000000000000000009
:1037C00000000000000000000000000000000000F9
:1037D000808080808000FFFFFFFFFFFFFF00000070
:1037E000030F1F1F1F1F0F0F00000000000000002D
:1037F0000080808080808080000000000000000049
:1038000000000000000000000000000000000000B8
:103810000000000000000000003FFFFFFFFFFFFC72
:1038200000C0FFFFFFFF7FFFFFFFFFFF8000FEFFE5
:10383000FFFFFFFF0F000000F0F8FEFEFFFF7F1FFD
:103840000F0F1FFFFFFFFEFCF8C000000000C0FCD0
:10385000FFFFFFFF7F071FFFFFFFFFFFF880000054
:103860000000C0F0FCFEFFFFFF7F1F1F1F1F3F3F38
:103870003F0E041F1FFFFFFFFFFFFFFF1F1F1F1F44
:103880000000000000000000000000001F7FFFFF9C
:10389000FFFFFFFCF8F8F0F0E0E0C1C08000001F7F
:1038A0001F1FFFFFFFFFFFFFFF1F1F1F0F00000075
:1038B000FFFFFFFFFFFF00000000FFFFFFFFFFFF14
:1038C000FF000000C0F8FCFEFFFFFF7F1F1F1F3F2F
:1038D000FFFFFFFFFFFFFF00000000FFFFFFFFFFF4
:1038E000FFFF000000C0F8FCFEFFFFFF3F1F1F1F8F
:1038F0003FFFFFFFFEFCF8E00000000000000000BA
:1039000000000000000000000000000000000000B7
:10391000000000000FFFFFFFFFFFFCFFFFFFFF1F86
:103920000001FFFFFFFFFFFEFFFFFFFFFF0700009B
:10393000001EFFFFFFFFFFFFDF1F1F1F1F1F1F9F37
:103940009F1F1F1F0000E0FEFFFFFFFFFFFFFCFCAB
:10395000FCFDFFFFFFFFFFFFFCC00000FFFFFFFFBC
:10396000FFFFFF800000000000800000000000FF5B
:10397000FFFFFFFFFFFF000000000000000000004D
:1039800000000000000080C0C080010103030307A5
:103990000FFFFFFFFFFFFFFF70000000FFFFFFFFB3
:1039A000FFFFFF00000000000000FFFFFFFFFFFF20
:1039B00000000080FFFFFFFFFFFFFF000000FFFF90
:1039C000FFFFFFFFFF8000000000FFFFFFFFFFFF82
:1039D000FF00000000FFFFFFFFFFFFFF000000FFF0
:1039E000FFFFFFFFFFFF8000000000FFFFFFFFFF62
:1039F000FFFF0000000000000000000000000000C9
:103A000000000000000000000000000000000007AF
:103A10003F3F3F3F3F3F3F3F0F000000003F3F3FE2
:103A20003F3F3F3F3F3F01000000000001070F1FE5
:103A30001F3F3F3F3E3E3E3E3F3F1F1F0E00303E7A
:103A40003F3F3F3F3F1F01000000000000033F3F9A
:103A50003F3F3F3F3C000003070F1F3F3F3F3F3EBC
:103A60003E3F3F3F1F1E080000030F1F3F3F3F3FE9
:103A70003F3E3F3F1C180000000000000000000710
:103A80000F1F1F3F3F3F3F3E3E3F3F3F3F1F1F0F28
:103A9000070300000000070F1F3F3F3F3F3E3F3F2F
:103AA0003F1C00000F1F3F3F3F3F3F3E3F1F1F3F58
:103AB0003F3F3F3F3F00000000070F1F3F3F3F3F9A
:103AC0003F3E3F1F1F3F3F3F3F3F3F000000003F43
:103AD0003F3F3F3F3F3F0000000003070F1F3F3FB6
:103AE0003F3F3E3E3F3F3F1F1F0F030000000000CF
:103AF00000000000000000000000000000000000C6
:103B000000000000000000000000000000000000B5
:103B100000000000000000000000000000000000A5
:103B20000000000000000000000000000000000095
:1040D0000000000053797374656D436C6B3A25647E
:1040E0000D0A00777777772E77656163742D746397
:1040F0002E636E0D0A0D000D0A576541637420533F
:10410000747564696F20436F726520426F617264D9
:104110000D00776561637473747564696F2E7461E3
:104120006F62616F2E636F6D0D00776561637473ED
:10413000747564696F2E616C6965787072657373EC
:104140002E636F6D0D003E3E204E756D3D25642043
:10415000202020200000400000000000000000009F
:1041600000808000000000000000000000404000CF
:1041700000000000000000000000800000000000BF
:10418000000000000000000000000000000000002F
:10419000000A000000000002010000000000000111
:1041A000000000000000000000000000000000000F
:1041B00000000000000000000000000000000000FF
:1041C00000000000000000000000000000000000EF
:1041D00000000000000000000000000000000000DF
:1041E0000000000000222222222222000000000003
:1041F000104200080000002008000000A815000878
:104200001842000808000020C0130000B81500087C
:084210000000000000F36F063E
:0400000508000105E9
:00000001FF
