:020000040800F2
:100000001004002019010008950100089101000862
:10001000930100088D010008F102000800000000B3
:10002000000000000000000000000000D3010008F4
:100030008F01000800000000D1010008D501000870
:1000400033010008330100083301000833010008C0
:1000500033010008330100083301000833010008B0
:1000600033010008330100083301000833010008A0
:100070003301000833010008330100083301000890
:100080003301000833010008330100083301000880
:100090003301000833010008330100083301000870
:1000A0003301000833010008330100083301000860
:1000B0003301000833010008330100083301000850
:1000C0003301000833010008330100083301000840
:1000D0003301000833010008330100083301000830
:1000E000330100083301000833010008000000005C
:1000F0000000000000000000000000000000000000
:1001000033010008DFF80CD000F02EF8004800475B
:10011000DD04000810040020064880470648004718
:10012000FEE7FEE7FEE7FEE7FEE7FEE7FEE7FEE7A7
:10013000FEE7FEE7D90100080501000830B50B46CF
:10014000014600202022012409E021FA02F59D4207
:1001500005D303FA02F5491B04FA02F52844151EDB
:10016000A2F10102F1DC30BD064C074D06E0E0686B
:1001700040F0010394E8070098471034AC42F6D3EE
:10018000FFF7C4FF140A0008340A0008FEE77047AE
:10019000FEE7FEE7704700F01F010122800902FA26
:1001A00001F17047835823EA0101815070470261D1
:1001B00002691143016170478358194381507047A8
:1001C000C260C2681143C16070471143416170470A
:1001D0007047704700F012B918B54048016841F007
:1001E0000101016001688907FCD5416841F0800187
:1001F00041600021009100994F2902D800990131F6
:10020000F8E7416841F090014160002100910099B8
:100210004F2902D800990131F8E74168304A314B43
:1002200021F00301416001681140016041681940FB
:100230004160016811400160016821F48021016082
:10024000294943680B40436003681A4002604FF439
:100250001F028260026842F4803202604FF6FE7232
:10026000531E0468934203D214F400321A46F7D0A6
:100270000268920300D4FEE7426801F54301426040
:1002800042684260426842F480624260426822F4FE
:1002900040324260426842F440324260426811405B
:1002A000124A4160416811434160016841F0807128
:1002B000016001688901FCD5416821F003014160BA
:1002C000416841F00201416041680907FCD54FF0E7
:1002D00000600021BDE8184000F08EB90010024017
:1002E000FFFFF6FE0C00FFE8FFFF00F70000280804
:1002F000FEE7000080B540F2026000F0D5F94FF44F
:10030000C06000F0D1F90648282103220123BDE88E
:10031000804000F08FB800BF0148012100F0D8B83C
:1003200000080140B0B540F2036000F0BDF9104C88
:100330001021032204230425204600F07BF8656188
:10034000B0BD00BF0148042101607047140C01409A
:1003500010B5074C0421204600F0BAF8C0F10100A6
:100360000421C2B22046BDE8104000F05DB800BFD5
:10037000000C0140B0B540F2026000F095F940F287
:100380000E6000F091F9F74C182103224FF400732E
:10039000A4F54055284600F04DF8284604210322D4
:1003A0004FF4806300F046F8204600F0E1F9204663
:1003B0004FF4E13100F0B6F92046002100F037FAA1
:1003C0002046002100F028FA2046002100F019FA0A
:1003D0002046002100F010FA2046002100F007FA24
:1003E0002046042100F012FA2046082100F019FAF4
:1003F0002046BDE8B04000F0EDB900BFC848016834
:1004000001310160704700BFB0B5ED4D0446C1B287
:10041000284600F0A9F92846072100F0E0F9002855
:10042000F9D02046B0BD00BF1023002A08BF142316
:10043000195070472DE9F04701F00F0ACC0600F182
:10044000140C00F1100E4FF001094FF00F0848BFD7
:100450004AEA020A00260027082F17D009FA07F2F5
:1004600012EA03050FD00268282903D0482903D1D6
:10047000744600E06446256008FA06F50AFA06F4B8
:10048000AA432243026004360137E5E70826002725
:100490004FF001094FF00F08102E08BFBDE8F0879C
:1004A00009FA06F212EA03050FD04268282903D0A0
:1004B000482903D1744600E06446256008FA07F530
:1004C0000AFA07F4AA432243426004370136E3E7FD
:1004D0008068084018BF01207047000000F0FEF857
:1004E000FFF720FFFFF706FFFFF744FF1848194CFE
:1004F000A04719A0A0471EA0A04724A0A0472848B5
:100500002C4D016827A0A8472B4E0120B04701467B
:100510002AA0A8470220B04701462CA0A8470320E4
:10052000B04701462DA0A84730A0A04700F0F4F83E
:10053000044600F0F1F88442FBD86434FFF7ECFE87
:1005400010B1FFF7FFFEF4E7FFF702FFF1E700BF8E
:10055000F8090008CD090008776561637473747544
:1005600064696F2E74616F62616F2E636F6D0D0031
:10057000776561637473747564696F2E616C696506
:100580007870726573732E636F6D0D007777777770
:100590002E77656163742D74632E636E0D0A0D00F2
:1005A0000400002053797374656D436C6B3A2564C5
:1005B0000D0A00003908000811060008434B5F418E
:1005C00048422069732025640D0A0000434B5F41B7
:1005D0005042312069732025640D0A00434B5F416E
:1005E0005042322069732025640D0A0054656D70F5
:1005F0006C6174650D000000034A11400843034913
:100600000860BFF34F8F704780FFFF1F08ED00E0C9
:1006100070B51D4A116801F00C031C49082B15D157
:100620001368DB031A4B03D51468A40358BF0B46A9
:1006300011681468102505EAD454C1F3834121449C
:1006400001240F2938BF0224214459431468136838
:10065000126803280CD8C4F303140FA60D4D345DA3
:1006600021FA04F4DFE800F00E020609214609E051
:10067000002107E0C3F3022001E0C2F3C220285C9E
:1006800024FA00F1084670BD0410024000127A00FE
:1006900000093D00F0090008000000000000000013
:1006A00001020304060708097346FFF774FD9E461E
:1006B000094AFFF781BD00BF7346FFF76CFD9E46F8
:1006C000054AFFF76FBD00BF7346FFF764FD9E4606
:1006D000014AFFF771BD00BF001002400B484FF404
:1006E0007A710068B0FBF1F00138B0F1807F00D37F
:1006F000FEE70749F02248600648027000228A603F
:1007000007220A6050210170704700BF04000020DA
:1007100010E000E023ED00E001480068704700BFF2
:1007200008000020B0B5044625480D4684420DD08F
:100730002448844208D02448844205D02348844277
:1007400002D0234884420BD1022000E00320FFF7AF
:100750005FFF00EB5500B0FBF5F080B2A060B0BDCC
:100760000020F6E7003801406FF35F2141607047D9
:1007700010B5134988420FD0124988420FD0124950
:1007800088420FD0114988420FD01149884218BFC2
:1007900010BD40F211440AE040F20E3407E040F28E
:1007A000124404E040F2134401E040F214442046B5
:1007B000FFF78AFF2046BDE81040FFF77DBF00BF6E
:1007C0000038014000480040004C0040005000400C
:1007D00000440040C16841F40051C16070478A097B
:1007E00001F01F011058C84000F001007047426935
:1007F00022F40072FFF7E9BC426922F48072FFF72D
:10080000E4BCC26822F4C062FFF7DABCC26822F01E
:1008100004021143C1607047026922F44052FFF79D
:10082000C6BCC26822F008021143C1607047C268AA
:1008300022F48052FFF7C4BC0FB4054B10B503A9D6
:10084000044A029800F018F810BC5DF814FB000090
:10085000090400080000002002E008C8121F08C1B7
:10086000002AFAD170477047002001E001C1121F31
:10087000002AFBD1704700002DE9FF4F89B09B464D
:100880000446002506E025280BD05A460B999047D0
:10089000641C6D1C20780028F5D10DB02846BDE8F9
:1008A000F08F0027B8460122474900E0074314F8BB
:1008B000013F203B02FA03F00842F7D120782E28AE
:1008C00019D114F8010F47F004072A280ED06FF051
:1008D0002F022078A0F1300109290CD808EB8801FB
:1008E00002EB410100EB0108641CF2E70A98641C6A
:1008F00050F8048B0A9020780028CED0642808D0C5
:10090000692806D075281ED05A460B9990476D1C51
:1009100058E00A994FF00A0901C90A91002802DA41
:1009200040422D2102E0390504D52B218DF82010FD
:10093000012103E0F90704D02021F7E78A4608AE39
:100940000DE00021FAE70A994FF00A0901C90A915E
:10095000F7E74946FFF7F2FB303106F8011D0028A2
:10096000F7D1ADEB060000F12009780701D44FF074
:100970000108C84502DDA8EB090000E00020804620
:10098000002706E008A85A46C05D0B9990476D1CE9
:100990007F1C5745F6DB04E030205A460B99904700
:1009A0006D1CB8F10001A8F10108F5DC05E016F8AE
:1009B000010B5A460B9990476D1CB9F10001A9F142
:1009C0000109F4DC641C65E70928010010B5044640
:1009D00001E0FFF719FD14F8010B04490028F8D1D4
:1009E000BDE810400A20FFF70FBD00000000002006
:1009F00000000000010203040D0A576541637420E2
:100A000053747564696F20436F726520426F617221
:100A1000640D0000380A00080000002008000000F3
:100A200058080008400A00080800002008040000D8
:100A300068080008000000000000000000F36F06D6
:0400000508000105E9
:00000001FF
